:1000000000800010F102000013010000FF0000005A
:10001000FB000000E7000000D3000000000000002B
:10002000000000000000000000000000211400009B
:10003000CF00000000000000110B0000D90A0000F2
:10004000CD000000CD000000CD000000CD0000007C
:10005000CD00000035720000CD000000CD00000092
:10006000CD000000CD000000CD000000CD0000005C
:10007000CD000000CD000000CD000000CD0000004C
:10008000CD000000CD000000CD000000CD0000003C
:10009000CD000000CD000000CD000000CD0000002C
:1000A000CD000000CD000000CD000000CD0000001C
:1000B00039180000CD000000CD000000CD00000088
:1000C000CD000000CD000000CD000000FEE700BE26
:1000D000FEE71EF0040F0CBFEFF30880EFF309807A
:1000E0007146854A10471EF0040F0CBFEFF30880DD
:1000F000EFF309807146814A104700BEFEE71EF00B
:10010000040F0CBFEFF30880EFF3098071467C4ABF
:10011000104700BEFEE780B582B004468846084B13
:100120005E6B9F6B9D6A074806F0FAFBCDF8008076
:100130003B4632462946204606F0FEFD00BEFEE75D
:1001400000ED00E05899000080B582B00446884672
:10015000084B5E6B9F6B9D6A074806F0E1FBCDF88C
:1001600000803B4632462946204606F0E5FD00BEAB
:10017000FEE700BF00ED00E0689900002DE9F041C6
:1001800082B004468846134B5E6B9F6B9D6A1B6B67
:1001900013F0020F03D00F4BDB6A002B0CDB0E4871
:1001A00006F0BEFBCDF800803B463246294620468D
:1001B00006F0C2FD00BEFEE74BF6AB6102F0F2F9BD
:1001C0000028ECD0034B4FF00042DA6202B0BDE8E9
:1001D000F08100BF00ED00E07499000000B583B02D
:1001E00002F0F4F9304B314A1360314A1360314B5D
:1001F000314A32498B4204D2116819600433043207
:10020000F7E72A4B1A682E4B9A4200D0FEE7284B9C
:100210001A682C4B9A42F9D1234B2B4A13602B4A74
:1002200013602B4B02E000221A600433294A9342E8
:10023000F9D3254B1B6813B9244B1B6803B1FEE7A8
:1002400002F0C0F9694601A802F066FB224C234B7C
:10025000E41AA4100025AC4214DC214C214BE41A12
:10026000A4100025AC4213DC0099019807F096F920
:1002700005461D4C1D4BE41AA410002C0EDC28462C
:1002800002F052FB154B53F8253098470135E2E751
:10029000144B53F8253098470135E3E7013C134BE5
:1002A00053F824309847E8E7BABADECA00000010D5
:1002B0006002001000000010549D00006402001055
:1002C000785634123254769868020010D8500010D4
:1002D00068020010DC5000102C0300002C0300000A
:1002E0002C0300002C0300002C0300002C03000052
:1002F00008B5FFF773FF0000170100004901000077
:040300007D0100007B
:10030400549D00000000001064020010549D000081
:1003140000C0072000C0072068020010DC50001055
:0803240000C0072000C0072003
:1003300040B190F8313013F0040F03D023F00403E0
:1003400080F8313070470000054B1B6823B1044B27
:100350001A68D36C0133D364014B1868704700BF2F
:10036000D8060010084B1B681B683BB1064B1B6886
:10037000DB68DB685A68054B1A607047034B4FF027
:10038000FF321A60704700BFDC06001024500010D6
:10039000002301E0013001330278A52AFAD0C3F32B
:1003A0008F007047014B01221A607047C85000103F
:1003B000034B1B680360034B1B684360704700BF1F
:1003C00028500010C4500010144B1B681BB1144B74
:1003D00001221A60704710B4114B00221A60114BB1
:1003E0001B68B3FA83F3DBB2C3F11F030E49142277
:1003F00002FB03F28C1860684068606008320A44AF
:10040000904201D141686160074A142101FB032336
:100410005B68DA68054B1A6010BC7047E04F00104B
:10042000C8500010E84F0010E8060010D806001071
:10043000014B1868704700BFC4500010024A13688F
:1004400001331360704700BFE04F00100023092BF9
:100450000FD8084A02EBC3025268824201D001332E
:10046000F5E7044A002142F8331002EBC303596058
:100470007047704740500010436A23B1036B1868FF
:10048000C0F1050070470020704703694268816829
:1004900091608268416851605A68824206D00022A9
:1004A00002611A68013A1A601868704782685A60D7
:1004B000F5E730B40D68B5F1FF3F02D000F1080256
:1004C00002E0026904E01A4653681C68AC42FAD99B
:1004D00053684B6099608A6051600861036801331A
:1004E000036030BC704743684B609A688A609A68C2
:1004F0005160996008610368013303607047000030
:1005000070B504460E461D4B1D681D4B186804301F
:10051000FFF7BBFF48B91A4B1A681A490B68D06A33
:100520000122824023EA02030B60B4F1FF3F13D0A3
:100530002C44134B1B685C60A54216D8124B1868FC
:100540000F4B19680431FFF7B4FF104B1B68A3422F
:1005500012D90E4B1C600FE0002EE9D0084B196831
:1005600004310B48FFF7BFFF06E00A4B1868044B45
:1005700019680431FFF79DFF70BD00BFC450001023
:10058000D8060010E84F0010DC06001024500010C0
:100590009C500010E406001010B50C46044B19687E
:1005A0001831FFF786FF01212046FFF7A9FF10BD94
:1005B000D806001000283FD038B50446826C8A4225
:1005C00000D20A46E16A914202D0E06C012800D0D4
:1005D00038BDE262A069002802DBC2F10502A26117
:1005E000636901EB81018800144A02449342EFD110
:1005F000251D2846FFF749FF70B9E36A03EB830125
:100600008A000E498A583AB90D480268012101FA58
:1006100003F322EA03030360E36A0949086801223D
:100620009A4002430A6003EB83039A002946034879
:100630001044FFF758FFCBE7704700BFE8060010F3
:10064000E84F0010002835D038B50446C26C013A96
:10065000C264C06AA16C88422ED00AB1002038BDA5
:10066000251D2846FFF711FF70B9E36A03EB8301EC
:100670008A0012498A583AB911480268012101FAE0
:1006800003F322EA03030360A36CE362C3F10502F0
:10069000A2610B490868012404FA03F202430A60CC
:1006A00003EB83039A00294604481044FFF71BFF1D
:1006B0002046D4E7002070470020D0E7E80600106D
:1006C000E84F0010002851D038B50446C26A2849C6
:1006D0000968C96A8A423FD28169002905DB244939
:1006E0000968C96AC1F105018161606902EB820292
:1006F0009100204A0A44904205D01D4A1268D26AED
:10070000E262012038BD251D2846FFF7BEFE70B904
:10071000E36A03EB83018A0016498A583AB91648FE
:100720000268012101FA03F322EA03030360104B7C
:100730001B68DB6AE36210490868012404FA03F2CB
:1007400002430A6003EB83039A00294609481044D8
:10075000FFF7C9FE2046D5E7826C054B1B68DB6AB4
:100760009A4201D20120CDE70020CBE7002070475C
:10077000D8060010E8060010E84F001038B5C3682E
:10078000DC6804F118052846FFF77FFE134B1B6851
:10079000E3B9251D2846FFF778FEE36A104908688B
:1007A00001229A4002430A6003EB83039A00294620
:1007B0000C481044FFF797FEE26A0B4B1B68DB6A9C
:1007C0009A4208D90120094B186038BD29460848CB
:1007D000FFF789FEF0E70020F7E700BFE04F0010C9
:1007E000E84F0010E8060010D8060010C8500010AE
:1007F0002C50001038B5EFF311844FF0500383F301
:100800001188BFF36F8FBFF34F8F826BC36B93421F
:100810001AD990F845305BB201328263B3F1FF3FE1
:1008200005D001335BB280F8453001200DE0436A0A
:100830000BB9012009E00D462430FFF79FFF38B1C6
:1008400045B10120286000E0002084F3118838BD04
:100850000120FAE70120F8E7F8B5344B1B68002BBC
:1008600058D1334B1D6801351D6085B1314B1B6874
:10087000AB4245D90027304B1B68DB6A03EB83038F
:100880009A002E4B9B58012B49D9012747E02C4A4F
:1008900011682C4B1868106019602B4A13680133DB
:1008A0001360FFF75FFDE1E70127254B1B681B681D
:1008B00043B3234B1B68DB68DC6863689D4226D327
:1008C000261D3046FFF7E1FDA36A1BB104F11800B5
:1008D000FFF7DBFDE36A1D49086801229A400243E5
:1008E0000A6003EB83039A00314614481044FFF773
:1008F000FAFDE26A104B1B68DB6A9A42D4D2D4E755
:100900000027D2E70B4B4FF0FF321A60B3E7094ADA
:100910001360B0E70E4A13680133136000270D4BD4
:100920001B6803B101273846F8BD00BFE04F001037
:10093000C450001024500010D8060010E806001023
:10094000DC060010E406001028500010E84F0010EC
:10095000DC4F0010C850001000230361704700F105
:10096000080343604FF0FF328260C36003610023DD
:100970000360704738B5002407E004EB840293005D
:100980000E481844FFF7EBFF0134042CF5D90C4D49
:100990002846FFF7E4FF0B4C2046FFF7E0FF0A482C
:1009A000FFF7DDFF0948FFF7DAFF0948FFF7D7FF38
:1009B000084B1D60084B1C6038BD00BFE8060010E6
:1009C000F04F0010045000102C500010B0500010D8
:1009D0009C500010DC060010E406001010B4134A0E
:1009E00000E01A4613688342FBD3516854188442CE
:1009F00009D041684418A3420AD00360904200D055
:100A0000106010BC70474068014451601046F0E728
:100A1000074C2468A34206D05B6819444160136800
:100A20001B680360EAE70460E8E700BF9450001029
:100A3000E0060010124A12F0070F1ED0D11D21F05F
:100A40000701C1F5904313440A460E480260002195
:100A500041601344083B23F007030B4803605960CF
:100A60001960991A51601360084B1960084B19609E
:100A7000084B4FF000421A6070474FF49043E4E790
:100A8000D007001094500010E00600102050001015
:100A900018500010EC4F0010014B1868704700BF51
:100AA00018500010084A0023136008490B60084BD7
:100AB0001B684FF47A71B3FBF1F3013B05490B60FE
:100AC00007231360704700BF10E000E018E000E06B
:100AD0000400001014E000E008B54FF0500383F369
:100AE0001188BFF36F8FBFF34F8FFFF7B5FE18B1BB
:100AF000034B4FF080521A60002383F3118808BD26
:100B000004ED00E000000000000000000000000014
:100B1000EFF30980BFF36F8F0D4B1A6820E9F00FD8
:100B200010602DE908404FF0500080F31188FFF766
:100B30004BFC4FF0000080F31188BDE808401968B5
:100B40000868B0E8F00F80F30988BFF36F8F704733
:100B5000D8060010034A1368013B13600BB983F3F6
:100B6000118870478C0000104FF0500383F31188F8
:100B7000BFF36F8FBFF34F8F024A136801331360C7
:100B8000704700BF8C000010F8B504460D46FFF713
:100B9000EBFF114B1A686168501A2B68B3F1FF3FE5
:100BA00016D027680D4E3668B74201D0914211D950
:100BB000834206D800232B600124FFF7CBFF204699
:100BC000F8BD1B1A2B602046FFF7F2FB0024F4E768
:100BD0000024F2E70124F0E7C45000102850001070
:100BE00038B5FFF7C1FF2E4B1A68013A1A601B682F
:100BF000002B4DD12B4B1B683BB300242A4B1B68A9
:100C00002BB3294BDB68DC6804F11800FFF73DFCCF
:100C1000251D2846FFF739FCE36A244908680122AC
:100C20009A4002430A6003EB83039A002946204856
:100C30001044FFF758FCE26A1E4B1B68DB6A9A42BD
:100C4000DCD31D4B01221A60D8E7002421E00CB14F
:100C5000FFF788FB194B1C6874B9174B1B68E3B18D
:100C6000174B4FF080521A60BFF34F8FBFF36F8F57
:100C700001240EE0013C07D0FFF7EEFD0028F9D07B
:100C80000D4B01221A60F5E70C4B00221A60E4E7D5
:100C90000024FFF75FFF204638BD0024F9E700BFBE
:100CA000E04F0010D44F00102C500010E84F0010FF
:100CB000E8060010D8060010C8500010DC4F0010E5
:100CC00004ED00E010B540B90A4B4FF080521A60B5
:100CD000BFF34F8FBFF36F8F10BD0446FFF7AEFB1E
:100CE00000212046FFF70CFCFFF77AFF0028EBD02D
:100CF000F2E700BF04ED00E0F8B138B50446A0F11A
:100D0000080550F8042C0D4909680A4202D050F831
:100D1000080C00B138BD22EA010244F8042CFFF7A8
:100D20008DFB54F8041C064A13680B4413602846D4
:100D3000FFF754FEFFF754FFECE77047EC4F00104D
:100D40001850001010B50446006BFFF7D5FF204681
:100D5000FFF7D2FF10BD00000F4B1B68D3B110B5D9
:100D6000FFF702FF0D4BDB68DC68201DFFF78DFBF2
:100D70000B4A1368013B1360074A1368013B136079
:100D8000FFF7E8FE2046FFF7DDFF034B1B68002B53
:100D9000E6D110BD704700BFD84F0010B050001012
:100DA000D44F001008B5FFF7D7FFFCE710B5044695
:100DB000FFF74CFB2046FFF79FFF10BD70B50546BF
:100DC000FFF73CFB284B1B68A3B1284B1B681D4257
:100DD00042D135B1083515F0070F02D025F00705CF
:100DE0000835002D3AD0224B1B68AB4238D3214A3C
:100DF000146804E0FFF71EFEE7E722461C4663681E
:100E0000AB4202D22368002BF7D1174B1B68A342D9
:100E100028D0166808362368136063685B1B102BA4
:100E200014D8626812490B689B1A0B601249096852
:100E30008B4201D210490B600C4B1B68134363605B
:100E400000232360FFF7CCFE304670BD601943607D
:100E50006560FFF7C3FDE4E70026F3E70026F1E74E
:100E60000026EFE70026EDE7E0060010EC4F00104B
:100E7000185000109450001020500010F8B5194B75
:100E80001B68834225D00446FFF76EFE6569164B4A
:100E90001E68164B1F68FFF75DFEB5421BD0BD42B2
:100EA0001BD0134B9D4205D0124B9D4217D075B1FC
:100EB00001200FE0A36A0BB102200BE094F854303C
:100EC000DBB2012B01D0032004E0022002E0042069
:100ED00000E00020F8BD0220FCE70220FAE7042031
:100EE000F8E700BFD8060010DC060010E40600108A
:100EF0009C500010B050001070B50C4616460546C8
:100F0000D0B1256005F134026260EA6A22612A6B81
:100F1000E2612A6CA260AA6C62610022A261052BC8
:100F200019D0124A1268AA4209D02373032B09D0A0
:100F3000B6B90023238470BD0C4A1568E1E700238D
:100F40002373F5E7FFF77AFAAB6A0BB10223237339
:100F5000FFF746FEECE72846FFF790FF2073E7E730
:100F6000286BFFF715FA2084E5E700BFD8060010CC
:100F70002DE9F0470B683BB34B685B684B6001F1B0
:100F800008094B4507D090460C4607464B68D3F8F6
:100F90000CA0002510E05B684B60F4E76368DE6836
:100FA00005EBC50399004346012239443046FFF75B
:100FB000A3FF0135B24508D063685B68636099455B
:100FC000ECD15B686360E9E700252846BDE8F0875F
:100FD000F8B507460C461646FFF730FA224B1B6859
:100FE000A3423BD805250024013D04EBC40398002F
:100FF00005EB8502930001221C4919443844FFF790
:10100000B7FF0444002DEFD104EBC4039800184B44
:10101000196802223844FFF7ABFF044404EBC40311
:101020009800144B196802223844FFF7A1FF0444CA
:1010300004EBC403980004220F493844FFF798FFDB
:10104000044404EBC403980003220C493844FFF71E
:101050008FFF04441EB10023336000E00024FFF73B
:10106000BFFD2046F8BD00BFD44F0010E8060010B9
:10107000DC060010E4060010B05000109C50001078
:1010800010B50446FFF770FD214A13680133136061
:10109000204B1B685BB1204B1B686BB91D4B1B6859
:1010A000DA6AE36A9A4207D81A4B1C6004E0194BCB
:1010B0001C601368012B27D0184A13680133136092
:1010C0002364E36A1649086801229A4002430A60D1
:1010D00003EB83039A00211D12481044FFF703FA23
:1010E000FFF738FD0C4B1B686BB10A4B1B68DA6AC3
:1010F000E36A9A4207D20C4B4FF080521A60BFF35A
:101100004F8FBFF36F8F10BDFFF734FCD4E700BFE4
:10111000D44F0010D806001090500010E44F00107B
:10112000E84F0010E806001004ED00E010B504469A
:10113000FFF71AFDA26BE36B9A4204D00024FFF77D
:1011400009FD204610BD0124F9E710B50446FFF75C
:101150000BFDA36B23B10024FFF7FCFC204610BD60
:101160000124F9E738B50546FFF7FEFC95F8454040
:1011700064B203E0FFF716F9013C64B2002C08DD0D
:101180006B6A33B105F12400FFF7F8FA0028F3D0B9
:10119000F0E7FF2385F84530FFF7DCFCFFF7E4FCC0
:1011A00095F8444064B203E0FFF7FCF8013C64B2F8
:1011B000002C08DD2B6933B105F11000FFF7DEFAD2
:1011C0000028F3D0F0E7FF2385F84430FFF7C2FC96
:1011D00038BD000070B584B0044601910026354644
:1011E00048E0013BA36323683BB123694BB9FFF798
:1011F000B1FC0126304604B070BDFFF7A5F8A06031
:10120000F3E704F11000FFF7B9FA0028EFD0424BE2
:101210004FF080521A60BFF34F8FBFF36F8FE6E736
:10122000FFF798FC0026E5E702A8FFF7C1F80125C3
:101230002AE0002384F8443032E0002384F845306B
:1012400034E0FFF791FCA068FFF73CFA0646FFF791
:1012500081FC3BE02046FFF785FFFFF7C1FC09E07A
:101260002046FFF77FFFFFF7BBFC2046FFF76DFF2F
:10127000002840D1FFF778FCA36B002BB1D1019B74
:10128000002BCDD0002DCFD0FFF764FCFFF7D6F8B0
:10129000FFF76AFC94F844305BB2B3F1FF3FC8D06B
:1012A00094F845305BB2B3F1FF3FC6D0FFF752FC74
:1012B00001A902A8FFF768FC0028D1D12046FFF75A
:1012C00044FF0028C6D02368002BBAD0019904F14E
:1012D0002400FFF761F92046FFF744FFFFF780FC89
:1012E0000028C7D10C4B4FF080521A60BFF34F8FCC
:1012F000BFF36F8FBEE7002E3FF47CAFFFF734FCE7
:101300002046FFF7B9F80146A068FFF753F9FFF749
:1013100021FC00266EE700BF04ED00E038B504466E
:101320000D46FFF721FC2168E26B236C03FB0210E2
:10133000A0600020A0636160013A02FB0313E36038
:10134000FF2384F8443084F84530A5B923691BB9DC
:10135000FFF700FC012038BD04F11000FFF70EFA82
:101360000028F5D0084B4FF080521A60BFF34F8F22
:10137000BFF36F8FECE704F11000FFF7F0FA04F110
:101380002400FFF7ECFAE3E704ED00E038B51D4672
:10139000049C0B4649B12260E0632364012120468E
:1013A000FFF7BCFF84F84C5038BD2460F4E7F0B57B
:1013B00083B0054617460E4689B100FB01F0503058
:1013C000FFF7FCFC044638B100903B4600F15002A8
:1013D00031462846FFF7DAFF204603B0F0BD002073
:1013E000EDE710B50C4602220021FFF7E0FF0346AF
:1013F00000B18463184610BD06480068006880F399
:10140000088862B661B6BFF34F8FBFF36F8F00DFFE
:1014100000BF000008ED00E0000000000000000038
:10142000074B19680868B0E8F00F80F30988BFF32C
:101430006F8F4FF0000080F311884EF00D0E704753
:10144000D806001082B0002301934FF0500383F3BD
:101450001188BFF36F8FBFF34F8F019B002BFCD020
:1014600002B0704710B50B4B1A6842F478021A604C
:101470001A6842F078421A60FFF714FB0024064B0A
:101480001C60FFF7B9FFFEF79FFFFFF7DBFF204669
:1014900010BD00BF20ED00E08C0000104FF0807305
:1014A00040F8043C21F0010140F8081C034B40F8CF
:1014B0000C3C40F8202C4038704700BF4514000019
:1014C000082804D0202802D0042800D0002070472B
:1014D00041681960002343600168116003600120C6
:1014E00070470000032803D8024B03EB001070473D
:1014F000002070477C07001008B5FFF7F3FF08BD18
:1015000008B5FFF7F9FF30B1034602680AB1184683
:1015100008BD0023FBE70023F9E7000008B5FFF74B
:10152000EFFF034608B1184608BD024A09211160C1
:10153000F9E700BFD450001070B50D461646FFF70E
:10154000EDFF38B30446002300E00133032B21DC18
:1015500003EB43018A0010498A58A242F5D103EBFC
:10156000430291000C4A0A4451682A689142ECD126
:1015700003EB43029100084A0A44916832689142A1
:10158000E3D1054A5900C8188400151900201051EC
:101590006860A86070BD00BF4C070010F8B50D462C
:1015A0001446FFF7BBFFC8B106460023032B13DC2C
:1015B00003EB43018A000A498A580AB10133F5E76F
:1015C0000A465900CF18B8001718165028687860D6
:1015D0002368BB60012000E00020F8BD0020FCE78C
:1015E0004C070010002806DC4042102805DC044BA4
:1015F00053F820007047052070470520704700BF52
:10160000C897000008B5FFF7A5FA08BD08B5FFF7B1
:10161000ABFA012008BD0000F8B506460D460024CF
:10162000032C22DCFFF7F2FF2301124AD3581BB12F
:10163000FFF7E8FF0134F3E72301D718D650FFF78F
:10164000E1FF00237B603B81337803F0F003102B34
:1016500007D00125074B03EB04135D8100229A811B
:1016600005E0002DF6D00125F4E74FF0FF342046C9
:10167000F8BD00BF7C07001038B550B10446FFF735
:10168000C5FF94F9085000232372FFF7BBFF2846DB
:1016900038BD0025FBE710B504460068FFF7ECFFF6
:1016A000034608B96FF00503237110BD08B5FEF7B6
:1016B000BFFE08BD08B50068FFF778FB08BD10B590
:1016C00004464FF0FF312068FFF784FD0128F8D170
:1016D00010BD70B504460E46FEF7AAFE054666B973
:1016E0004FF0FF312068FFF775FD0128F8D1FEF7B4
:1016F0009FFE401B00D1012070BD31462068FFF7DE
:1017000069FD012802D04FF0FF30F5E7FEF790FEAB
:10171000401BF1E708B50068FFF748FB08BD10B5AE
:101720000446084600220421FFF741FE206008B16C
:10173000002010BD4FF0FF30FBE7000010F0040F59
:101740001FD01E4A136843F00803136001F006011E
:1017500002292CD006291AD009B3184A136843F07D
:1017600030031360154B1B68154A12685A4012F07B
:10177000380F05D0124A136043F004030F4A136078
:1017800070470E4A136823F008031360DEE70B4A24
:10179000136823F0100343F020031360E2E7074AC5
:1017A000136843F0100323F020031360DAE7034AC1
:1017B000136823F030031360D4E700BFCC06001099
:1017C000C806001008B54FF47A7303FB00F0034B12
:1017D000A3FB00308009FFF775FA08BDD34D6210F6
:1017E00020B94FF0A04300229A6170474FF0A04308
:1017F0004FF480729A61704770B94FF0A043122283
:101800009A605A6822F001025A60D3F8002122F44B
:101810008062C3F8002170474FF0A04315229A6000
:101820005A6842F001025A60D3F8002142F4806203
:10183000C3F800217047000030B583B00023019346
:1018400000934FF0A043D3F8E04F43F2FF0525404B
:1018500014F00B0F14D114F0B00F18D14FF0A043B7
:10186000C3F8E85F019B0BB9009B3BB10B4B4FF0FA
:1018700080521A60BFF34F8FBFF36F8F03B030BD3C
:1018800001A9074BD3F88800FEF7B4FFE3E76946E8
:10189000034BD3F88C00FEF7ADFFDFE704ED00E06B
:1018A000900500104FF0A043D3F82C01C0B2D3F83C
:1018B0002831DBB298420AD004D8181AC0B20230DC
:1018C000C0B27047C01AC0B20138C0B2704703201E
:1018D0007047090201F4F85100F01F0001434FF076
:1018E000A043996201225A620023B3F5A02F0DD2C2
:1018F0004FF0A042526B12F0010F01D00133F4E718
:101900004FF0A04300225A62186B70474FF0FF302F
:101910007047000008B51A4B1B68012B15D0022B2D
:101920001FD001210846FFF7D4FF164B1860B0F115
:10193000FF3F13D0144A136823F0040343F002035B
:1019400013600F4B01221A6008E001211020FFF7FD
:10195000C0FF0E4B18600A4B02221A600A4B18682F
:1019600008BD094A136823F002031360074B198866
:10197000044B1888FFF7E2FE014B00221A60EDE7E6
:10198000D0060010BC070010CC060010CC070010D9
:1019900010B44FF0A04400236362090201F4F8512F
:1019A00000F01F000143A162E262B3F5A02F07D24D
:1019B0004FF0A042526B12F0010F04D00133F4E754
:1019C0004FF0FF3000E0002010BC704710B5002041
:1019D000184B1860184B1860184B18604FF40042F1
:1019E0000121FFF7D5FF00BB4FF4C874002C11DDB7
:1019F0000120FFF7E7FE01210020FFF76AFFB0F1A9
:101A0000FF3F14D010F4084F02D0013C24B2EDE7A0
:101A10004FF0FF340CB9002008E04FF48052012150
:101A20000020FFF7B5FF012000E0002010BD0020DE
:101A3000FCE700BFD0060010CC060010C80600105E
:101A40004FF0A043D3F81421D3F818319A4201D0B3
:101A5000002070470120704700F17043B3F5004F3C
:101A600011D300F1604303F58033B3F5005F0CD36D
:101A700000F16040A0F5F820B0F5004F01D301203F
:101A800070470020704700207047002070470146D3
:101A900000F14C024FF0A043C3F81C210222C3F80E
:101AA000242100F14002C3F8202100230DE003F1BE
:101AB000090201EBC2020020906003F110024FF016
:101AC000FF3041F822000133DBB2022BEFD90020B6
:101AD00081F88600704730B490F8853003F11A021F
:101AE00040F822104A89013AC2F30A0242F0004249
:101AF0001C1D00EBC4056A604A6840F834204FF0B2
:101B0000FF3240F8332000EBC3014A6090F8842094
:101B1000013A80F884200133DBB24FF0A042D2F8C2
:101B20001021D2B29A4200D2002380F885304FF0C3
:101B3000A042C2F8183130BC70470000B0B1024674
:101B400003689BB191B10B6883B1094B1B6863B10A
:101B500010B401E0DB6833B11C6810688442F9D12D
:101B600008681860F6E710BC70477047704700BF00
:101B7000D04F001008B101624262704738B10022B4
:101B8000426082820272027C22F004020274704778
:101B90000268137803F0F003202B02D0FA230371BC
:101BA000704710B504465068FFF7E8FF0023237123
:101BB00010BD21B191F83430013303727047002316
:101BC0000372704710B4047A54B11B4B5B6893F8EE
:101BD00034300133DBB29C4202D0002010BC70478D
:101BE0008AB1437A13F0200F16D0B8B10368BBB1A5
:101BF000114A5269B2F1FF3F14D053408A68134230
:101C000012D00020EAE788B103688BB10A4A526912
:101C100093420FD00020E1E70020DFE70120DDE75D
:101C20000120DBE70120D9E70120D7E70120D5E734
:101C30000120D3E70120D1E7700500100020104AF1
:101C40001388591C11804FF6FF72934209D00D4B37
:101C50001B6893B1598A0A4A1288914206D0DB6800
:101C6000F7E7074B4FF440421A80F0E7013080B2AB
:101C7000B0F5804FE3D300207047014B18887047C0
:101C80008A000010D04F001070B504460D4649B1CF
:101C9000002C3DD0284B1B68194629B1A14216D013
:101CA000C968FAE7254DF3E70026B2B9FFF7C6FF8A
:101CB000024600282FD04DB32B6823606282002E8D
:101CC00038D11D4B1A68E2601C60002070BD0126EF
:101CD000EBE7598A91420DD0DB68002BEBD0A34291
:101CE000FAD0617A11F0040FF3D0597A11F0040F91
:101CF000F2D1EEE71868296888420FD08DB199B10A
:101D0000ABB10028E8D16FF00700DFE70023D4E78C
:101D10006FF00F00DAE76FF00700D7E76FF007000A
:101D2000D4E76FF00700D1E76FF00700CEE76FF060
:101D30000700CBE70020C9E7D04F001088980000CB
:101D400010B504460368586868B11B7803F0F003C7
:101D5000202B03D06FF00500207110BDA289A1686F
:101D6000FFF792FFF8E76FF00500F5E710B370B5E5
:101D7000044619B316460D46428A72B12B68636059
:101D8000A682237C43F0040323740F4B1A68134686
:101D900053B1A34215D0DB68FAE70146FFF774FFA1
:101DA00003460028EAD003E0E260074B1C600023F2
:101DB000184670BD6FF00F03184670476FF00F03A1
:101DC000F6E70023F4E700BFD04F001010B504463B
:101DD0000368586868B11B7803F0F003202B03D028
:101DE0006FF00500207110BDA289A168FFF7BEFF4A
:101DF000F8E76FF00E00F5E708B5084B1B684BB12C
:101E0000FFF754FC054B1B685B68181A00D408BD2B
:101E10000020FCE74FF0FF30F9E700BFC4060010D8
:101E200098B1034609B110B405E070471A890C89CE
:101E300022441A81034618680028F7D11A890889B4
:101E400002441A81196010BC7047704748B110B540
:101E50000446FFF7DBFBA37B0133A373FFF7D2FB41
:101E600010BD704710B50C46FFF7DAFF2046FFF7AC
:101E7000EDFF10BD002302E001339BB20068002893
:101E8000FAD118467047A0B10346B1F5803F12D28F
:101E900099B188B25A89824211D310B45C68214446
:101EA0005960121A5A811A89101A1881002010BC20
:101EB00070470120704701207047002070470120C3
:101EC000704708B30346B1F5803F1FD201B330B469
:101ED0008CB20089204480B2A0421BD393F90C50ED
:101EE000002D09DBCAB15A68511A59605A89144445
:101EF0005C81188100200EE05A68511A03F110022B
:101F00008A42F2D9012006E0012070470120704783
:101F100000207047012030BC70470120FBE708B566
:101F2000002902DBFFF7CDFF08BD4942FFF7ABFFF9
:101F3000FAE708B50122FFF7F2FF08BD08B5002255
:101F4000FFF7BFFF08BD10B40024046041600281A8
:101F50004381BDF8043003739DF8083043730123B7
:101F60008373C47310BC7047024658B1064B18689F
:101F700038B190F834300133DBB2934203D00068BB
:101F8000F6E7704700207047BC0600106FF00B00AA
:101F900070470000014B1860704700BFB806001082
:101FA0000B68C268934205D011B1C360012070472D
:101FB0000023FAE7002070470B688268934205D03F
:101FC00011B18360012070470023FAE700207047B9
:101FD00008B5FFF7B3FD08BD7047030203F47F03A4
:101FE00043EA0063020A02F47F42134343EA1060AB
:101FF0007047030A43EA002080B2704710B5002200
:1020000006E00478437843EA042302301A44023994
:102010000129F6DC002902DD037802EB032290B2ED
:1020200000EB1240030C1B0413B183B203EB10400E
:1020300080B2FFF7DEFF10BDF8B5054600273C462D
:1020400000E02D689DB16E8931466868FFF7D6FFC4
:10205000204484B204EB104416F0010FF1D087F055
:10206000010723029BB2C4F307241C43E9E727B10D
:1020700023029BB2C4F307241C43E04380B2F8BDA3
:1020800008B5FFF7BBFFC04380B208BD2DE9F0479C
:102090000646894690469A46089C002700E0366826
:1020A000F6B1BAF1000F1BD07589AA4500D255468A
:1020B00029467068FFF7A2FF0444AAEB05051FFA42
:1020C00085FAA0B200EB1444738913F0010FE6D037
:1020D00087F0010723029BB2C4F307241C43DEE709
:1020E00027B123029BB2C4F307241C434846FFF7E1
:1020F00080FF04444046FFF77CFF204484B204EB99
:102100001044A0B200EB1440C04380B2BDE8F08799
:1021100070B582B0069C2568ACB204EB1545079CEF
:102120002668B4B22C4404EB1644A5B205EB144463
:10213000A5B205EB14440094FFF7A8FF02B070BDF0
:1021400010B582B0059C0194049C0094FFF7E0FF59
:1021500002B010BD2DE9F8430646894690461C465C
:10216000002700E036689EB1758929467068FFF740
:1021700045FF0444A0B200EB144415F0010FF1D068
:1021800087F0010723029BB2C4F307241C43E9E74D
:1021900027B123029BB2C4F307241C434846FFF730
:1021A00028FF04444046FFF724FF204484B204EB98
:1021B0001044A0B200EB1440C04380B2BDE8F883E5
:1021C00038B51C68A3B203EB1444049B1D68ABB282
:1021D000234403EB15439CB204EB13439CB204EB82
:1021E0001343FFF7B7FF38BD10B582B0049C0094CD
:1021F000FFF7E6FF02B010BD431E13F1030F11D825
:1022000091F8313013F0020F0ED04B6883420DD09D
:102210008A68434013420BD1D24332EA000309D00B
:102220000020704701207047002070470020704751
:10223000002070470120704708B590F8313013F046
:10224000010F0CD0436863B1084A526993420AD027
:1022500001461046FFF7D0FF10B1012000E000203A
:1022600008BD0020FCE70120FAE700BF7005001060
:102270000068274B1B682CE01B68B3B193F8312032
:1022800012F0010FF8D012F0040FF5D059680029B0
:10229000F2D041409C68214216D012F0020FEBD1DF
:1022A000DA689042E8D118460AE01A4A106838B154
:1022B00090F8312002F00502052A07D142680AB1E0
:1022C00010BC70471846FBE71846F9E71846F7E7D1
:1022D0001B6863B193F8312012F0010FF8D012F0AF
:1022E000040FF5D059680029F2D010B4D1E7094A9B
:1022F000106838B190F8312002F00502052A04D1A7
:10230000426802B17047184670471846704700BFD0
:10231000BC060010B8060010036A33B11A688A427E
:1023200001D01346F9E70A681A600BB10020704724
:102330006FF00F007047006A28B142680B689A423C
:1023400001D00068F8E77047034B044A1A60044B59
:1023500002F180721A60704770020010E000000104
:102360006C0200103C4B2022C3F8A021D3F8A0310E
:1023700013F0200F05D0384BD3F8A03113F0400FE5
:10238000F9D0354B0322C3F804210022C3F8A82159
:10239000C3F8AC210120C3F80C01304AC3F88420F3
:1023A000AA21C3F88C105522C3F88C20C3F88000F2
:1023B000C3F88C10C3F88C20274BD3F8883013F067
:1023C000806FF9D0244B0322C3F88020AA22C3F8DF
:1023D0008C205522C3F88C201F4BD3F8883003F093
:1023E0004073B3F1407FF7D11B4B2322C3F8A420E5
:1023F000AA21C3F8AC105522C3F8AC200120C3F8C1
:10240000A000C3F8AC10C3F8AC20134BD3F8A8302D
:1024100013F4806FF9D0104B0322C3F8A020AA2236
:10242000C3F8AC205522C3F8AC200B4BD3F8A8302E
:1024300003F44073B3F5407FF7D1074A084BC2F865
:10244000C4300023C2F8C831136823F4704343F446
:1024500080431360704700BF00C00F406300050059
:10246000DE87280438B5494BD3F88830C3F30163BD
:10247000032B5DD1454BD3F80C3103F00303032B41
:102480001ED8DFE803F0021E3A02404CD4F8881050
:10249000C1F30E0101310025D4F88820C2F30742B0
:1024A00001322B463A48A1FB000106F051FFD4F857
:1024B0000421D2B201322B4606F04AFF354B186098
:1024C00038BD324CD4F88810C1F30E01013100251B
:1024D000D4F88820C2F3074201322B462E48A1FBD4
:1024E000000106F035FFD4F80421D2B201322B46A8
:1024F00006F02EFF274B1860E2E7244CD4F8880042
:10250000C0F30E0001300025D4F88820C2F3074242
:1025100001322B460004294606F01AFFD4F80421A4
:10252000D2B201322B4606F013FF1A4B1860C7E7F0
:10253000164BD3F80C3103F00303032BC0D8DFE8AC
:1025400003F0020D1802114BD3F80431DBB2013352
:10255000124AB2FBF3F30F4A1360B1E70B4BD3F807
:102560000431DBB201330E4AB2FBF3F3094A1360C4
:10257000A6E7064BD3F80431DBB201334FF4004237
:10258000B2FBF3F3034A13609AE700BF00C00F40A9
:1025900000127A000400001000366E0100093D00B0
:1025A000001BB70083691A888A4207D10268033A80
:1025B000012A05D80233836101207047002070474B
:1025C0000020704708B5FFF74DFF08BD08B5FFF7BD
:1025D000C9FE024A024B9A6008BD00BF000000001D
:1025E00000ED00E02DE9F04385B004460F46435668
:1025F0000BB10E461EE0042528462146ABBE04461C
:10260000384605B0BDE8F08314F9011B04AA1A444A
:1026100002F8101C0133AB42F6D304AA1344002283
:1026200003F8102C4FF00408E94640464946ABBE7B
:102630008046761B002EE3D03546102E28BF10258D
:102640000023E8E708B5FFF7CDFF08BD012A08D150
:10265000094B02FA01F153F820200A4343F82020E5
:102660007047054A012303FA01F152F8203023EAAA
:10267000010342F82030704768C0024030B40C4675
:1026800040000F2902D9A1F110040130074D640068
:10269000032303FA04F155F8203023EA010302FA78
:1026A00004F4234345F8203030BC704740C002405A
:1026B00010B40C4640000F2902D9A1F110040130DA
:1026C000800000F1804000F530306400032303FAFD
:1026D00004F1036823EA010302FA04F423430360CC
:1026E00010BC704710B50446827841780078FFF737
:1026F000DFFFE27861782078FFF7C0FF2279617808
:102700002078FFF7A3FF10BD012908D10949D1F8AE
:10271000C430094A02401343C1F8C430704741B97C
:10272000044AD2F8C43023EA0000034B0340C2F845
:10273000C430704700C00F40DEF7EFEF1F2807D806
:10274000064BD3F8A83123FA00F000F003007047DD
:102750002038024BD3F8AC31F5E700BF00C00F4082
:1027600010B5084B1C68FFF7E9FF032804D8DFE821
:1027700000F0060303020820B4FBF0F010BD0420B3
:10278000FAE700BF040000102DE9F04F83B00446C3
:102790008B465D4B98424BD10620FFF7E1FF074681
:1027A0004FF0FF3301934FF000084FF00009002570
:1027B00000954FF0010ABAF10F0F40F28180009EA0
:1027C00058EA090300F09B8038097119A1FB08231E
:1027D00001FB093305FB00F0002106F0B9FD83453C
:1027E00072D9ABEB0000642303FB00F0B0FBFBFBF2
:1027F000BBF1020F00F28580444B9C4267D1237BE2
:1028000043F080032373C8F3072323715FFA88F82A
:1028100084F80080237B03F07F0323732D01EDB246
:1028200006F00F062E43A662012003B0BDE8F08F2C
:10283000364B984204D10820FFF792FF0746AFE7D6
:10284000334B984204D13020FFF78AFF0746A7E7B1
:10285000304B984204D13220FFF782FF07469FE7B2
:1028600000279DE73B093807AAFB00010AFB03117B
:1028700006EB0A020BFB02F2002306F069FD034699
:102880000A46B0F1004F01D943424A1C511EB1F52E
:10289000803F09D201998B4206D290464FF0000941
:1028A00083B101935546009601365645DAD3019B14
:1028B000009E002B84D00AF1010A019300967AE76A
:1028C0000026F2E75546F4E7A0EB0B008BE7237BED
:1028D00043F080032373C8F3072323715FFA88F85A
:1028E00084F80080237B03F07F0323732D01EDB276
:1028F00006F00F062E4384F82860012095E700209B
:1029000093E7002091E700BF00C0004000000140B5
:102910000080094000C0094001230360014B0B60A7
:10292000704700BF08000010FEE7026C72B110B5DE
:10293000C3681344C3608468A34201D30368C360BF
:102940000C46C168204604F0BCFE10BD7047000074
:10295000F0B585B004460F46019200263CE03946AA
:102960002046FFF7E2FF013DA563236923B9FEF787
:10297000F1F8012005B0F0BD04F11000FDF7FEFEF6
:102980000028F4D0344B4FF080521A60BFF34F8FC1
:10299000BFF36F8FEBE7FEF7DDF80020EAE702A850
:1029A000FDF706FD012621E0002384F8443029E0EC
:1029B000002384F845302BE02046FEF7D3FBFEF7DA
:1029C0000FF909E02046FEF7CDFBFEF709F9204696
:1029D000FEF7BBFB00283DD1FEF7C6F8A56B002D26
:1029E000BDD1019B002BD6D0002ED8D0FEF7B2F877
:1029F000FDF724FDFEF7B8F894F844305BB2B3F16C
:102A0000FF3FD1D094F845305BB2B3F1FF3FCFD058
:102A1000FEF7A0F801A902A8FEF7B6F80028D1D168
:102A20002046FEF792FB0028C6D0019904F124004D
:102A3000FDF7B2FD2046FEF795FBFEF7D1F8002822
:102A4000CAD1054B4FF080521A60BFF34F8FBFF3CE
:102A50006F8FC1E700208DE704ED00E000B583B083
:102A60000B4659B1002219460068FFF771FF012893
:102A700006D04FF0FF3003B05DF804FB01ABF1E787
:102A80000020F8E7F0B583B005460C461746FDF781
:102A9000CFFC06467CB187B94FF0FF32214628684B
:102AA000FFF756FF0128F7D1FDF7C2FC801B00D1CC
:102AB000012003B0F0BD01ACEDE73A46214628689D
:102AC000FFF746FF012804D0002323604FF0FF30BA
:102AD000EFE7FDF7ADFC801BEBE730B583B00023DB
:102AE0000193002944D00D462B60002843D00446B2
:102AF000036913B3037E13F0020F08D112F0040F21
:102B000005D113F0010F02D190F9083053B301A998
:102B100004F11000FFF7A2FFB0F1FF3F15D0019BB9
:102B20001B681A89E36913B1012120469847019B6C
:102B30002B600023184603B030BDFEF79DFD034611
:102B40000028F7D16FF00A03F4E72046FEF794FD62
:102B500003460028EED1237E13F0010F0ED06FF054
:102B60000A03E7E7002201A91030FFF78BFFD6E741
:102B70006FF00F03DEE76FF00F03DBE76FF0060384
:102B8000D8E750B108B50346007800F0F0001028EF
:102B900006D01846FFF7A1FF08BD6FF00F00704781
:102BA0006FF00F00F8E770B504461646856B026CAF
:102BB0005AB903681BB100200135A56370BD806858
:102BC000FDF740FD0023A360F6E76EB9406804F00E
:102BD00078FD226C636813446360A268934219D342
:102BE000236863600020E7E7C06804F06AFD226C98
:102BF0005242E3681344E36021688B4202D2A36827
:102C00001A44E260022E01D00020D5E725B1013D33
:102C10000020D1E70020CFE70020CDE7F0B585B058
:102C200004460F4601921E46002539E032463946D9
:102C30002046FFF7B8FF636A6BB938B13C4B4FF0E1
:102C400080521A60BFF34F8FBFF36F8FFDF782FF83
:102C5000012005B0F0BD04F12400FDF78FFD002830
:102C6000F4D0334B4FF080521A60BFF34F8FBFF355
:102C70006F8FEBE7FDF76EFF0020EAE702A8FDF794
:102C800097FB012519E0002384F8443021E000235C
:102C900084F8453023E02046FEF764FAFDF7A0FFF4
:102CA000FDF762FFA26BE36B9A42BFD3022EBDD049
:102CB000019B002BDED0002DE0D0FDF74BFFFDF790
:102CC000BDFBFDF751FF94F844305BB2B3F1FF3F19
:102CD000D9D094F845305BB2B3F1FF3FD7D0FDF7C0
:102CE00039FF01A902A8FDF74FFFC8B92046FEF73A
:102CF0001DFA0028CFD0019904F11000FDF74CFC1B
:102D00002046FEF72FFAFDF76BFF0028C8D1084BCD
:102D10004FF080521A60BFF34F8FBFF36F8FBFE742
:102D20002046FEF71FFAFDF75BFF002091E700BF8A
:102D300004ED00E048B108B5002181600160C16088
:102D40000B460A46FFF76AFF08BD704710B50246FA
:102D500000210120FEF72BFB0446FFF7EBFF204686
:102D600010BD10B504460120FFF7F0FF206008B148
:102D7000002010BD4FF0FF30FBE708B500231A46D6
:102D800019460068FFF74AFF08BD00284AD070B511
:102D900004460D464669002E0DDB3046FEF7BEFBAD
:102DA000044658B3FEF732FC042D36D8DFE805F0B0
:102DB000111C272F3200FEF729FC6669002E05DA68
:102DC0000DB9013E6661FEF71DFC17E0FEF71AFC27
:102DD000E3E7B4F9083001331BB22381012B01DD95
:102DE000002306E0012304E0B4F90830013B23810D
:102DF0000023A27B02B193B9FEF704FC70BD638986
:102E00001BB9012301226281F3E70023FAE70023C3
:102E10006381EEE70123A381EBE70123E9E7FEF7F6
:102E2000F1FBEBE7704708B500231A461946006826
:102E3000FFF7F4FE08BD000070B505460E46054CD0
:102E40002046FEF73CFC3046A8472046FFF7EBFF44
:102E5000002070BD8C05001010B50C460A680C32BD
:102E6000FFF7EAFF034608B994F90430184610BD8D
:102E700098B110B588B0044659B162B1009402917E
:102E800003928DF8113069460548FFF7E5FF08B059
:102E900010BD0449F1E7034AF0E76FF00F007047F7
:102EA000016500008898000070B582B0FEF736FB1F
:102EB00008B30546002400E00134032C1BDC04EBBE
:102EC000440293000D4AD358AB42F5D11646630035
:102ED0002344980013189A680192596802AA42F88C
:102EE000081D0021315059609960012301A928680B
:102EF000FFF7BEFFE0E702B070BD00BF4C07001057
:102F0000002842D070B588B00646007800F0F00086
:102F100010283ED1307E10F0020F04D113F0040FC0
:102F200009D0012000E0012038B10C98002833D0EE
:102F30000020044603E00020F6E700200446824219
:102F400006DD01EBC0056D68641928D20130F6E793
:102F500054B3002C03DA0C9840B36FF00044009691
:102F60000291ADF80C20002204928DF81C300594DB
:102F7000069269460F48FFF76FFF034688B90C9A1F
:102F80007AB1069A0C990A600BE06FF00F031846AD
:102F900070476FF0050304E06FF0050301E06FF088
:102FA0000503184608B070BD0023FAE76FF005036B
:102FB000F7E700BF9716000000B585B002910392B5
:102FC000069A0092012202A9FFF79AFF05B05DF868
:102FD00004FB000050B100B589B000900291694631
:102FE0000448FFF739FF09B05DF804FB6FF00F00EC
:102FF000704700BF2B52000050B100B589B008A93E
:1030000041F8200D0448FFF727FF09B05DF804FBE5
:103010006FF00F00704700BF911B000080B100B53A
:1030200089B0034651B100930291ADF80C20694676
:103030000548FFF711FF09B05DF804FB0349F2E70B
:103040006FF00F00704700BFCD1D00008898000092
:1030500070B582B00C461546FEF760FA78B30646A6
:103060006378B3B1102D18D1022B16D114F0030FD1
:1030700013D1636802AD45F8043D6088FEF7B9FFDF
:10308000024629463068FFF7C9FF80B9002002B028
:1030900070BD0068FFF7B0FFF7E76FF00F00FEF7B5
:1030A000A1FA08B1094A10604FF0FF30EFE7FEF7D0
:1030B00099FA38B1054A10604FF0FF30E7E74FF05A
:1030C000FF30E4E74FF0FF30E1E700BFD4500010DD
:1030D00080B100B589B0034651B100930291ADF8BB
:1030E0000C2069460548FFF7B7FE09B05DF804FB00
:1030F0000349F2E76FF00F00704700BF411D000069
:103100008898000070B582B00D461446FEF706FAA6
:1031100050B30646102C02D16B78022B0AD06FF008
:103120000F00FEF75FFA10B3144A10604FF0FF3043
:1031300002B070BD15F0030FF1D16B6802AC44F81A
:10314000043D6888FEF755FF024621463068FFF7C8
:10315000BFFF08B90020EBE7FEF744FA50B1074A79
:1031600010604FF0FF30E3E74FF0FF30E0E74FF043
:10317000FF30DDE74FF0FF30DAE700BFD45000103A
:1031800050B100B589B008A941F8200D0348FFF7F8
:1031900063FE09B05DF804FB00207047C33D0000EA
:1031A00038B504460D46032200210120FEF7FFF842
:1031B000206020B100231A461946FFF72FFD206832
:1031C00038B10DB1002038BD0121FEF703F8002011
:1031D000F9E74FF0FF30F6E710B582B002AC44F8E3
:1031E000041D00231A4621460068FFF717FD012839
:1031F00002D1002002B010BD4FF0FF30FAE710B549
:1032000082B00446019100234FF0FF3201A92068EB
:10321000FFF704FD0128F6D102B010BD2DE9F04101
:1032200028B30F469046054629B3002613E06A8965
:10323000D21A94B2A04500D2444669682246194485
:10324000B81904F03EFA2644B6B2A8EB04041FFAFB
:1032500084F800232D68B8F1000F09D045B1002B88
:10326000E5D069899942E2D85B1A9BB2F2E7002661
:103270003046BDE8F0810026FAE7002849D02DE964
:10328000F0410C460646002946D002890B899A4235
:1032900045D30027B8460FE0366816B14FF0000856
:1032A00023E0002C3ED14FF000081EE023680BB352
:1032B0006FF005002BE04CB37589A5EB0805638919
:1032C000DB1B9D4200D31D46616870682A46394465
:1032D000404404F0F6F9A8442F446389BB4201D866
:1032E0002468002773894345D6D01CB1628923899D
:1032F0009A42DBD0002EDED0728933899A42DAD12D
:103300003368002BD7D06FF0050000E00020BDE847
:10331000F0816FF00F0070476FF00F00F7E76FF06C
:103320000F00F4E76FF00F00F1E72DE9F8430646D0
:103330000C4617469846BDF82000FEF75AFE814617
:103340000E212046FEF7FAFD90B96568A5F80C90AD
:1033500006224146284604F0B4F906223946A81848
:1033600004F0AFF9B369214630469847BDE8F883C9
:103370006FF00100FAE72DE9F04781460D46174648
:103380009A46089EDDF824800A9C9200A521206BB5
:1033900004F0BBF9236B07F18042013A03EB82078B
:1033A00027F0070700230B2B07D8E956E21882F80D
:1033B0003410EA560AB10133F5E7002384F83F30B0
:1033C000042E00D90426E662A6640025E564201DCB
:1033D000FDF7C2FA04F11800FDF7BEFA2461C6F148
:1033E0000506A6616462256584F854505246494634
:1033F0003846FEF753F82060B8F1000F01D0C8F846
:103400000040BDE8F0872DE9F04385B007468846C7
:10341000154699469000FDF7D1FCF8B106465820B4
:10342000FDF7CCFC0446A8B10663D4B10023039396
:1034300002940D9B01930C9B00934B462A464146F8
:103440003846FFF798FF2046FDF71AFE012005B029
:10345000BDE8F0833046FDF74FFCE6E74FF0FF3064
:10346000F5E74FF0FF30F2E700B583B0104B019362
:103470000023009380220F490F48FFF7C4FF012863
:1034800013D14FF0500383F31188BFF36F8FBFF355
:103490004F8F0A4B4FF0FF321A60094B01221A601E
:1034A000084B00221A60FDF7DDFF03B05DF804FB56
:1034B0001C5000102C9B0000A50D00002450001093
:1034C00090500010C450001010B584B00C4699B252
:1034D00003AB0193069B009313460A460146204620
:1034E000FFF791FF012802D1039804B010BD00201E
:1034F000FBE770B584B00E461D46089C10238DF87E
:10350000003002238DF801301046FEF772FDADF851
:10351000020033680193082200210DEB020004F041
:10352000F4F822689DF800309A4203D30BD9236047
:10353000002600E0012622686946284604F0C1F80A
:10354000304604B070BD0026F5E700002DE9F04FCD
:1035500085B0054601919DF838709DF83C80BDF816
:103560004860002A00F08C809A469146002E7ED05A
:10357000282E00F28F80F41CA4B224F00304A4B21D
:1035800004F114031FFA83FB2146FEF7D7FC002841
:1035900040F0838032461199686804F092F8A642A0
:1035A00002D300231E460BE06868A21B00213044B2
:1035B00004F0ABF8F5E76A6832F8132016440133DB
:1035C000B3EB540FF7DB14212846FEF7B7FC0028B5
:1035D00066D16C6884F808A084F8098048EA0A2A51
:1035E0004FEA0A2848EA1A281FFA88F84644D9F808
:1035F0000030236198B2064406EB13404FEA9B0368
:1036000043F04003DBB22370677047EA03273E02B2
:1036100046EA1726B6B206442889FEF7EAFC60801F
:1036200006440023A371E371204F3888FEF7E1FCC4
:10363000A08030443B8801333B80019BDBB1019B80
:103640001B68E360E26893B2034403EB124293B257
:1036500003EB124303EB1343DB436381109B5B6972
:103660004A4629461098984705B0BDE8F08F4FF0BC
:10367000140B0026A7E723736373A373E373E1E7D7
:103680004389132B0FD943681B690DF1100949F8C1
:10369000043DE3E76FF00500E6E76FF00100E3E7C4
:1036A0006FF00100E0E76FF00100DDE78805001032
:1036B00010B586B00024049403940A9C02949DF8EB
:1036C000244001949DF820400094FFF73FFF06B08E
:1036D00010BD30B587B00C9C15461AB109B10A6807
:1036E00002B9211DBDF8382004920D9A039202946C
:1036F0009DF82C2001929DF8282000922A46FFF781
:1037000025FF07B030BD10B586B0002404940394A3
:103710000A9C02949DF8244001949DF82040009456
:10372000FFF7D7FF06B010BD30B589B040F2944422
:10373000ADF81C400024ADF81E400425049507ADEB
:10374000039502930223019300940123FFF7C1FF25
:1037500009B030BD00B59BB014A9503004F06FF92A
:10376000034618B918461BB05DF804FB4FF0FF3351
:10377000F8E710B5044604F06CF9204604F071F93E
:1037800002E02023235401300A28FAD900232354CD
:10379000204410BD2DE9F04383B00546002303709B
:1037A000284B1C681B6803EBC3039800FDF706FB5E
:1037B000002844D0074600222146FDF709FC804638
:1037C000002623E04FF058090DE04FF042090AE0CF
:1037D0004FF0530907E04FF0440904E04FF00009AF
:1037E00001E04FF0520961682846FFF7C2FF054625
:1037F0002369228CA168019100924A46124904F083
:103800008FF8284604F02DF905440136464513D2B9
:1038100006EBC6039C003C44237B042BDED801A2AC
:1038200052F823F0C5370000E3370000CB37000023
:10383000D1370000D73700003846FDF75DFA03B0F6
:10384000BDE8F083D44F00101C9B000008B504F0C5
:1038500023F86FEA80406FEA9040014B188008BD62
:103860008A00001038B50546022905D80120688174
:1038700008B901236B8138BD0C4604F00DF890FBAC
:10388000F4F304FB130080B2F1E7437A022B07D074
:10389000012B00D07047438913B18AB29342F9D902
:1038A00010B50446FFF7DEFF0123637210BD10B5AB
:1038B000046A34B1246804E005212046FFF7E5FFDF
:1038C0002468002CF8D110BDD8B110B504460230E0
:1038D00003F0AAFEC2B20C4B186800E0006878B191
:1038E00090F834309342F9D194F9001090F93230C5
:1038F0009942F3D194F9011090F933309942EDD106
:1039000010BD0020704700BFBC06001008B503F0D2
:10391000AFFE08BD10B50C46FDF778FEFDF772FE50
:103920002046FFF7F3FF10BD082807D831B108B5CE
:10393000034B53F82000FFF7EDFF08BD704700BFB1
:103940003499000010B504460C30FDF7B3FE002397
:10395000E36021460220FFF7E7FF10BD38B540B114
:103960000446FFF70DFC054620B92046FFF7EAFFA5
:1039700000E00025284638BDB0B108B501460B4B24
:103980001A68824206D1D2681A600020FFF7CCFF85
:1039900008BD1A46002AF8D0D368002BF9D08B4214
:1039A000F7D1CB68D360F0E7704700BFD04F00106D
:1039B00070B5FDF77BFE05460B4B196891B14B685E
:1039C000EA1A002A0EDB0868074A10608C68CE6885
:1039D000064A13600620FFF7A7FF002CECD0304604
:1039E000A047E9E770BD00BFC406001068050010DD
:1039F000F8B506460F461EE0144C2046FFF713FAB2
:103A0000002239463046FFF73DF82046FDF757FEC5
:103A1000F8BD0E4D2846FFF706FA224639463046D5
:103A2000FFF730F804462846FDF749FEB4F1FF3FA2
:103A3000EED1FFF7BDFFFEF7DFF90446B0F1FF3F1F
:103A4000DAD00028E5D1FFF7B3FFF4E78C050010CA
:103A500070B530B30546002606E029460820FFF77A
:103A600063FF0136F6B22546E5B1FDF7CFFDAC7B2D
:103A7000013CE4B2AC73FDF7C5FD9CB92C682B7B0F
:103A800003F00F03022BE8D0012B05D0002BE8D167
:103A90002846FFF73BFFE4E729460720FFF744FFEE
:103AA000DFE70026304670BD10B504460378012BD1
:103AB00011D013B1022B16D010BDC36881684068C5
:103AC000984720B921460420FFF72EFFF4E76068ED
:103AD000FFF7BEFFF6E7436880689847214603205A
:103AE000FFF722FFE8E7436880689847E4E70000B3
:103AF00000B583B00948FDF7E2FD094B1B6813B11F
:103B0000084A1068984701A90748FFF771FF019814
:103B10000028F8D0FFF7C8FFF5E700BF8C050010BC
:103B2000C0070010C4070010C807001058B110B536
:103B30000446006808B1FFF78BFF00236360236031
:103B4000A373238210BD704768B110B504460068A6
:103B500020B1FFF77DFF0023636023602146012031
:103B6000FFF7E2FE10BD70472DE9F04F85B0946875
:103B700084B111F0080F13D004249A4616468846E3
:103B80008146436803936BB1039B1B681F89002523
:103B9000AB461EE0D468002CEBDD6FF00F033BE07A
:103BA0000024EAE7224603A90068FEF7EAFF03467D
:103BB000002831D1039BC9F80430E5E75B46224673
:103BC000415803980068FFF729FB5C441FFA84FB07
:103BD0000135F368AB420CDDBB450AD2A7EB0B0401
:103BE000A4B2B068E90043185B68A342E6D89CB26F
:103BF000E4E733680BB1726892B90023B3613369AB
:103C00000BB10023736118F0010F13D0BAF1000F4C
:103C100017D0AAF800700023184605B0BDE8F08F51
:103C200003998A89301D00900831D9F80000FFF708
:103C300060FCE2E70023C9F804300398FFF784FF33
:103C4000E4E70023E8E700002DE9F0438DB080466B
:103C5000894615461F46159CFDF760FC002836D0A6
:103C600006460023ADF80A30CDF80C900495099370
:103C70000A930B9303AB079301230893149B0593BB
:103C8000DCB123680693CDF800800DF10A0305AA84
:103C900039463046FFF768FF88B9BDF80A00A842E8
:103CA00028BF28460B4B984201D96FF000400CB159
:103CB000069B23600DB0BDE8F0830023E2E7FDF72B
:103CC00091FC08B1044A10604FF0FF30F2E74FF06A
:103CD000FF30EFE7FEFFFF7FD450001010B50C4619
:103CE00013681BB138B11846FFF7B2FE14B1204675
:103CF000FFF734FE10BD1846FFF726FFF6E770B554
:103D000082B005460C46FDF781FC06466B4601AACB
:103D100021462846FDF7DCFB05463046FDF772FCE0
:103D20000DB902B070BD6A4601992046FFF7D6FF73
:103D3000F7E7000070B50646FDF7F0FB00B3054657
:103D40000368ABB11C7804F0F004102C14BF0024FD
:103D500001243046FFF7A8F82868FFF711FA48B1A8
:103D6000FDF740FC78B1094A10604FF0FF3006E0E3
:103D70000024EEE721462846FFF7C1FF002070BD72
:103D80004FF0FF30FBE74FF0FF30F8E7D450001062
:103D900030B583B0054603691BB910E00198FFF701
:103DA000D3FE05F1100401A92046FEF757FEB0F13D
:103DB000FF3FF3D12046FDF7ADFC00232B6103B09C
:103DC00030BD0268537833B1022B04D0032B02D0EC
:103DD000FB2303717047032B03D1137E13F0040FF1
:103DE000F6D010B50446002303711046FFF7D0FF4C
:103DF00023685A683AB11B7803F0F003202B0FD0E8
:103E0000236800225A602068C36913B1002211465A
:103E100098472068C36913B100220221984710BD5A
:103E20000023536223685868FFF7A6FDE8E738B51A
:103E3000C46904F194052846FDF741FC0FE004F144
:103E40009000FEF79AFF94F886300133DBB284F8D5
:103E500086304FF0A042D2F82421934215D84FF07B
:103E6000A043D3F82C2194F886309A4211D01E3307
:103E700054F823000028E2D0FFF7EAFD94F88630DA
:103E80001E33002244F82320D9E7002384F886302B
:103E9000E5E72846FEF7C7FF38BD000008B5054630
:103EA00024E005F194063046FDF709FC4FF0A042EE
:103EB000136843F480731360002401E00134E4B21A
:103EC000022C0DD804F11E0355F823000028F5D06C
:103ED000FFF7BEFD04F11E03002245F82320EDE7A5
:103EE0002846FDF7D4FD3046FEF79DFF002105F181
:103EF0008C00FDF7EEFB4FF0A043D3F8E03F13F04A
:103F0000300FCED1024B586EFFF791FFEEE700BFA6
:103F10009005001002898A4225D938B504460D461D
:103F2000521A92B205E0691A8DB223899B1A238135
:103F300024686189A942F6D3237B13F00F0F01D1C6
:103F4000A94208D165812581206808B1FFF780FD6D
:103F50000023236038BD6168091B29442046FEF711
:103F60003BF80446EEE77047F0B583B004460F46D1
:103F70004189072914D9164645682846FEF780F876
:103F800090B931463846FEF7D6F9024680B12B7813
:103F9000112B11D0162B41D02046FFF759FD01E01F
:103FA000FFF756FD03B0F0BD2046FFF751FDF9E7DE
:103FB0002046FFF74DFDF5E731681D4B1B68994220
:103FC0000ED015F1040FE7D068680028E4D09942BC
:103FD0001CD0002AE0D069781046FFF756FCDBE7DA
:103FE00015F1040F02D068680028EAD16B780BB98C
:103FF0000A236B703E6A36B1366804E06978304651
:10400000FFF743FC3668002EF8D1C5E702A941F856
:10401000040D3846FEF78FF90246DAE7437A012BA2
:10402000BAD100234381022141720372B4E700BF79
:104030007002001010B5044600EB4002D300094A9C
:10404000D05838B1FFF704FD04EB4402D300054A11
:104050000021D15004EB4404E200024B134400223F
:104060001A7510BD740200102DE9F04F83B0894617
:104070004FF0000CE346E2464FF00A0E63467646E8
:10408000F046CDF804E003E06CB91E4601331BB2E4
:10409000092B4BDC194603EB4304E500434C2C444D
:1040A000247D0A2EF0D0002CF0D040B101EB410568
:1040B000EF003E4D3D446D680768AF420ED0012CC5
:1040C00018D0012CE2D901EB4101CC003749214441
:1040D000498A6145DAD38C469846D7E7002A5CD0F6
:1040E00001EB4105EF00314D3D44AD689542E6D10D
:1040F0001E464EE001EB4105EC002C4D2C5954B10D
:1041000001EB4101CC0029462144498A5145BDD3E8
:104110008A469E46BAE701EB4101CC00234921447F
:10412000498A5945B2D38B460193AFE719F0020F84
:1041300035D10A2E0ED015460446092E16DDB8F1EB
:10414000090F0DDD019B092B0CDDBEF1090F29DCE8
:10415000764608E019F0010FEDD14FF0FF3618E078
:10416000464600E0019E3046FFF764FF34B1216807
:1041700006EB4603DA000D4B134459600B4A7300FB
:104180009819C1001144002048823344D9000A44E0
:104190009560304603B0BDE8F08F1E46F9E74FF05A
:1041A000FF36F6E74FF0FF36F3E700BF740200106A
:1041B00000294DD02DE9F04383B005460F4608682D
:1041C000002848D01C4616462946FEF715F8002858
:1041D00044D13B6803F0F003E02B42D02A4621464D
:1041E0003846FFF741FF041E2EDBDFF880806300B6
:1041F0001A19D70008EB0709022289F81420C9F818
:10420000085038460830404406223146043003F056
:1042100058FA0023A9F8123058F8077027B304EBB6
:104220004404E300002448F803404FF40063009383
:10423000334605F12A0239462846FFF776F8384614
:10424000FFF706FC204600E060B203B0BDE8F08353
:104250006FF00F0070476FF00F00F6E76FF00F0080
:10426000F3E76FF00F00F0E70020EEE774020010B4
:1042700010B503F0F5F9044608B1204610BDFDF76E
:10428000C5F9FDF7BFF9F8E710B50088033020F055
:104290000300FFF7EDFF0446FDF7B8F91CB1FDF789
:1042A000B1F9204610BDFDF7ADF90024F9E7000093
:1042B000082806D808B5044B53F82000FFF7E4FFA0
:1042C00008BD0020704700BF3499000038B505468E
:1042D0000C460320FFF7ECFF48B1014601230370B1
:1042E000456084600348FEF78AFF002038BD4FF028
:1042F000FF30FBE7C8070010F8B507460E46154625
:104300000420FFF7D5FFA0B10446002303704760E7
:104310008660C56001460848FEF75EFF034608B99F
:104320001846F8BD21460420FFF7FEFA4FF0FF3390
:10433000F6E74FF0FF33F3E7C807001008B591F830
:10434000313013F0180F03D1034AFFF7D5FF08BD32
:10435000024AFFF7D1FFFAE7E1570000ED5F0000E6
:1043600070B505460E460220FFF7A2FF0446D8B1FD
:10437000002303720570436005F0F005202D18D16D
:1043800000F1100504212846FDF7C9F988B900217C
:1043900004F10C00FEF704FF40B9002363704FF0F6
:1043A000FF326261E6612376204670BD2846FDF744
:1043B000B1F921460220FFF7B7FA0024F4E7000024
:1043C00030B589B00D461146FFF7CAFF044640B12B
:1043D0008DF8085008A941F8200D0A48FEF73CFD69
:1043E00010B9204609B030BD04F10C00FDF762F9A8
:1043F00004F11000FDF78EF921460220FFF794FA30
:104400000024EEE77145000038B5134602291BD0A1
:10441000032907D0012922D01B4B16221A604FF026
:10442000FF340FE0194AD9B24020FFF7C9FF054613
:10443000E5B100212846FDF7EFF80446B0F1FF3F53
:104440001AD06861204638BD882A06D020200F4A3D
:104450000021FFF7B5FF0546EAE72120F7E70B4A01
:1044600000211020FFF7ACFF0546E1E7064B69226B
:104470001A604FF0FF34E5E72846FFF76FFA024B6A
:1044800017221A60DEE700BFD45000108B2D000009
:10449000F8B51646F0B11F4605460369F3B1012091
:1044A000FFF706FF0446E8B106604660F7B13B68D7
:1044B000A360BDF81830A3813689214605F11000AC
:1044C000FEF78AFEA0B9EB691BB1324600212846EF
:1044D0009847F8BD1046FFF7BBFAFAE71046FFF71A
:1044E000B7FAF6E73046FFF7B3FAF2E70023DFE763
:1044F0002046FFF729FBECE710B50020FFF7D8FEB8
:10450000044630B12822002103F0FFF8FF23E372B4
:104510006377204610BD08B5FFF7EEFF08BD000029
:1045200038B505682B7803F0F003202B02D0FA236E
:10453000037138BD04460020FFF7EDFF6860236873
:104540005A6842B11B78222B0CD023681A460749BF
:104550005868FDF70FFB23685B68002BE9D1FF2348
:104560002371E6E701231374EFE700BF91440000D5
:1045700008B50023037103685B6803B108BDFFF74A
:10458000CFFFFBE7F8B505460F4616460620FFF7B6
:104590008FFED8B10446002303608760C660456083
:1045A0000C4B1B6863B15A68AA1A002A0BDB6BB16B
:1045B0001A6862B15168691A002908DB1346F6E7E8
:1045C000044B186002E00360024B1860F8BD2260E3
:1045D0001C60FBE7C406001070B504460D46164685
:1045E000FDF764F8324629462044FFF7CBFF70BD43
:1045F00010B5002408E0064B03EBC402054953F84C
:104600003400FFF7E9FF0134012CF4D910BD00BFDD
:10461000E89800007946000008B5FFF717F9FDF7A4
:1046200093FEFFF7E5FF08BD30B583B005460C46A5
:10463000FFF7F2FF0A4B1D600A4B1C600C210A4871
:10464000FDF76DF80948FEF78CFB04230093A023C7
:10465000002207490748FEF737FF03B030BD00BF0F
:10466000C0070010C4070010C80700108C05001018
:10467000F13A00008499000038B504464368984731
:10468000FDF714F82568094B1B682B441A1A002AF9
:1046900005DB224606491846FFF774FF38BD22465F
:1046A00003492844FFF76EFFF8E700BF68050010D4
:1046B00079460000F0B583B006460D461746072040
:1046C000FFF7F6FD044638B10023019300972B460F
:1046D0002A463146FDF737FC204603B0F0BD2DE9F0
:1046E000F04782B00E469046412A32D0044685B249
:1046F0002AD9B2F5C17F36D0B2F5207F26D1EB1C86
:1047000023F003039BB2CA1C22F0030189B20B44BD
:104710009BB203F1100022F00302934259D382426C
:104720005AD8FFF7A5FD8146C8B104F11001014434
:10473000033100230193CDF800803346324621F047
:104740000301FDF700FC0AE0012A02D04FF0000946
:1047500005E0424631460020FFF7ACFF814648465F
:1047600002B0BDE8F0874FF0000AD1460EE0B9F183
:10477000000FF4D04846FFF76BF9B946EFE7B946AA
:10478000361BB6B20025BA46002EE8D00820FFF747
:104790008FFD07460028EAD0EC1C24F00304C4F582
:1047A0001474A4B2B44228BF344605F11001014488
:1047B000033100230193CDF800802346324621F0D7
:1047C0000301FDF7C0FBB9F1000FD8D0CAF80070A3
:1047D000D6E74FF00009C2E74FF00009BFE7E0B1AC
:1047E00070B5044615460E46006808B1FFF730F96B
:1047F000412200213620FFF772FF206040B1466061
:1048000023681D8123685D8123686360002070BD7B
:10481000002363604FF0FF30F9E76FF00F0070473F
:104820002DE9F04186B00F4614460C9DFCF776FE4C
:10483000002861D0064603681B7803F0F003102BB4
:1048400019D0B4F5803F21D21FFA84F825B30D9B0F
:10485000102B03D115B16B78022B40D06FF00F00F5
:10486000FCF7C0FE00284DD0294A10604FF0FF3001
:1048700006B0BDE8F0816FF00F00FCF7B3FE002832
:104880003DD0234A10604FF0FF30F1E7204B5A2211
:104890001A604FF0FF30EBE70D9B002BD7D10023C0
:1048A000029301938DF81230EDB16B680393688821
:1048B000FDF79FFBADF810004246394601A8FFF70F
:1048C0008EFF054690B101A8FFF730F92846FCF7A6
:1048D00089FE08B10E4A1060BDB9A0B2C8E715F054
:1048E000030FDCD0BAE700200390E3E701A93068AA
:1048F000FEF770FB0546E6E74FF0FF30B8E74FF0F4
:10490000FF30B5E74FF0FF30B2E74FF0FF30AFE7D1
:10491000D4500010F0B585B007460D4616461C462B
:10492000FCF7FCFD70B3024603681B7803F0F0034C
:10493000102B1BD114F0100F22D00323641004F0AD
:10494000040404A9002041F8040D106800912343D9
:1049500032462946FEF730FB0446FCF743FE08B119
:104960000B4A10608CB9039805B0F0BD0023019389
:1049700000932346324629463846FFF751FFF3E7B6
:104980000123DBE74FF0FF30EEE74FF0FF30EBE7BE
:10499000D45000102DE9F8430F46C6690846FDF7CC
:1049A00069FAC5B23C464FF0000904E06068FDF7C3
:1049B00053F881442468002CF8D1B9F1000F20D0BD
:1049C0004FF4207239890020FFF789FE80460028C5
:1049D0006ED045683C4607E062896168284602F06F
:1049E00070FE63891D442468002CF5D13B89A8F82A
:1049F0000A304746012504E0002106F19000FCF74B
:104A000068FEFCF74FFFA842F6D34FF0A043D3F85F
:104A10002841E4B206F194084046FCF750FEB9F193
:104A2000000F01D03B4618E03846FDF70FFAF9E7D2
:104A30005A89013AC2F30A0242F0004204F1090124
:104A400006EBC1018A6004F11E02002146F8221023
:104A500017E04FF0A042C2F828411DB3013D15F008
:104A6000FF05E5D15A89013AC2F30A0242F04042F9
:104A700004F1090106EBC1018A6004F11E0246F847
:104A80002270596804F1090206EBC20251601B68EA
:104A90000134E4B24FF0A042D2F824219442D8D994
:104AA0000024D6E74046FEF7BEF90020BDE8F883B3
:104AB0004FF0FF30FAE738B5C569002495F8843027
:104AC00073B14FF420724FF4C0610020FFF707FE6E
:104AD000014628B12846FCF7FEFF0134E4B2EDE7B9
:104AE000204638BD08B500F120024FF0A043C3F8BE
:104AF00008210322C3F81021C3F80C01042380F815
:104B00008430002380F88530406EFFF7D4FF0428FE
:104B100001D1002008BD6FF00100FBE738B5044665
:104B2000C56900234FF0A042C2F8E43F5549D1F8CF
:104B3000C42042F08042C1F8C420A1F55021524A5D
:104B40008A60CA6822F00F0242F00502CA604F4A2A
:104B500011684F4AA2FB0121090D0E2B06D84D4AC0
:104B6000D25C8A4202D20133DBB2F6E79B0003F04B
:104B70003C0343F400434FF0A0421362136A23F452
:104B800000431362FCF722FF002872D04FF0A043CD
:104B90004FF44F421A603822C3F80021002301E08D
:104BA0000133DBB2632BFBD94FF0A04302221A6022
:104BB00031225A604FF4C062C3F800211521996078
:104BC0004FF48071996140F61241D9605A6143F205
:104BD0000F721A6194F82F1094F82E2042EA0122E5
:104BE0001A6494F82D1094F82C2042EA01225A6499
:104BF00094F82B1094F82A2042EA01229A6428465D
:104C0000FCF745FFB8BB2846FFF76CFF0246A8BB80
:104C10004FF0A0432121C3F80012D3F8001241F055
:104C20000401C3F80012D3F8001121F08001C3F889
:104C300000111949582081F81C034FF0805008607A
:104C40004FF6FF71C3F8E81FB021C3F8E41FD3F893
:104C5000E41F41F00B01C3F8E41F196841F00101A2
:104C60001960D3F8001141F00301C3F80011104698
:104C700038BD0022FBE76FF00102F8E76FF0010298
:104C8000F5E700BF00C00F400501155004000010FB
:104C90006BCA5F6B1498000000E100E030B58BB088
:104CA00004460023049305930693079308930993FE
:104CB000394D686609AB039308AB029307AB0193C8
:104CC00006AB009305AB04AA3449354802F048FE10
:104CD000062284F8302004A904F12A0002F0F1FC35
:104CE00040F2DC5323852F4B6362652384F8323016
:104CF0006E2384F83330292384F831302A4B6361E2
:104D00002A4BA361E5612046FFF708FF054610B175
:104D100028460BB030BD03210846FCF762FB1E4B52
:104D2000C3F8900003F19400FEF71BF820BB204865
:104D3000FEF717F818BB00211E48FEF731FA08BB32
:104D4000052300938023E2691B491C48FEF7BCFB46
:104D5000D8B100211A48FEF723FA0546C0B9E26926
:104D600005230093802317491748FEF7ADFB002861
:104D7000CED14FF0FF35CBE74FF0FF35C8E74FF00E
:104D8000FF35C5E74FF0FF35C2E74FF0FF35BFE70E
:104D90004FF0FF35BCE700BF900500108C98000075
:104DA000AC980000C0980000255F00009549000005
:104DB00028060010180600105F4F0000C898000079
:104DC0001C0600109D3E0000D89800002DE9F84315
:104DD000C46904F198063046FCF771FC4FF0A0431B
:104DE000D3F8E03F13F0030F47D14FF0A043D3F8BF
:104DF00018715FFA87F8FCF723FE002840F08D80D9
:104E0000474654F8385015F0386F6FD1C5F30A058E
:104E1000033DADB24FF4207229460020FFF75FFC3E
:104E2000814608F11A0354F82320558154F82320B1
:104E3000158154F82310FEF720FA002866D14FF0B0
:104E4000FF3344F8383004EBC8077B6008F10103F6
:104E5000DBB24FF0A042D2F81021D2B29A4200D277
:104E6000002384F885304FF0A042C2F81831304654
:104E7000FDF7D9FF4846BDE8F8834FF0A043D3F8CB
:104E8000002122F00102C3F800211A6822F0010279
:104E90001A601A6842F480621A600322C3F8E82F8D
:104EA000002501E00135EDB2032D0DD805F11A03FF
:104EB00054F823000028F5D0FEF7CAFD05F11A03C7
:104EC000002244F82320EDE72046FFF70BFE4FF0C9
:104ED000A043D3F8002142F00102C3F800211A6870
:104EE00042F001021A604FF00009C0E794F88430E4
:104EF000013384F884301A3754F82710002544F819
:104F000027502046FCF7E7FDA946B0E74946204672
:104F1000FCF7E1FD4FF00009A9E74FF00009A6E713
:104F200038B50546FFF752FF80B1044643689889BB
:104F3000FDF75FF8B0F5006F03D040F60603984226
:104F400009D12B6929462046984700B938BD20462B
:104F5000FEF77EFDFAE72046FEF77AFDF6E708B594
:104F6000044606E0606EFFF7DBFFFCF769FD0028F2
:104F7000F8D0002104F18800FCF7ABFBF5E72DE940
:104F8000F04F85B00E9F9DF83CB0002800F0AF8038
:104F90000446002900F0AE80002A00F0AE8011988F
:104FA000002800F0AD80002F00F0AD809A46164634
:104FB0000D46637A13F0200F1CD0628A1AB32A8937
:104FC0004FF6F7739A4200F2A18008212846FCF7B9
:104FD000B5FF00B34FF4207208212220FFF77FFBBA
:104FE0008046002800F095802B89ABB12946FCF75C
:104FF00039FF11E039461068FDF7FEF80028DCD0D3
:105000006FF005095DE021462046FCF73DFE814634
:105010000028D4D055E0A846D8F80490608AFCF760
:10502000E8FFA9F800005046FCF7E3FFA9F80200EA
:10503000002389F8063089F80730237C13F0080F25
:1050400004D0336803F0F003E02B3ED0B8F808003A
:10505000FCF7CFFFA9F80400237C13F0010F1AD14D
:10506000BBF1000F38D0B8F808200196119B0093CF
:10507000082311214046FDF763F8BDF84030DB43BB
:105080009BB2034498B200EB134080B208B94FF6CC
:10509000FF70A9F80600336803F0F003E02B24D07A
:1050A000E37AA27A02971121019100923246119976
:1050B0004046FEF7FDFA8146A84502D04046FEF77D
:1050C000C7FC484605B0BDE8F08F98F80D3043F0B6
:1050D000040388F80D30B9E7B8F808200096119B52
:1050E00011214046FDF780F8D0E7637FD9E76FF0E4
:1050F0000F09E6E76FF00F09E3E76FF00F09E0E74C
:105100006FF00F09DDE76FF00F09DAE74FF0FF39B5
:10511000D7E74FF0FF39D4E7F0B585B00A9DF8B175
:10512000044601B312B325B3064658B1006848B12E
:1051300000F0F007E02F05D06F68B84203D06FF0A1
:1051400003000BE02E1D20460396BDF8304002946C
:105150009DF82C4001940095FFF711FF05B0F0BDBC
:105160006FF00F00FAE76FF00F00F7E76FF00F0036
:10517000F4E76FF00F00F1E7002837D0F0B585B005
:105180000646002935D0002A36D01F4614460D4663
:10519000007AF0B9136803F0F003E02B06D1307FFA
:1051A000D0B9B36913B1B3F1FF3F1AD12046FDF76F
:1051B0005FF820B3BDF82C3002939DF8283001939E
:1051C00000903B46224629463046FFF7A5FF05B032
:1051D000F0BDFCF7C9FEECE7FCF7C6FE0028E8D1FD
:1051E000E4E706F11800FDF743F8F7E76FF00F006A
:1051F00070476FF00F00EAE76FF00F00E7E76FF01E
:105200000300E4E758B110B582B059B11C46838A57
:1052100001940092021DFFF7AFFF02B010BD6FF0C6
:105220000F0070476FF00F00F7E770B582B00446CB
:105230000068FCF721FA034638BB23685868F8B1C8
:105240001B7803F0F003202B1DD1A56815F108028F
:1052500001D0AB6843B9AA7B2B8A02F0020229680D
:10526000FFF7D0FF034610E02968AB89AE7B06F05C
:1052700002062D8A01950096FFF77EFF034604E0A3
:105280006FF00A0301E06FF00A03237102B070BDF2
:1052900038B515460A462989FFF721FA044610B1A8
:1052A0002946FDF7EAFF204638BD00002DE9F0430E
:1052B00083B00746884614461F4B1B6801934FF482
:1052C000207208213620FFF70AFA88B105464668A1
:1052D0007B680193162C0ED0172C15D04FF00009C7
:1052E000A4F11603DBB2012B14D92846FEF7B0FB5C
:1052F00003B0BDE8F08308F10409D8F80430736006
:10530000012388F80830EBE7D8F804307360DFF841
:105310002C90E5E7347000237370B370F3700821AC
:105320003046FCF7ADFE70803B464A4601A9284650
:10533000FEF7FAF9D9E700BF889800006C02001068
:1053400008B54B7A012B00D008BD4A68044B1B6896
:105350009A42F9D002234B721622FFF7A7FFF3E718
:105360007002001038B50B4B1D680FE0246864B163
:105370006389002BFAD0013B9BB26381002BF5D1EE
:1053800021462846FFF7DCFFF0E72D680DB12C6AB7
:10539000EDE738BDBC0600100B6803F0F002E02A10
:1053A0002ED11D4A126893422DD090F8313013F05F
:1053B000200F2BD070B50D460446FCF7BCFF064607
:1053C00038B3037B012B03D9013B0373002070BD6D
:1053D00001462046FCF7A0FF337A5BB9A36B1BB1F3
:1053E000002229462046984731460520FEF79CFAC0
:1053F0000020ECE7172231462046FFF757FFEDE784
:105400006FF0050070476FF0050070476FF0050002
:1054100070476FF00500DAE770020010F8B50B680E
:1054200003F0F002E02A20D1134A1268934220D000
:105430000F460546114B1C686FF0050606E039461D
:105440002046FFF7A9FF06B1064624687CB194F810
:10545000313013F0200FF8D0002DF0D02B68002B46
:10546000EDD062689342F0D1E9E76FF0050630466F
:10547000F8BD6FF00506FAE770020010BC060010D8
:105480002DE9F04387B00646884617464FF4207250
:1054900024212220FFF723F978B30546D6F804909B
:1054A000446884F800806770002323716371A371DE
:1054B000E37140681C227168083002F002F9D9F8E3
:1054C0000C3006A840F8043DFCF7D2FE074688B130
:1054D0000026A670E67069892046FCF7D1FD608041
:1054E0000297012301930096FF2305AA314628461F
:1054F000FEF709F92846FEF7ABFA07B0BDE8F083DE
:1055000008B50A460321FFF7BBFF08BD2DE9F04FA0
:1055100085B0064602914389072B19D9D0F804B00B
:10552000564B19685869FCF767FE8046BBF80000C7
:10553000FCF75FFD8246BBF80200FCF75AFD05460A
:105540004F4B1B6803931C464FF000094F4615E074
:10555000FEF77EFA05B0BDE8F08FD9F80020029B77
:105560005B689A4205D02268934202D1A14600E0CE
:10557000A146A38A534523D02746E468002C2CD0AB
:10558000638AAB42F8D1424602992046FCF71AFBE7
:105590000028F1D0237C13F0040FEAD1B9F1000FF9
:1055A000E6D0B8F1000F04D0344B5B69B3F1FF3F94
:1055B000D3D0002CDDD02368002BDAD0A146D8E769
:1055C00063681BB12D4A12699342D5D12FB1E368AC
:1055D000FB60039BE3602A4B1C60FCB104B3BBF887
:1055E00006305BB1254B328903F114010091103371
:1055F00011213046FCF7F8FD00283BD10821304648
:10560000FCF741FCB0B9ECB1256ABDB1606ACDF8D8
:1056100000A01C4B32462146A8479BE74C46DDE7DD
:10562000029B5A68154B5B699A42D8D03046FEF708
:105630000FFA8FE73046FEF70BFA8BE73046FEF79E
:1056400007FA87E7B8F1000F10D10C4B5B6903F044
:10565000F003E02B0AD0094B9989083109B2304692
:10566000FCF767FC03213046FFF74AFF3046FEF7A0
:10567000EFF96FE73046FEF7EBF96BE770050010C6
:10568000D04F0010800500102DE9F04385B005468D
:10569000514B9F683C7804F00F04A400A6B2132E6F
:1056A00016D988464389032B12D943681B78082BE7
:1056B00040F08A80484B586900F0F003E02B1DD081
:1056C000454B1968FCF798FDC0B92B89072B05D805
:1056D0002846FEF7BDF905B0BDE8F0832846FCF783
:1056E000ABFC78B904F10E0949462846FCF726FCC4
:1056F000C0B32B89991989B28B4207D92846FEF786
:10570000A7F9E8E72846FEF7A3F9E4E74FF420728B
:105710000E20FEF7E4FF81460028EFD0428904F115
:1057200008039A4202D2FEF793F9E7E72246394688
:10573000406801F0C6FF21464846FCF7A4FB18B1BB
:105740004846FEF785F9D9E729464846FDF795FD15
:1057500018B14846FEF77CF9D0E72846FEF778F9FD
:105760004D4605E049462846FCF78DFB0028C5D18B
:105770006F6821462846FCF7E1FB28BB6C68164B96
:105780005A69E2601B69236100233B707B884FF6F6
:10579000F77293421CD909337B804FF0FF0984F8DC
:1057A00008900027A772E77231462046FCF768FC94
:1057B0006081CDF808800123019300974B463A465B
:1057C00006492846FDF79FFF2846FEF741F982E784
:1057D00008337B80E1E700BF7005001084050010EE
:1057E0002DE9F8430446466833781A09042A04D0A0
:1057F000FEF72EF90020BDE8F8830F4603F00F03F3
:105800009D001FFA85F97088FCF7F3FB8046238919
:1058100083420CD863894B4505D32389434502D382
:10582000B9F1130F08D82046FEF712F9E2E7014656
:105830002046FEF76FFBEDE749463046FCF720FCBB
:1058400000284AD13369584A5361F168116103F065
:10585000F003E02B57D197F8313013F0200F40D1EF
:105860004FF000083946504B1869FCF7C5FC00287A
:105870006AD14D4B1B6903F0F003E02B64D0B8F103
:10588000000F67D0F38823F0C0039BB2002B65D1D3
:10589000454AC2F8008057609660337803F00F03E2
:1058A0009B00938129462046FCF7EDFA737A022B80
:1058B0006AD0112B56D0012B61D041463A4B586922
:1058C000FCF79AFC28B9384B5B6903F0F003E02B36
:1058D00060D12046FEF7BCF848E02046FEF7B8F855
:1058E00088E702F114013846FCF725FD20B32E4B62
:1058F0005A692E4B9A4201D0B846B3E72A4B1B692E
:1059000033B3B846AEE73846FCF796FCB8B9264B39
:105910001B7D7F2B15D0264BD3F8008001E0D8F8F3
:105920000080B8F1000F9DD0B845F8D04046FCF794
:1059300083FC0028F3D095E74FF0000892E7B846C3
:1059400090E74FF000088DE72046FEF781F851E719
:10595000B84694E72046FEF77BF84BE72046FEF773
:1059600077F847E739462046FFF7D0FD0E4B002277
:105970001A605A609A609A811A615A613AE7394608
:105980002046FFF781FEF1E70A4A39462046FEF736
:10599000EBFAEBE729462046FCF7CBFA022120463A
:1059A000FFF7AEFD95E700BF70050010E0000001B5
:1059B000BC060010840500102DE9F04383B00746B3
:1059C000884691461D464FF420721C210E20FEF79A
:1059D00086FEC8B306464468BDF83400FCF709FBF0
:1059E000E0800622294604F1080001F06AFE062242
:1059F0000B9904F1120001F064FE04220A9904F1EB
:105A00000E0001F05EFE04220C9904F1180001F072
:105A100058FE00252570012363700823A370E570EC
:105A2000062323710423637140F6060300934B465B
:105A3000424631463846FDF778FC3046FEF708F816
:105A4000284603B0BDE8F0834FF0FF30F9E70000CF
:105A500030B585B0034600F12A04043301250395CF
:105A6000029104490191009323462146FFF7A4FFC8
:105A700005B030BD2498000008B5024AFFF7E8FFE2
:105A800008BD00BF0C98000090F8313003F005020B
:105A9000052A00D0704711F0010FFBD04268002AA0
:105AA000F8D010B5044613F0080F05D194F8313042
:105AB00013F0200F04D110BD011DFFF7DDFFF5E746
:105AC0002046FDF7F4FEF6E770B108B590F83120F6
:105AD00012F0040F00D008BD42F0040280F831201B
