:100000000080001085010000890100008B010000C4
:10001000A1010000A3010000B901000000000000E0
:1000200000000000000000000000000061800000EF
:10003000D101000000000000C18000000581000027
:10004000E9010000E9010000E9010000E901000008
:10005000E9010000E9010000E9010000E9010000F8
:10006000E9010000E9010000E9010000E9010000E8
:10007000E9010000E9010000E9010000E9010000D8
:10008000E9010000E9010000E9010000E9010000C8
:10009000E9010000E9010000E9010000E9010000B8
:1000A000E9010000E9010000E9010000E9010000A8
:1000B000595E0000E9010000E9010000E9010000CB
:1000C000E9010000E9010000E901000007B500F0C6
:1000D000FDFA214A214B22498B4226D30021214B94
:1000E000214A934226D300F0FDFA01A9684600F0A8
:1000F000B9F800251D4E1E4CA41BA410AC421CDCFC
:1001000000251C4E1C4CA41BA410AC421ADCDDE9DB
:10011000000109F007FA0646184D194C641BA4109B
:10012000002C14DC304600F07BF852F8040F43F842
:10013000040BD1E743F8041BD3E756F82530984762
:100140000135DBE756F8253098470135DDE7013CFE
:1001500055F824309847E3E774A000000000001031
:10016000E8010010E80100103C4E001014020000ED
:100170001402000014020000140200001402000027
:100180001402000014480047FEE71EF0040F0CBFE5
:10019000EFF30880EFF309807146104A1047FEE73D
:1001A000FEE71EF0040F0CBFEFF30880EFF30980A9
:1001B00071460B4A1047FEE71EF0040F0CBFEFF329
:1001C0000880EFF309807146064A1047FEE7FEE714
:1001D000FEE7FEE770470000CD0000009F01000031
:0A01E000B7010000CD010000FEE7AA
:1001EC0078A0000000000010E801001078A00000CA
:1001FC0000C0072000C00720E80100103C4E001092
:08020C0000C0072000C007201C
:1002200008B500F061FA00000B4A08B511680346F2
:1002300009B90A4911601068033323F00303084920
:1002400003448B4206D909F073FB0C2303604FF083
:10025000FF3008BD1360FCE7E80100103C4E0010C1
:100260000078001001230360014B0B60704700BF52
:1002700000000010064B1F2892BFD3F8A831D3F816
:10028000AC31203823FA00F000F00300704700BFC3
:1002900000C00F4008B5064B1A68FFF7EBFF28B106
:1002A000032808BF0820B2FBF0F008BD0420FAE7DD
:1002B00008000010012908D1094B0A4AD3F8C410DC
:1002C00002400A43C3F8C420704741B9044A054BB1
:1002D000D2F8C4100B4023EA0003C2F8C4307047C0
:1002E00000C00F40DEF7EFEFF0B5477803233A4642
:1002F0000F2F88BFA7F110024FEA420203FA02F360
:100300006FEA0303047890F802C04FEA440588BFFF
:100310000135A90001F1804101F530310E680CFA78
:1003200002FC1E4046EA0C060E600C4E56F82510E4
:100330000B40C17801FA02F21343012246F825303E
:1003400002FA07F7064B0279012A53F824200CBF62
:10035000174322EA070743F82470F0BD40C002406B
:1003600068C002402DE9F04F9C4B8BB09842044688
:100370008B461ED101210820FFF79CFF0723237223
:1003800000232372237DDA0700F1DB80802384F8C9
:100390003030237D9B06FCD5002384F83030636029
:1003A00023732362227D8E4A944208BF84F824304E
:1003B00026E08C4B984240F0BB8001211020FFF7D3
:1003C00079FF072323720023224623722346117DDF
:1003D000C80700F1B480802182F830101A7D9106A0
:1003E000FCD5002283F830205A601A731A621A74FE
:1003F00083F84C2083F8542083F850201A7E1B7D0C
:10040000764BDBF800709C4240F09D800620FFF7A1
:1004100041FF06463309039333070293DDE90223C4
:10042000CDE904234FF0FF33002509930022002378
:10043000A9464FF0010ACDE9002307974FF00008C5
:10044000079B0893089A0023DDE9040109F0E6F808
:100450000A46B0F1004F88BF4A1C02F1FF31034643
:1004600088BF4342B1F5803F0BD209998B4208D235
:1004700010460021CDE90001002B75D05546C1463C
:100480000993089B08F101083B44D0450893D9D152
:10049000079BDDE904013B4408F1010A0793DDE90C
:1004A000022312184B41BAF1100FCDE90423C5D134
:1004B000DDE90023134361D0009B09EB0501A1FB9B
:1004C00003233009019E684301FB0633002109F034
:1004D000A5F8642387428CBF381AC01B5843B0FB71
:1004E000F7F7022F4AD8009B9DF80020C3F307219D
:1004F0003C4B2D019C42237B43F0800323732171ED
:100500002270237B03F07F03237330D1EDB245EAE1
:100510000905A562334B1B7B9BF8052003F0C00344
:10052000012A2FD030D3022A46D043F003032BE018
:100530002D4B984249D101214FF080701CE7117872
:1005400045E723781EE7274B9C4201D108205EE750
:10055000254B9C4201D1302059E7214B9C4201D1CF
:10056000322054E7002655E7C1465546A4E745EA40
:100570000905EDB284F82850237BCDE7194B9C4246
:10058000FAD1C7E743F001039BF804204AB1032ADC
:1005900015D0042A16D0022A14BF43F0080343F0F2
:1005A00018039BF80620012A08BF43F00403DBB2BE
:1005B00023730BB0BDE8F08F43F00203E4E743F090
:1005C0002803EEE743F03803EBE7054B98427FF44E
:1005D000D5AE01214FF00070CEE600BF00C0004054
:1005E00000C00940000001400080094001707047D0
:1005F000F8B504460B4600201E460546C2B14FF032
:10060000FF3101E0A1B10139277DBF06FAD579B1EB
:1006100003F1100713F8011B2046FFF7E7FF5819F5
:10062000BB4202F1FF32A0EB0600E5D0002AF1D177
:10063000F8BD012BF8B506460C46154603D1BDE8BA
:10064000F840FFF7D5BF0020224603469DB1317D1B
:10065000890610D504F1100714F8011B3046FFF786
:10066000C5FFBC4204EB030005F1FF35A0EB02001F
:10067000EAD0002DF0D1F8BDCB78022B8EBFC1237C
:10068000094AD35C4A78012A0A7808BF43F0040378
:10069000012A8A7808BF43F00203012A08BF43F009
:1006A00008030372704700BF329D0000012906D184
:1006B00090F8303043F0800380F8303070470023EA
:1006C00090F8302080F830307047000008B500F016
:1006D00085F8024A024B9A6008BD00BF0000000086
:1006E00000ED00E000F012B8BFF34F8F0549064B54
:1006F000CA6802F4E0621343CB60BFF34F8F00BFC0
:10070000FDE700BF00ED00E00400FA0538B52D4B11
:100710002D4CD3F88820C2F30162032AD3F80C21B0
:1007200002F003023BD1012A1AD0022A27D0D3F8C3
:100730008810D3F88820D3F804510023C1F30E01A8
:10074000C2F30742214801310132A1FB000108F048
:1007500065FFEAB20132002308F060FF206038BD77
:10076000D3F88810D3F88820C1F30E01C2F30742F2
:10077000D3F804510131013200231548E5E7D3F8DD
:100780008800D3F88820D3F804510023C0F30E006A
:100790000130C2F30742013200041946D7E7D3F80B
:1007A0000431012ADBB203F1010306D0022A06D08C
:1007B000084AB2FBF3F32360D1E7074AF9E74FF4A5
:1007C0000042F6E700C00F400800001000127A0057
:1007D00000366E0100093D00001BB7002022374B98
:1007E000C3F8A021D3F8A021910603D5D3F8A02106
:1007F0005206FBD50322C3F8042100220120C3F8CE
:10080000A821C3F8AC212E4AC3F80C01AA21C3F8D1
:1008100084205522C3F88C10C3F88C20C3F88000C4
:10082000C3F88C10C3F88C20244A1346D2F88810E1
:100830004801FBD50321C2F88010AA21C2F88C1010
:100840005521C2F88C10D3F8882002F04072B2F122
:10085000407FF8D12322AA21C3F8A42001205522E9
:10086000C3F8AC10C3F8AC20C3F8A000C3F8AC10B8
:10087000C3F8AC20114A1346D2F8A8104905FBD59D
:100880000321C2F8A010AA21C2F8AC105521C2F869
:10089000AC10D3F8A82002F44072B2F5407FF8D132
:1008A000084AC3F8C4200022C3F8C8211A6822F4F9
:1008B000704242F480421A60704700BF00C00F408F
:1008C00063000500DE872804438970B50E2B0446BB
:1008D0000D461AD9C37B1BB991F834300133C37369
:1008E000606803788689D9070AD5012B11D143782E
:1008F00033B983785E2B03D1637B43F010036373BA
:10090000082E10D0B6F5C16F1DD0204601F0BFFBF8
:1009100017E00622134909F045F80028F0D1637B5F
:1009200043F00803EBE795F831301A07EDD50E21B7
:10093000204601F08EFB0028E7D12946204600F032
:100940002BFE002070BD95F831301B07DDD50E2140
:10095000204601F07EFB0028D7D12946204600F032
:10096000F7F8EEE7359D00002DE9F0470646BDF8A3
:1009700020000C461746984601F0A8F80E21814643
:10098000204601F063FB90B965684146A5F80C90DC
:100990000622284609F015F806223946A81809F05B
:1009A00010F8B36921463046BDE8F04718476FF0AC
:1009B0000100BDE8F087000070B518264643074CDB
:1009C0000546A05918B101F062FB0023A35118237A
:1009D00003FB05440023237570BD00BFF001001028
:1009E0002DE9F74F4FF00A0C019100210646904681
:1009F00089468B4663466546E6462F4C00910A2B96
:100A000008B294F814A019D1BAF1000F4CD04EB12D
:100A100067683268BA4205D1B8F1000F37D0A768CD
:100A2000474534D0BAF1010F678A38D122688AB3BA
:100A3000009A974205D30097844602E0BAF1000F6E
:100A4000E5D101310A2904F11804D8D1019A012A0B
:100A50002ED10A2B0CD10A2D06D1BEF10A0F25D1B9
:100A6000BCF10A0F24D065462846FFF7A5FF2B46A8
:100A7000114826B1182101FB030132684A6018228F
:100A8000002102FB030218465182C2F8088003B01D
:100A9000BDE8F08F5F45D4D3BB468646D1E74F45CE
:100AA000CFD3B9460546CCE70346CAE77546DBE730
:100AB0004FF0FF30EBE700BFF00100102DE9F743E6
:100AC0000746884691461C214FF420720E201D4691
:100AD00001F008FB0646C0B34468BDF8340000F0DE
:100AE000F5FF2946E080062204F1080008F069FFBE
:100AF00006220B9904F1120008F063FF04220A9900
:100B000004F10E0008F05DFF04220C9904F11800B6
:100B100008F057FF012363700823A3700623237195
:100B200004230025637140F606032570E5704246F4
:100B3000009331464B463846FFF716FF304601F02A
:100B4000A6FA284603B0BDE8F0834FF0FF30F9E77E
:100B50002DE9F04F824689B00C4681B14668338852
:100B6000B3F5807F08D13379062B05D17579042D33
:100B700002D17388082B05D0504601F088FA09B0DD
:100B8000BDE8F08F2A4606F10E0106A808F019FF0D
:100B90002A4606F1180107A808F013FF656806F158
:100BA00008081DB1079B9D4253D0002502270698D7
:100BB000002839D0214600F0ACFE0590A0BB069A73
:100BC00002F0F002E02A2FD02246394606A8FFF7AD
:100BD00007FF002828DB182702224743DFF8789018
:100BE00007F10C0009EB070B8BF81420CBF8084039
:100BF00006224146484408F0E4FE059BABF812305B
:100C000059F807B0BBF1000F0ED049F807304FF488
:100C1000006304F12A020093594643462046FFF739
:100C2000A3FE584601F033FAF388B3F5807FA3D1D1
:100C3000002DA1D00222039206AA04F12A03CDE9D5
:100C40000182221D0092194642462046FFF736FFD8
:100C500092E701252F46AAE7F00100101FB50124F5
:100C60000246CDE90214064900F12A03043201913B
:100C700000921946034AFFF721FF04B010BD00BFE0
:100C80003B9D0000359D00002DE9F0410025022626
:100C90000427144CA4F10408227B6AB16389013350
:100CA0009BB2B3F5967F638103D2012A0BD1042B4B
:100CB0000DD92846FFF780FE01350A2D04F11804EE
:100CC000EAD1BDE8F081032A08D12773F4E718219F
:100CD000206801FB0581FFF7C1FFEDE7042AEBD196
:100CE0002673E9E7F80100102DE9FF410F461821AE
:100CF0004A431A4902F10C048D182B7D0646022B3B
:100D00000C4400F12A080AD16B8AB3F58E7F12D900
:100D100004321144FFF7A2FF08B903232B754FF4E7
:100D2000006342460093394623463046FFF71CFED7
:100D300004B0BDE8F081B3F5877FF0D301230393BE
:100D4000074B04320A440193031D0292009322468A
:100D500043464146FFF7B2FEDEE700BFF001001058
:100D60003B9D00002DE9F3410E46074601463068E1
:100D7000144600F0CEFD002854D1336803F0F00291
:100D8000E02A4FD0002B4DD03A4601213046FFF7E4
:100D900027FE002803DA40B202B0BDE8F081182334
:100DA000284D5FFA80F803FB08531A7DC2B1D4B115
:100DB0004FF0FF30182303FB08F3EA18127D012AD5
:100DC00018D9214A0C3382F800804FF400622B447A
:100DD0000092214607F12A023846FFF7C5FDDBE7FE
:100DE00001229F601A7531463846FFF737FF002C05
:100DF000E0D1D1E7D0D123461A7B520615D41B6827
:100E0000002BF9D1204601F038FA182303FB08F231
:100E1000A8581E4608B101F03AF906FB08F3002075
:100E2000EC50B9E76FF00F00B6E722464FF420719F
:100E30000E2001F0B9FA04460028E6D14FF0FF3049
:100E4000AAE700BFF0010010E0020010F0B5044670
:100E500085B00E4601461068154600F05AFD002880
:100E600061D12B6803F0F002E02A1BD10123ADF819
:100E700008305E238DF80A306B7803F07F038DF81D
:100E80000B30AB788DF80C30EB788DF80D3002AB71
:100E90004FF4006231460092204604F12A02FFF727
:100EA00063FD23E06268A1685A400A4209D04FF608
:100EB000A9629BB2934204D0E368002B35D004F1C1
:100EC0000C0518231A491B480A788C4603FB0203B9
:100ED000187D01280CD99968A14209D129685B685D
:100EE000994205D131462046FFF7FEFE05B0F0BD20
:100EF0000021114B187CCAB2012809D95868A042B8
:100F000006D12F681868874202D18CF80020E9E7E3
:100F100001310A2903F11803ECD132462946204653
:100F2000FFF720FFE2E7054BB2E76FF00300DDE7D4
:100F3000E0020010F0010010F4010010359D0000E7
:100F40002DE9FF47494B0446D3F808A088469AF894
:100F50000050994605F00F05AD00132D16D94289B2
:100F6000032A13D942681278082A0FD1586900F071
:100F7000F002E02A0AD0196800F0CBFC30B92389CE
:100F8000072B03D9204600F068FE28B1204604B0A4
:100F9000BDE8F04701F07BB805F10E06314620466A
:100FA000AFB201F053F8002859D02389D91989B27A
:100FB0008B42EBD84FF420720E2001F093F80646D6
:100FC0000028E3D0428905F108039A4203D2304653
:100FD00001F05DF8DAE751462A46406808F0F1FC76
:100FE0002946304601F035F80028F0D12146304638
:100FF00001F067F90028EAD1204601F048F83446AC
:1010000029462046666801F021F80028BED14FF637
:10101000F7726568D9F814303946EB60D9F81030AA
:101020004FF0FF092B617388307093428CBF0933F6
:1010300008337380002685F80890AE72EE72284659
:1010400000F005FE012368813246CDE90063CDF84A
:1010500008804B460649204600F039FC96E73146A9
:10106000204600F0F6FF002890D1C9E7A44D0010FB
:10107000B84D00102DE9F0414FF4207286B00446BF
:101080000D462220242101F02DF8064668B367683A
:101090004468032365700025394623701C2225719E
:1010A0006571A571E57104F1080008F08AFCFB6820
:1010B00006AF47F8043D384600F03AFA804688B15A
:1010C0007189A570E570204600F0C1FD01236080A4
:1010D0003A46CDE90053CDF80880FF232946304633
:1010E00000F0F5FB304600F0D2FF06B0BDE8F0811D
:1010F0002DE9F043214B89B01B6880460E4691468E
:1011000008214FF420723620069300F0EBFF0546CD
:1011100080B3D8F80430446806937368B9F1160FA9
:1011200001BF63600123371D33724FF0000618BF03
:1011300063604FF0080184F800906670A670E67056
:10114000204618BF0E4F00F082FD40F294436080AD
:1011500007930423049307ABCDE9028302233A46A5
:10116000CDE9006306A90123284600F097FB284635
:1011700000F08DFF09B0BDE8F08300BF449D000082
:10118000E402001038B5437A0546022B0C4605D020
:10119000012B09D143890BB18B4205D9022C04D80C
:1011A00001236B8101236B7238BD08F0C3FC90FBF7
:1011B000F4F101FB140080B268810028F0D0F1E75F
:1011C000034B044A1A60044B02F180721A607047A4
:1011D000E8020010E0000001E4020010036A10B50C
:1011E0000BB11C6804B910BD20460521FFF7CAFFEA
:1011F0002468F7E7006A00B9704742680B689A42B2
:10120000FAD00068F7E770B505460E46FFF7F2FF23
:1012100068B908202C6A00F07FFD40B100233EB180
:101220003268C0E90123037324B90460286270BDE9
:101230001A46F6E7236803602060F8E710B50B490B
:101240000446FFF7E0FF60B102234372037B0133E2
:101250000373A36B43B10122044920469847002041
:1012600010BD4FF0FF30FBE71846F9E7E802001029
:10127000F7B50E46418905460729174604D8284682
:1012800000F005FF03B0F0BD4468204600F0DFFC2D
:101290000028F4D139463046FFF7ACFF0028EED0E5
:1012A0002378112B08D0162BE9D1437A012B04BFE8
:1012B0004FF400738360E2E7124A3968126863688A
:1012C00091421CD17BB963780BB90A236370336AEE
:1012D000002BD4D01E68002ED1D030466178FFF7A5
:1012E00051FF3668F7E702A941F8043D3046FFF7A1
:1012F00081FF0028C3D06178FFF744FFBFE7002BD0
:10130000BDD0F8E7E80200100B6870B503F0F002FA
:10131000E02A05460E462ED11A4A126893422AD078
:1013200090F831309B0626D5FFF76DFF044628B3B1
:10133000437ADBB9037B2BB9AB6B1BB1012231467E
:1013400028469847162221462846FFF7D1FE08F086
:10135000F1FB052390FBF3F303EB8303C01A80B288
:10136000002808BF01200123608163720020237BD5
:101370000133237370BD6FF00500FBE74FF0FF30C2
:10138000F8E700BFE80200100B6870B503F0F00248
:10139000E02A05460E461BD10F4A1268934217D029
:1013A0006FF005000D4B1C6804B970BD94F8313026
:1013B0009B060BD525B12B6813B16268934205D10A
:1013C00031462046FFF7A0FF0028EED12468EBE766
:1013D0006FF00500E9E700BFE8020010BC4D001007
:1013E0000B6870B503F0F002E02A05460E462DD1D9
:1013F000184A1268934229D090F831309B0625D5BF
:10140000FFF7F8FE044608B3037B012B1BD82B6AB9
:1014100023B11A68944214D122681A60237A23B146
:10142000172221462846FFF763FEAB6B1BB1002253
:101430003146284698472146082000F079FC0020D4
:1014400070BD1346E4E7013B0373F8E76FF0050056
:10145000F6E700BFE8020010F8B50B68064603F097
:10146000F002E02A0F461DD1104A1268934219D0AB
:101470006FF005040E4B1D680DB92046F8BD95F8B8
:1014800031309B060CD526B1336813B16A6893429C
:1014900006D139462846FFF7A3FF002C18BF0446A3
:1014A0002D68E9E76FF00504E7E700BFE8020010E8
:1014B000BC4D0010F8B502270E4B0F4E1D6805B944
:1014C000F8BD2C6A0CB92D68F9E7638983B1013B3B
:1014D0009BB2638163B9637A012B09D16268336877
:1014E0009A4205D06772162221462846FFF700FE71
:1014F0002468E7E7BC4D0010E802001008B590F83A
:101500003130014613F001030BD043684BB1074A59
:101510005069834207D000F0FCF9003018BF012069
:1015200008BD1846FCE70120FAE700BFA44D0010F3
:10153000026810B502F0F003E02B02D1134B1868DB
:1015400078B9134B186868B9124B1B684BB193F804
:10155000312002F00502052A03D15A68002A18BF7B
:10156000184610BD90F83110CB070CD54C070AD5A2
:10157000436843B1846853402342F2D08B0702D4BE
:10158000C3689A42EDD00068DDE700BFEC020010AE
:10159000BC4D0010C04D00102DE9F843D0F8048078
:1015A000054698F800900E464FEA1913042B05D013
:1015B000284600F06CFD0020BDE8F883B8F8020072
:1015C00000F084FA2B8909F00F094FEA8909834258
:1015D0001FFA89F4074603D90146284600F006FEA3
:1015E0006B89A342E4D32B89BB42E1D3132CDFD90F
:1015F0002146404600F02BFB0028D9D1D8F8103006
:10160000494C6361D8F80C2003F0F003E02B226111
:1016100054D196F831309B063ED4002731462069DC
:1016200000F077F90028C3D1236903F0F003E02B21
:10163000BED0002FBCD0B8F8063023F0C003002B7A
:10164000B6D1C4E90076C4F8088098F8003049465D
:1016500003F00F039B002846A38100F0FAFC98F8E2
:101660000930022B5AD03FD8012B52D0394660693D
:1016700000F04FF960B9636903F0F003E02B07D085
:101680004946284600F0FBFC02212846FFF7F2FC01
:10169000284600F0FCFC2FE004F114013046FFF76F
:1016A000A9FD0028B9D06269204B9A4201D0374683
:1016B000B4E72369002BFAD13746BCE73046FFF781
:1016C0001DFF0028F3D1237D7F2BA6D0184B1F6868
:1016D000002FA2D0B74201D13F68F9E73846FFF7A3
:1016E0000DFF0028F8D099E7062B0DD0112BBDD1A6
:1016F0003146284603F062FE0023C4E90033A360AC
:10170000A381C4E9043356E73146284602F05EF966
:10171000F2E731462846FFF713FCEDE7054A31466C
:101720002846FFF7A5FDE7E7A44D0010E000000103
:10173000BC4D0010B84D00102DE9F04F87B00746A2
:1017400001919B469DF840909DF844A0BDF8504003
:101750009046002A00F08F80002C00F08880282C12
:1017600000F29480E61C26F00306B6B206F11405DA
:101770003146ADB200F06AFC20B16FF0010007B055
:10178000BDE8F08F029022461399786808F019F9A5
:10179000B442029B05D27868321B1946204408F0F7
:1017A0001BF900231C4676089E425ADC1421384659
:1017B00000F04CFC02900028DFD17E68AD0886F86E
:1017C00008B086F809A045F04005D8F80010EDB241
:1017D000357086F801904AEA0B2A8AB231614FEAE5
:1017E0002A2B388903924BEA0A2A4FEA114B00F060
:1017F0006DF9029B49EA0529B371F371254B4FEA54
:10180000292545EA0929708005461888029300F0C9
:101810005DF9029B1FFA8AFA19881FFA89F90131CA
:101820001980019BB080039A1BBB1B4B1B68F360A4
:10183000F1688BB203EB11431A449344DA445444E5
:10184000A1444D44284485B205EB104505EB1545F0
:10185000ED437581129B42465B6939461298984761
:101860008DE77A6832F81320013314449CE714257D
:101870009CE7019BDAE74389132B7FF67EAF436831
:101880000DF118081B6948F8043DE3E76FF0050007
:1018900075E700BFF0020010449D0000F0B59C46C3
:1018A000DDE907479DF814509DF81860BDF824E065
:1018B0001AB109B10B6803B9211DCDE9087ECDE944
:1018C000066405956346BDE8F040FFF735BF10B5E7
:1018D000002486B0CDE903440A9C02949DF824407C
:1018E00001949DF820400094FFF7D8FF06B010BD8A
:1018F00010B5002486B0CDE903440A9C02949DF8FB
:10190000244001949DF820400094FFF715FF06B095
:1019100010BD431E033311D891F8313013F0020388
:101920000ED04A6882420BD08B6842401A4207D1DF
:10193000DB4383430CBF0120002070470120704728
:10194000002070472DE9F04F05460F464FF0000884
:1019500087B090F900400DF1080A0AEB08030193E3
:1019600007F0F0FFE3B218444378590703D400208E
:1019700007B0BDE8F08F302C21D195F9014024F05B
:101980002003582B13BF4FF008094FF0100995F9A9
:101990000240013508BF02352E46002507F0D2FF70
:1019A0005FFA84FB0BF1010B10F80B20520709D5ED
:1019B00005FB0945303D96F901400136EEE74FF051
:1019C0000A09E9E7B9F1100F15D107F0BBFF10F8CC
:1019D0000B2012F0440F0ED007F0B4FF10F80B20CC
:1019E0000A3402F00302022A0CBF612241222D01B7
:1019F000A41A2543DFE72E2C0AD1B8F10C0FB6D07C
:101A00004AF8085096F90140751C08F10408A4E74B
:101A1000A4B9019BA3EB0A008010013004281CD854
:101A200001A353F820F000BF711900005B1A0000F9
:101A30004B1A0000691A00008B1A000007F082FFA1
:101A400010F80B301B07E4D491E7B5F1807F8ED2FC
:101A5000029BFF2B8BD845EA03651FB1284600F097
:101A600038F83860012083E7B5F5803FBFF47FAFD9
:101A7000029AFF2A3FF67BAF039BFF2B3FF677AF1F
:101A80001B0443EA02631D43E7E7FF2D3FF66FAFF8
:101A90000299FF293FF66BAF039BFF2B3FF667AF21
:101AA000049AFF2A3FF663AF1B0443EA016343EA4B
:101AB0000223E8E707B501A9FFF744FF18B1019831
:101AC00003B05DF804FB4FF0FF30F9E740BA80B295
:101AD000704700BA7047002308440129A0EB0102B7
:101AE0000EDC04BF127803EB022398B200EB134024
:101AF000030C1B040BB180B2013080B2FFF7E6BFCC
:101B00001288023952BA92B21344E6E72DE9F04145
:101B10000F4616464FF000081C68069B05461B68DA
:101B200098B200EB1340A3B2184400EB144084B207
:101B300004EB104084B204EB1044D5B9B8F1000FA7
:101B400004D023029BB2C4F307241C433846FFF79A
:101B5000BDFF05463046FFF7B9FF28440444A0B254
:101B600000EB1444A0B200EB1440C04380B2BDE8C7
:101B7000F08169896868FFF7AEFF6B890444A0B201
:101B8000DB0700EB144406D523029BB2C4F3072401
:101B900088F001081C432D68CFE7FFF7B7BF2DE998
:101BA000F0470F4616464FF0000A9946089B054637
:101BB0001C68099B1B6898B200EB1340A3B2184441
:101BC00000EB144084B204EB104084B204EB1044E8
:101BD000ADB9BAF1000F32D13846FFF777FF0546AD
:101BE0003046FFF773FF28440444A0B200EB1444CE
:101BF000A0B200EB1440C04380B2BDE8F087B9F159
:101C0000000FE6D0B5F80A806868C84528BFC84606
:101C10004146FFF760FF6B890444A9EB0808A0B2B6
:101C2000DB071FFA88F900EB144406D523029BB2A8
:101C3000C4F307248AF0010A1C432D68C8E7230275
:101C40009BB2C4F307241C43C6E7FFF7A8BF08B53F
:101C5000FFF741FFC04380B208BD70B500260546BE
:101C6000344645B926B123029BB2C4F307241C4372
:101C7000E04380B270BD69896868FFF72CFF6B890B
:101C8000204484B2DB0704EB104406D523029BB248
:101C9000C4F3072486F001061C432D68E1E738B53C
:101CA0000446154607F08DFE29462046BDE838401B
:101CB000FFF711BF08B504F09EFB00F00EF800F02E
:101CC00029F800F081F803F06DFB00F0C3FBFFF78B
:101CD00077FABDE8084003F01BBB7047704710B5AA
:101CE00007F03EFE044618B904F09BFB04F09EFB8F
:101CF000204610BD07F03CBE008810B5033020F030
:101D00000300FFF7ECFF044604F08BFB04F08EFBAE
:101D1000204610BD704700000B2804D8034B53F831
:101D20002000FFF7E9BF0020704700BF649D00005E
:101D30000B2810B50C4609D841B104F072FB04F031
:101D400075FB2046BDE81040FFF7D4BF10BD6FF013
:101D50000B00704710B590F83130044603F00502CF
:101D6000052A11D1C9070FD542686AB11A0702D5F1
:101D7000011DFEF773FF94F831309B0604D5204611
:101D8000BDE81040FFF72ABA10BDF7B54368164604
:101D90000A6805469A420F4614D002AC44F8042D56
:101DA00033602146304600F0CFFD2146304603F037
:101DB000BBFD3B6828466B600121FFF7CBFF01208C
:101DC00003B0F0BD0020FBE770470000F7B5144DED
:101DD0000446002914BF0E462E46002A14BF17469B
:101DE0002F46002B18BF1D463368B3B901AA3146F0
:101DF000FFF7CBFF01233A68A1688A4218BFA260AF
:101E00002A68E1688A4218BFE26023B901AA314614
:101E10002046FFF7BAFF03B0F0BD0023EBE700BF99
:101E2000449D00002DE9F843DDF824900E46174646
:101E30009846044618B900242046BDE8F883B9F155
:101E4000000FF8D00025284BC0E90155002908BF34
:101E50001E46002A08BF1F46B8F1000F08BF98466B
:101E6000224BC5604361058580F831502946042224
:101E7000203007F0B1FD089BA5631D4DE3612B7871
:101E8000204684F834300A9B3A4623613146434663
:101E9000FFF79CFF2046C8470028CCD115490E68A3
:101EA000324694F83430FF2B08BF84F8340094F89D
:101EB000343062B9FE2B14D12A7094F83130266088
:101EC0009B060C60B8D52046FFF7B8F9B4E792F846
:101ED00034709F4203D1013384F83430E0E7126854
:101EE000E7E701332B70E8E7449D00004F1D000039
:101EF000F2020010BC4D0010014B1860704700BF8B
:101F0000C04D001050B190F83130D90706D443F0DD
:101F1000010380F831300321FFF71CBF704750B137
:101F200090F83130590706D443F0040380F831307B
:101F30000321FFF70FBF704738B190F831305A07CF
:101F400044BF23F0040380F83130704750B1064B92
:101F50001B682BB193F834200132D2B28242F7D100
:101F6000184670470346FBE7BC4D001010B5044609
:101F700008B9002010BD023007F0D2FC0B4AC3B2F2
:101F800010680028F5D090F834209A420BD194F9CB
:101F9000001090F93220914205D194F9011090F986
:101FA00033209142E6D00068EBE700BFBC4D001043
:101FB00008B504F036FA0022074B1A7004F036FA1E
:101FC000064B186800B908BD436F1BB1BDE8084057
:101FD00000F0EEBBC068F5E7C44D0010CC4D00101A
:101FE00030B598B1B1F5803F10D2D1B103898CB230
:101FF00023449BB29C4209D890F90C50002D07DA7B
:102000004268511A00F11002914205D2012009E004
:10201000002AFBD04268511A42894160144444812D
:102020000381002030BD70B506460A200C461546D7
:10203000FFF772FE48B100230122C0E90036048197
:102040004481057343738273C37370BD0022FFF72D
:10205000C7BF10B588B1B1F5803F0ED259B14389E1
:102060008AB29A4209D89B1A446843810389214461
:102070009B1A41600381002010BD0120FCE70B1E6C
:1020800002DA5942FFF7E5BF0122FFF7A9BF70B599
:10209000044628B3002504F0C4F9A67B013EF6B23D
:1020A000A67304F0C3F976B9237B266803F00F0307
:1020B000022B0AD121460B20FFF73AFE0135EDB283
:1020C0003446002EE7D1284670BD012B02D12146AF
:1020D0000A20F1E7002BF1D12046FFF70BFEEDE7D8
:1020E0000546F0E7412A2DE9F84307460E4684B23B
:1020F00029D003D8012A26D000256AE0B2F5C17F95
:1021000027D0B2F5207FF7D10334CB1C23F0030393
:1021100024F003041C44A4B29C4204F11000EBD34D
:102120008342E9D8FFF7DBFD0546002851D00023A4
:10213000074403601337294B27F0030747600681E4
:102140004681C36045E03146BDE8F8430020FFF713
:102150006ABF4FF000094D464F46DFF88C800B20D8
:10216000FFF7DAFDC8B904F05CF901231C4E34789E
:102170003370E4B204F05AF94CB92146194805F01D
:10218000E5FE20B104F04DF9347004F04FF9002D54
:10219000B2D02846FFF77BFFAEE7E31C23F0030332
:1021A000C3F514739BB2B34228BF334604441334BF
:1021B00024F003040760446006814381C0F80C806A
:1021C00055B1C9F80000F31A9EB200248146002ED2
:1021D000C5D12846BDE8F8830546F4E78000010034
:1021E000C44D0010B11F00008200010038B5038902
:1021F00004468B420D4618D95B1A9BB26289AA42EB
:1022000014D3237B1B0708D1AA4206D0616820465D
:10221000091B2944FFF762FD04462068658125817A
:1022200008B1FFF734FF0023236038BDAD1A2289BF
:10223000ADB2D21A22812468E0E7F8B50D46044613
:10224000002685B17CB16189A94208D827686D1A3A
:1022500026602046ADB2FFF71AFF3C46F1E729465B
:102260002046FFF7F6FE2046F8BD0346002290B256
:10227000013203B970471B68F9E710B5044640B155
:1022800004F0CFF8A37B0133A373BDE8104004F042
:10229000CDB810BD10B500B109B910BD10460B89FD
:1022A0000489026823449BB20381002AF6D10160AD
:1022B000F3E710B5FFF7EEFFBDE810400846FFF763
:1022C000DCBF2DE9F0410C46054618B96FF00F0050
:1022D000BDE8F0810029F9D002890B899A42F5D333
:1022E0000026B04663896F899B1BA7EB08079F42B6
:1022F00028BF1F4661686868314440443A4607F089
:1023000060FB63893E449E426B89B84424BF2468C5
:102310000026984507D12D681DB9002CD6D120463E
:10232000D6E74FF000082CB1628923899A4201D187
:10233000236843B96A892B899A4201D12B6813B962
:10234000002CCFD1EBE76FF00500C1E72DE9F0419C
:102350000F469046064618B321B30025B8F1000F8A
:1023600000D016B92846BDE8F08172892BB193429E
:1023700003D39B1A9BB23668F0E7D21A94B2444555
:1023800028BF444671682246194478192544A8EBB1
:10239000040407F016FBADB21FFA84F80023EAE745
:1023A0000546DFE70D46DDE738B514460A462189C4
:1023B000FFF798FE054610B12146FFF782FF284639
:1023C00038BD0000F0B54FF480434FF6FF760F4A5A
:1023D0000F4F1188481C80B2B04208BF4FF44040F4
:1023E000002457F824100D6825B90134042CF8D1C5
:1023F000108008E0E98A814206D1013B9BB2002BA4
:10240000E8D110801846F0BDED68EDE7100000102F
:10241000A49D0000037D10B5042B044603D0072BB8
:102420000BD0032B07D102F0FFFB58B9052323750E
:10243000204602F0EDFC002010BD02F0F5FB08B9CB
:102440000923F4E7431CF7D1638B43F0080363834C
:10245000F1E7000008B507F06DFB6FEA80406FEA16
:102460009040014B188008BD10000010014601206B
:10247000FFF75EBCF8B5234D0446002918BF0D4692
:10248000002836D0037D002B36D1417A11F00401AB
:102490000CBF4FF0040C4FF0030C32B9FFF792FF62
:1024A000024658B96FF0010013E0DFF860E05EF813
:1024B0002300006870B901339C45F8D12B6803B143
:1024C0002360114BE2821A681C60E26002F0EAFEAF
:1024D0000020F8BDC68A964209D111B1467A760726
:1024E00005D407685FB12E684EB1B74207D0C06807
:1024F000E0E76FF00F00ECE76FF00500E9E76FF041
:102500000700E6E7449D0000D84D0010A49D0000A0
:1025100021B191F834300133037270470172704772
:10252000024630B5C16A058D446A6B1A1819538E7C
:10253000B3F5866F94BFC31AA0F58663002B01DB49
:10254000558530BD0020631A002BD6BF091B50856E
:102550005185F6E710B50446F0B1038D194489B2F0
:10256000B1F5066F018511D94FF406632385204626
:10257000FFF7D6FFB0F5067F0ED3638B204643F0FE
:1025800002036383BDE8104002F042BC0029EED193
:10259000037D042BE8D8EAE710BD10B5044648B126
:1025A000406808B1FFF773FD2146BDE810400320E5
:1025B000FFF7BEBB10BD10B500B910BD0468FFF732
:1025C000ECFF2046F8E738B505460320FFF7A4FBEB
:1025D000044630B11422294607F0F3F96068FFF78A
:1025E0004CFE204638BD00B10161704708B1C0F80B
:1025F0008410704708B1C0F88010704708B1C0F867
:102600009010704718B1037D012B08BF816170479E
:1026100010B1C0F88C10427770470000034B044A99
:102620001868126810441860704700BF0C00001052
:10263000D04D001049B10B8D3BB1282B92BF002328
:10264000283B9BB2984228BF184670472DE9F843B3
:102650000F46904699460446002800F095800029D0
:1026600000F09280037D002B40F091800B68436066
:102670002283007A90B1FFF769FC0546002800F03C
:10268000898023680BB943682360E68A56B9FFF74F
:1026900099FEE08218BB6FF0010559E0201DFEF79E
:1026A00047FFEAE7637A5B0719D53C4B196891B19C
:1026B000CB8AB34201D0C968F9E70B8B4345FAD105
:1026C00022680B689A42F6D14A683B689A42F2D176
:1026D0006FF007053CE0324B196800293BD12046DA
:1026E000FFF79CFF00232F4A20650138C4E9093217
:1026F0006064C4E91600E3624FF406704FF40663A9
:102700002946A4F86030221D6086FFF793FF01235D
:102710006086A4F84830C4F888900221204602F070
:1027200044FA0546A0B9022323752EB11E4A136848
:10273000A34221D1E3681360184B1A681C60E26061
:1027400002F0B0FD0122194B20461A7002F060FB26
:102750002846BDE8F883CB8AB3420AD10B8B4345A8
:1027600007D10A6823689A4203D14A683B689A42B3
:10277000AED0C968B1E71346002BDDD0DA68A242BB
:10278000F9D1E268DA60D7E76FF00F05E0E76FF0A4
:102790000905DDE76FF00305DAE700BFCC4D001057
:1027A000DC4D001060086008D84D0010C84D0010C6
:1027B00010B50446406F18B1FFF7FDFE00236367B4
:1027C00010BD10B50446E8B1037D012B1AD90A2BC0
:1027D00018D0806F18B1FFF75AFC0023A367636F0E
:1027E00013B12046FFF7E4FF4FF6FF73E06E238638
:1027F000FFF7E1FE206FFFF7DEFE0023C4E91B3385
:10280000A4F8683010BD036810B58B420C4619D18E
:10281000CB68036000232046E360FFF7D2FF237DEF
:102820000A2B0AD0012B08D0638BDA0705D543F0B9
:1028300002036383204602F0EBFA00232375E38250
:1028400010BD1346002BE5D0DA68A242F9D1E26848
:10285000DA60DFE72DE9F0430D4685B00446002835
:1028600055D0037D0A2B09D101462A48FFF7CBFF3B
:10287000204605B0BDE8F043FFF7F8BDD0F8508022
:10288000D0F82490D0F890600769002B37D1C58A22
:102890003DB1214A1368834229D1C36813600025E2
:1028A000E560206F08B1FFF786FEE06E08B1FFF724
:1028B00082FE606F08B1FFF77EFE5DB1238B4A4652
:1028C0000293E38A41460193231D00932046234649
:1028D00002F055FA2046FFF7C9FDC6B16FF00C01B2
:1028E0003846334605B0BDE8F04318471346002B81
:1028F000D5D0DA68A242F9D1E268DA60CFE70146C2
:102900000648FFF780FF0122054B1A70C9E705B0A2
:10291000BDE8F083DC4D0010D84D0010CC4D001008
:10292000C84D00100121FFF795BF38B5044601B925
:1029300038BD0A682368CD689A4202D10846FFF77D
:10294000F1FF2946F3E7000038B50D46044680B193
:10295000036873B10B4B1968FFF7E7FF0A4B20467A
:102960001968FFF7E2FF25B12B6813B1074B1B680D
:1029700003B938BD19682268914204BF2A681A60F9
:10298000DB68F5E7CC4D0010D84D0010D44D001099
:1029900030B4002422460B4B19680B4B1D6821B93B
:1029A00072B130BC1046FFF755BF0B7D834205D195
:1029B0000B6AEB1AA34224BF1C460A46C968EEE71D
:1029C00030BC7047CC4D0010D04D0010F8B5054616
:1029D0000120FFF7A1F90446002836D1404F38689E
:1029E000002859D101463F4B3F4E1B683468002BED
:1029F0005DD108B1FFF796FF0120FFF78DF904467E
:102A000018BB0920FFF7C4FF0120FFF785F9044632
:102A1000D8B90820FFF7BCFF0120FFF77DF9044675
:102A200098B92B064CD45DB12A460021013A3B6887
:102A30003668D2B2002B45D114B12046FFF772FFA1
:102A40000120FFF769F9044620B39C2200212046AB
:102A500006F0C2FF254A4FF48663A262FF22E272AB
:102A60000622A4F84020E287214AA4F864302263B9
:102A70000122A4F848201C4AA4F84A3012681D4BD1
:102A800022621D4AC4F8843012781C4B6575A27707
:102A9000C4F894302046F8BD438BC4681A0704D5A7
:102AA00023F008034383FFF7B5FC204698E71A6A32
:102AB000A21A8A4234BF0A4618461146DB6896E7D6
:102AC0007F22B2E75F7D974204D307D1186A301A9C
:102AD000884203D33A461C46196A711ADB68A9E793
:102AE000CC4D0010DC4D0010D04D00106008600887
:102AF000FFFF1802392C0000F402001000DD6D0009
:102B00004020FFF763BF000030B5037D85B0044669
:102B1000002935D0042B01D0072B31D1A26F1AB96F
:102B2000228DB2F5066F2BD0238B626A0293E38A63
:102B3000216D0193231D00932046234602F01FF9C7
:102B40002046FFF73EFE2F4A1368A34210D1E368E8
:102B5000136000230122E3602B4B1A702B4B1B6880
:102B6000A34222D101F0E0FB002005B030BD1346A6
:102B7000002BEED0DA68A242F9D1E268DA60E8E729
:102B8000012B1FD007D3022B34D0204605B0BDE85F
:102B90003040FFF73FBCE38A3BB11D4A1368A342B4
:102BA00008D1E36813600023E3602046FFF75EFC72
:102BB000DAE71346002BF6D0DA68A242F9D1E268D0
:102BC000DA60F0E70020134951F8232012685AB95F
:102BD0000133042BF8D121460F48FFF714FE21469C
:102BE0000220FFF7A5F8BFE7D56FAC4208BFD0675A
:102BF000D268ECE721460348FFF705FE0122024BAD
:102C00001A70D2E7CC4D0010C84D0010E04D0010F6
:102C1000D84D0010A49D0000D44D001048B1037D94
:102C20000121012B1EBF438B43F010034383FFF7A9
:102C30006BBF6FF00F00704710B50846144669B1BE
:102C40003AB11189FFF786FC2046FFF720FA0020F1
:102C500010BD33B9BDE81040FFF7E0BF6FF00F00C3
:102C6000F6E71046F4E7F8B5044680B30023866F14
:102C7000D0F88450777B8367DDB101463246006926
:102C8000A8470546E0B9BB0611D5238DD4F884606A
:102C9000B3F5066F1CBF0133238546B100232146DF
:102CA0001A462069B0470D3001D16FF00C05284657
:102CB000F8BD01462B4632462846FFF7BDFFE0E748
:102CC00010F10D05F1D0A6676FF00405EFE76FF086
:102CD0000F05ECE72DE9F8431B4D1C4F2B781C4EDC
:102CE00001332B704FF000083C680CB9BDE8F88345
:102CF0002B78A27F9A4224D0A377638BD90709D57A
:102D000043F002036383204602F082F8638B23F0D2
:102D100003036383638B1A0705D523F008036383DA
:102D20002046FFF777FBA36FD4F80C903BB1204609
:102D300086F80080FFF797FF3378002BD2D14C46FE
:102D4000D3E7D4F80C90FAE7F4020010CC4D001051
:102D5000C84D001038B51446054608B3027D012A57
:102D60001BD089B1438B43F01003438324B101216D
:102D7000BDE83840FFF7C8BE806F08B9002038BDF5
:102D8000FFF785F9AC67F9E7002CF7D0072A04D8DC
:102D90000123934013F0980FEAD16FF00A00EEE799
:102DA0006FF00F00EBE700002DE9F04FBD4DDFF8AD
:102DB00010832B6887B001332B60BB4B9B461A787E
:102DC00001321A700026B94F3C683CB9B84F3E68D2
:102DD000002E40F0778107B0BDE8F08F9BF80030FF
:102DE000A27F9A4205D1D4F80C90344626464C4630
:102DF000EBE7227DA377022A94F8423040F09A80D4
:102E0000052B00F20A8194F899A0BAF1000F00F0A6
:102E1000B48094F89A300B2B00F2FF80A54894F808
:102E2000983082441AF8012C93423CBF013384F855
:102E3000983094F8983093427ED24FF0000A237D68
:102E4000062B0BD1628BD20608D52A68216A521A4A
:102E5000282A84BF0AF1010A5FFA8AFA94F80990D5
:102E600019F008091AD0042B02D0072B40F0EA8091
:102E70004FF4FA70D4F894C029680CF5242202F6B5
:102E8000B842B2FBF0F2236AC91A914240F2C880FC
:102E90004FF001090AF1010A5FFA8AFA636F5BB128
:102EA0002B68226AB4F940109A1A06234B439A42BF
:102EB00002D32046FFF77CFC237D032B40F0C58026
:102EC0002B68226A9B1A282B03D8BAF1000F00F056
:102ED000C6802046D4F890A0FFF773FCE368002E6C
:102EE00000F0BB80F360B9F1000F0BD0238B2046BC
:102EF0000293E38A0193231D0093626A2346216DA6
:102F000001F03DFF236920460593D4F80C90FFF7AC
:102F1000ADFA002288F80020BAF1000F04D0059B1A
:102F20006FF00C011846D04798F80030002B3FF4A2
:102F30005CAF47E70B2B64E7B4F86010204689B913
:102F400002F011F900287FF478AF4FF0000A94F8EE
:102F5000993084F898A0062B3FF66FAF013384F8C0
:102F600099306CE701F040FD0028EED1204601F0D9
:102F70004FFF00283FF461AFE7E7B4F93030002B92
:102F800005DB47F6FF7293421CBF01332386B4F979
:102F90003020B4F940309A42FFF64FAF204601F09E
:102FA00066FE38B1236F002B7FF447AFE36E002B32
:102FB0003FF443AF237D022B14D0B4F93C20B4F985
:102FC0003E303D4903EBE20394F842200C2A28BF2F
:102FD0000C228A5C934047F6FF729342A8BF1346C7
:102FE000A4F84030B4F84820B4F86030002193428F
:102FF00028BF1346608E5B08420092B29342A4F849
:103000004A30A4F84800218638BFA4F84A20A4F822
:103010006A10204602F07CF811E74FF0010A0EE733
:1030200094F89B30254A02FB03C3B3FBF0F39942AB
:1030300008D9204602F080F820B994F89B3001337B
:1030400084F89B304FF0000928E7092B7FF43DAF4F
:103050002B68226A9B1AF02B36E73B6043E7237FFD
:10306000627F0133DBB29A42D4F80C9023773FF6AB
:10307000BDAED4F88C3084F81CA088F800A073B1E1
:1030800021462069984798F80030002B7FF49AAECB
:1030900000287FF4ABAE204601F0BAFEA6E650460B
:1030A000F1E700BFD04D0010F4020010CC4D00102D
:1030B000DC4D0010B49D0000949D0000F824010038
:1030C000C84D00102B68326A9B1AF02B06D9304687
:1030D000FFF777FBF36824B93B6003E03446F668FA
:1030E00076E6E360D6F80C803046FFF7BFF9464637
:1030F0006EE600BF08B5FFF7EDFD064A1378013311
:10310000DBB21370DB0703D5BDE80840FFF74CBE08
:1031100008BD00BFF3020010094A1388591C118032
:10312000084A12681AB1084909888B4204D2074A32
:1031300012681344187D70475B1ADBB2D05C70478D
:1031400024030010300300102C030010280300108B
:10315000F8B50369054698890C46FEF7B7FCC20727
:1031600014D4184E276930682B8979682289034462
:103170000A449A1A002A0FDA5B1A002B0ADD091A90
:1031800089B229816868FFF731F803E02046FFF72C
:1031900012FA00242C60F8BDB889FEF797FCC3072B
:1031A00007D52B6901209F89FEF790FC2B693843D6
:1031B000988127682046FFF7F0F93C46002FD1D1CF
:1031C000E8E700BF20030010F8B51A4E0746338821
:1031D00033B10023184D2B8034882B88A34200D3B1
:1031E000F8BDFFF799FF0128F6D0F9D3022817D1CF
:1031F000FFF792FF0428F3D12B880133A342EFDAC3
:10320000FFF78AFF000284B2FFF786FF204380B2F7
:10321000431EB3F5067F28BF4FF406703880DBE706
:10322000FFF77AFF0128DBD92B88023B184428805E
:10323000D2E700BF340300102403001010B50C4B7C
:103240000446187810F0100011D0638BDB0606D40A
:10325000D4F890301BB16FF00E01206998472146D9
:103260000448FFF7D0FA2046FFF700F9012010BD0F
:103270001C030010CC4D00102DE9F84306460C4607
:10328000DFF85880144FA4B123695868FEF721FC79
:103290002369814698892589FEF718FC10F0030000
:1032A00018BF0120D8F80030ED1A4D440544002D18
:1032B00002DD2046BDE8F883D4E90050FEF7D5FFD3
:1032C00033883A88181A30802389204613443B807B
:1032D0002C46FFF762F9D6E714030010F80200103D
:1032E0002DE9F047A64B04461B78A64E13F0100FAD
:1032F000A54F7FD03368A54DB0F86010D4E9150C08
:10330000A0EB030EBEF1000F2A68A9460CDB984221
:1033100003D1ACEB0200002806DB944511D19C4898
:103320000068C08988420CD99948B4F862E0006806
:10333000C089C4E915328645A4F8600038BFA4F8F6
:103340006200606C131A002B00F328813B88002B6D
:1033500040F01281B4F86030A56D61442B448B427B
:1033600040F00A81B4F93030002BC0F20581904260
:1033700040F0028194F84330FF2B1CBF013384F8E6
:10338000433094F84330032B0ED9B4F84820638EB1
:1033900013449BB29A4288BF4FF6FF73A4F848309B
:1033A000204601F0C4FC00E0FAD0626B12B3A36BBC
:1033B000D9F800105B1A002B1CDA764BB4F93C00EC
:1033C0001968891AA1EBE00189B20BB2002BB4F99C
:1033D0003E200844BCBF49420BB2A2EBA2021344F8
:1033E00000B29BB2E38703EBE003A4F84030002374
:1033F000A08763633D88626A3368002D00F0D7823E
:10340000217D062900F2D382D11A012900F15C81C5
:10341000C3F10100401B1044002800F355814FF018
:10342000000C5D4D89B22B8968685B1A2B8103897A
:103430005B1A9BB242898A42C0F03F81FEF709FEC7
:10344000636A2A69336053603368626A991A002993
:10345000C0F2EE81581C258D811A491B002900F30A
:10346000E781934240F0DE814B4D2B69B5F808802F
:103470009889FEF72BFB10F0030018BF0120238D65
:10348000404480B28342388034D22B699889FEF759
:103490001DFBC20710D52B69B3F80C804046FEF720
:1034A00015FB00F03E00FEF711FB28F47C582B6959
:1034B00048EA0008A3F80C80238D2B812B6998899A
:1034C000FEF704FB830748BF2B89686844BF03F1FC
:1034D000FF332B812989FEF789FE2B69B5F8088017
:1034E0009889FEF7F3FA10F0030018BF012080441A
:1034F000A7F80080636F002B00F0F5802B69988996
:10350000FEF7E4FAC00700F1EB80D4F8748030686D
:103510003B880344B8F1000F2BD0D8F810C0B8F89E
:103520000810DCF804201144591A002980F2FD80AB
:103530009B1A002B1DDD2B69121A2A819889FEF730
:10354000C5FA830748BF2B89686844BF03F1FF337E
:103550002B812989FEF74AFE2B69B5F808909889D6
:10356000FEF7B4FA10F0030018BF01208144A7F859
:103570000090C4F87480B6E0002384F8433014E768
:10358000FC0200102003001036030010F8020010A7
:1035900028030010D04D001000030010216D511AB7
:1035A000002900F38680618B480709D521F00401CA
:1035B0006183B4F84A10A4F848100021A4F86A10F6
:1035C0000020B4F93CC0E18F6264227D01EBEC0184
:1035D000032A84F84200A4F8401084F843001AD962
:1035E000B4F84810B4F84A209BB28A423BD9628BA7
:1035F000608E12F4006F0CBF02220122424392B28D
:103600009A4294BF8B18CB189BB2994201D94FF6BE
:10361000FF73A4F8483004F16608216F4046FFF7B5
:103620002BFEE16E20674046FFF726FE236FE06623
:10363000002263BB4FF6FF712186227708B9A4F8F8
:103640006800A849B4F8642009880A44A4F86420F2
:10365000628B11057FF5A9AE3BBBD0B9638B23F418
:1036600000636383A1E6B4F86A2013449BB29A42D4
:1036700088BF4FF6FF73A4F86A30B4F86A309942F5
:10368000C9D85B1AA4F86A30638E0B44BCE7228663
:10369000D3E7D4F84C8003695868FEF71AFAA8EB10
:1036A000000000283FF781AED8E7D4F84C801B69B2
:1036B000F2E7204601F08BFB77E6891A0381A0F838
:1036C0000AC089B20068B5E69B1A002BBEBF638BA7
:1036D00043F002036383B7E603686367FEF75DFFA9
:1036E000606F0028F8D13988238D32685B1A0A444C
:1036F000626223852046FEF713FF6B681A891AB1B0
:10370000794A136000236B602B699889FEF7DEF914
:10371000C50704D5754A137843F020031370724F20
:103720004FF00009DFF8C48166E0BCF80C00FEF73A
:10373000CDF9C1071BD52B699889FEF7C7F9820718
:1037400015D42B690120B3F80C90FEF7BFF92B6953
:1037500049EA000080B29881B5F80890FEF7B6F902
:1037600010F0030018BF01208144A7F80090D8F89A
:1037700000904046FEF711FFC846C8E633608889CE
:10378000B5F808A0FEF7A2F910F0030018BF012059
:10379000636A5344034463622B69B5F808A09889AF
:1037A000FEF794F910F0030018BF0120238D504458
:1037B000181A20852046FEF7B3FE69680B892BB1E5
:1037C000386840B3FEF766FDC5F804902B69988908
:1037D000FEF77CF9C0070AD598F8003043F02003C3
:1037E00088F80030237D042B04BF072323752B6842
:1037F00028466367FEF7D1FE656F25B12969626AC5
:103800004B689342BAD0638BD90706D523F00103E6
:1038100043F0020303E03960D6E743F0010363831A
:10382000BDE8F087656F45B93148FEF7CCFE6067AB
:103830002046BDE8F04701F0CABA4FF0000803F196
:10384000FF3ED5F810C0DCF80420934215D128487B
:103850002B8902899A42EBD9FEF7B5FE0028E7D002
:10386000B8F1000F07D0C8F800002946FFF770FC38
:10387000DEE70D46E5E76067F7E7B8F1000F09D12D
:10388000991A002936DA1A48FEF79DFE0028CFD093
:103890006067EAE7D8F810104968AEEB010100292B
:1038A00028DB811A002925DC1148FEF78CFE07462B
:1038B0000028BDD0D8F8103031685A68B8F8083000
:1038C00013445B1A002B07DD891A89B2A8F8081087
:1038D000D8F80400FEF78AFCC8F80070294638467C
:1038E000C4E700BF14030010180300101C030010ED
:1038F000000300102968A8460029BAD19B1A002BA2
:1039000096DDBCF80C00FEF7E1F8C20790D42E4813
:10391000FEF759FE286000288AD02B6931685A6862
:103920002B8913445B1A002B05DD891A89B2298182
:103930006868FEF75BFC32683B881344626A9B1A36
:10394000228D9B1A002B7FF773AF2B681B69988918
:10395000FEF7BCF8C30712D52B681B69B3F80C80BF
:103960004046FEF7B3F800F03E00FEF7AFF82B68D4
:1039700028F47C581B6948EA0008A3F80C803268D8
:10398000218D2B68891A626A5868114489B219819D
:10399000FEF72CFC2B681D891B699889FEF796F8A9
:1039A00010F0030018BF012005443D8040E7991A3C
:1039B000002906DB01339B1A228D9B1A002B7FF70F
:1039C0002FAF638B24E700BF000300102DE9F04FF9
:1039D0004368AD4D89B02B6043898146132B40F27B
:1039E000A180AA4E31687069FDF793FF002840F06E
:1039F0009980736903F0F003E02B00F0938006F1E7
:103A00001403B9F8082006210093484606F1100374
:103A1000FEF7C3F88046002840F084802B68988920
:103A2000FEF754F8810A01F0FC0113297AD9B9F89C
:103A300008308AB2934275D3B9F80A00A2F1140390
:103A4000934C944F9BB29042C7F800802380DFF8DC
:103A50007C8243D34846A8F80030FEF7FAFA2C6877
:103A60002088FEF733F820802C686088FEF72EF857
:103A700060802C686068FEF72CF86060864C2F68C8
:103A80002060B868FEF725F8844BB8602F6818608E
:103A9000F889FEF71BF82B68F8819889FEF716F86D
:103AA0007F4AC3B203F03F0113F0030F1170B9F85E
:103AB0000800A34630D17B4A10807B4AD6E904A493
:103AC000D2F800E006944FF0000C7446716807923B
:103AD0000591296864BB754A1068FAE014214846CC
:103AE000FEF7B7FAB9F80A1024884846641AA8F80D
:103AF0000010FEF7AEFAD9F80000A4B24389A34241
:103B000010D3436821463B60FEF7A3FAB9F80830AA
:103B10001C1BA9F80840A2E7421C92B261499042DE
:103B20000A80CAD9484609B0BDE8F04FFEF7AFBADF
:103B300094F80880B8F1000F06D0059A92F8342066
:103B40000132D2B2904559D1B4F818800A88904514
:103B500054D1B4F816804A8890454FD162685245D6
:103B60004CD12268069FBA4248D1BCF1000F06D062
:103B7000E268CCF80C204C4AC4F80CE01460002237
:103B80004B4F4C4E388139614B484C4913F0080F6C
:103B90003A60C7F804900A603270028080468A4614
:103BA000059705D099F80D3043F0010389F80D30E1
:103BB000A36F434F002B00F051812046FFF753F8CD
:103BC0000D3008D0A36F002B00F04881354B1B88C7
:103BD000002B00F04381638D13B9204601F0F7F804
:103BE0000024059B3C605868CAF8004018B1FEF7F5
:103BF0004EFA059B5C6009B0BDE8F08FA446E4680E
:103C000068E7047A34B1059A92F834200132D2B2CE
:103C100094425DD1028BB1F800C0944558D1C28A5C
:103C20004C88944254D14268924551D10268069F13
:103C300097424DD15E073FF575AF1A4A9D0711882F
:103C400013D5154B1A68436AD31A13D4058D5B1B21
:103C5000002B0FDC1B4BCDE9014C0A440F490093AC
:103C60000968043301F08BF85CE7DC0742BF164BB0
:103C70001B68036200293FF455AF438B43F00203F6
:103C8000438301F0C5F84DE728030010A44D001050
:103C9000340300103003001020030010F80200105D
:103CA000FC02001036030010CC4D0010DC4D00105B
:103CB000000300101C030010140300101803001070
:103CC000E04D0010B44D0010D04D00102C0300103A
:103CD000C068002895D1944A8446D2F800800446F2
:103CE0004246AAB9002C36D18889FDF7EFFE43077A
:103CF0003FF518AF2B688D4A18881188DBF8002033
:103D000002905B880A440193894B009304333EE0A0
:103D100092F808A0BAF1000F08D0059F97F834E098
:103D20000EF1010E5FFA8EFEF2450FD1B2F816A029
:103D3000B1F802E0F24509D1D2F800E0069F7745DC
:103D400007D0BEF1000F04BF144684461046D26867
:103D5000C7E714468446BCF1000F06D0E268CCF8F1
:103D60000C20714AC4F80C80146058073FF5DAAE95
:103D700013F010080FD06D4BDBF8002018880B886B
:103D8000024402934B880193694B009304336949C1
:103D90002046096866E799077FF5C4AE607DFEF7A7
:103DA00015FE074648B9A369002B3FF4BBAE014698
:103DB0004FF0FF3220699847B4E673692A680360C0
:103DC00033694360E38AC3821378527843EA02235B
:103DD000038303230375DBF8003001334362C362BE
:103DE000FEF71CFCDBF80030B865013B7B652369FE
:103DF00038657864F865FC673B61637A03F00C030F
:103E00007B72237A3C1D3B72079B1B68FB60079B00
:103E10001F6001F047FA0122474B07F132001A7088
:103E2000FFF7D2F92B682046DB897D8EA7F860303A
:103E3000A7F86230FDF77CFB224601462846FEF7D4
:103E4000F9FB12217886384600F0AFFE20B14146DA
:103E50003846FEF7FFFC65E6384612E7374A3C6015
:103E60001378914613F0040F1FD0237D022B0DD140
:103E7000304B226D1B689A4222D1337843F00803FD
:103E80003370638B23F00103638319E02C4B626A68
:103E90001B689A42F1D09B1A12D4228D9B1A002BD8
:103EA0000EDC638B43F00203EEE713F00201628B3A
:103EB00019D0207D0238012815D942F00202628310
:103EC0003378190740F1D181D4F890301BB16FF0ED
:103ED0000D012069984721461A48FEF794FC2046B8
:103EE000FEF7C4FA7CE6D20658BF174A04F1320046
:103EF00058BF1268CDE9063158BF22620022A4F8EB
:103F00009A20FFF761F9DDE90631227D023A072A9E
:103F1000D6D8DFE812F01B009800FD0001014B012C
:103F2000FD007301930100BFD44D00103603001053
:103F3000B44D0010F8020010C84D0010FC02001033
:103F400020030010CC4D0010D04D001003F01202E1
:103F5000122A58D1A249626C096801328A4252D1B0
:103F6000DBF800306264591C2A686162E162013B3F
:103F7000D28963650423E5182375A4F86020A4F8AA
:103F800062202846B4F83290FDF7D2FA2A4601465C
:103F90004846FEF74FFB42008300608641F21C104A
:103FA0008242114638BF01468B4220D298B2B4F803
:103FB0006630A4F84800206F013BA4F86630D0B901
:103FC000E06E0368E366FEF7E8FA236FB3B94FF6D5
:103FD000FF732386D4F88830002B3FF462AF0022B1
:103FE0002146206998470D307FF45BAFF8E58242A7
:103FF00088BF90B2DBE703682367E4E700232386EA
:1040000084F84230E6E7DB067FF55AAF2B68754A45
:1040100018881188DBF8002002905B880A4401931D
:10402000714B6F49009309680433204600F0A7FEE6
:1040300094F84230052B3FF643AF002320462386F9
:1040400001F06FF83CE7D80654D5654B1968636CEE
:10405000DB43CB423DD4236DCB1A002B39DC042348
:104060002375E36F1BB92046FEF75CFCB8E59B693E
:10407000002BF8D0002221462069984718B10D3056
:104080003FF4AEADEFE72046FFF72AF9B8F800306D
:1040900013B1013BA8F80030638E59009A0041F239
:1040A0001C139942084638BF184682420DD293B27B
:1040B000A4F84830337899067FF502AF638B43F05C
:1040C0000203638307232375FAE6994288BF8BB204
:1040D000EEE72B68434A1D881088444A126802950F
:1040E0005B8802440193404B20460093043300F068
:1040F00046FEE5E600293FF4E3AE3C4A636A1268F7
:10410000013B93427FF4DCAE204600F0E0FDD7E6B1
:104110002046FFF7E5F8CDE72046FFF7E1F83378D2
:1041200013F0200F99F8003031D013F0100F638B8B
:1041300028D02B4A216D1268914223D1E26E0ABB2E
:1041400043F0020363832046FEF73BFB284A1368D3
:104150009C4209D1E368136008E0DA68944202D116
:10416000E268DA6002E01346002BF6D10122214B0F
:104170001A700A232375204B1A681C60E26001F054
:1041800091F89DE643F00203638308239BE7DA0678
:104190007FF596AE124B226D1B689A427FF490AE6B
:1041A000E36E002B7FF48CAE06238CE72046FFF7EE
:1041B00097F833789B067FF583AE638B204643F0F8
:1041C00002036383FEF7FDFA094A13689C42C1D0DB
:1041D000002BCBD0DA689442C2D01346F8E700BF78
:1041E000F802001036030010B44D00102003001038
:1041F000CC4D0010C84D0010DC4D00102046FFF7DC
:104200006FF899F80030DD067FF55AAE444B226D09
:104210001B689A427FF454AEE36E002B7FF450AEDD
:104220002046FEF7CEFA3F4A13689C4292D0002BFC
:104230009CD0DA68944293D01346F8E72046FFF703
:104240004FF899F80030D8067FF53AAE344A216D20
:104250001268337891427FF433AEE26E002A7FF425
:104260002FAE43F0100333702AE6B8F800202AB1CD
:10427000D4F880309BB90023A8F800302046FEF720
:10428000DDFF00287FF4ACACDAF80020DAB1638BF4
:1042900013F0100309D01046FDF7F9FEE3E62146BE
:1042A000206998470D30E6D19AE4D4F88450FDB1E6
:1042B00021462069A84710F10D0F3FF491AC10B1D1
:1042C000DAF80030A36733789A0605D5A36FA3B157
:1042D0005A7B42F020025A73002320463B60FEF7CF
:1042E000ADFF00287FF47CAC204600F091FD77E420
:1042F0002B462146FEF7A0FCDDE7238DD4F8845041
:10430000B3F5066F1CBF01332385002DE4D00023D5
:1043100021461A462069A8470D30DDD160E400BF70
:10432000F8020010CC4D0010024A137843F010033D
:10433000137070471C03001010B51488C90704449B
:10434000A0B200EB144080B205D5197840BAC1F193
:104350000101197080B2108010BD70B50D469542F4
:104360001E469DF81810049B1ED29DF81440A40709
:1043700007D45C8B640617D419B1D96E09B91B6FC9
:1043800093B105F21B2424F003018A4228BF0A4698
:1043900091B24FF42072FDF7A5FE20B14289521B65
:1043A00032800581458170BD2946F2E72DE9F0474D
:1043B000814603209DF820600F4690469A46FDF7FF
:1043C000ABFCB50005F00405044628B93846FDF7F6
:1043D0005EFE2046BDE8F087467300263B89C0E9B3
:1043E00000675B1B03814681067314213846FDF785
:1043F0002DFE074620B12046FEF7CFF83446E8E709
:104400006368B9F816005E682661FDF75FFB3080CF
:10441000B9F818002669FDF759FB708050462669E7
:10442000FDF757FB7060A808053048EA00302669A0
:10443000FDF74CFB2369B0819F74DF74C9E7143129
:104440002DE9F04189B20646174622204FF420722A
:104450009846FDF747FE0546F8B144684046FDF72B
:1044600035FB2080BDF81800FDF730FB67606080E9
:104470003046FDF72EFBA0609DF81C0040F4A040E4
:10448000FDF724FBA081BDF82000FDF71FFB0023F2
:10449000E08123746374A374E3742846BDE8F0815B
:1044A0001FB5C38A0446408D029010200190208BD6
:1044B0000090606AFFF7C3FF18B1628D636A13440E
:1044C000E36204B010BD2DE9F0430E4685B090467E
:1044D0001F46044670B1007A60B1FDF737FD05460E
:1044E00048BB6FF003043046FDF7D1FD204605B010
:1044F000BDE8F0833846FDF71BF805460028F0D0EC
:1045000032890097434606213046D6F80490FDF7DD
:1045100044FBA9F8100064B1E37AA47A062202955C
:10452000CDE9004241463A463046FDF7D0F904460F
:10453000D9E7FF23F2E73289009743460621304648
:10454000D6F80490FDF729FBA9F81000E4E72DE95F
:10455000F04F91B00A93002307910592ADF83A30DD
:10456000ADF83C308DF838300646002800F02E8239
:10457000438E0993B0F86230099A5B08934228BFD2
:104580001346002B18BF1A460992002900F01E821C
:10459000037D072B03D0023B022B00F21A82059BFE
:1045A0008BB1B6F86430059A934208D2738B43F00E
:1045B000800373834FF0FF3011B0BDE8F08FB6F881
:1045C0006630072BF2D8B6F86630F56E06932C46A7
:1045D000002D00F07B8123680493C3B9099B2789D0
:1045E000DA1B637B9B0003F00403D31A1FFA83F9E1
:1045F000B6F868306BB9049BADF83A30059B002BD8
:1046000061D11D46BDF83A30A6F8683059E1049CE6
:10461000E1E7059A25469A4228BF1A464A45904640
:10462000A8BFC8461FFA88F8A3EB0803ADF83A30D4
:10463000A9EB08031FFA83F9059B434540F2CC819F
:10464000B9F1000F00F04881002F00F04981059B6F
:10465000A3EB08074F45A8BF4F460A9BBFB2DB0735
:1046600035D5012302930A9B4A46CDE900633946BA
:104670000DF13A030020FFF770FE8246002800F09B
:10468000A281079B3A4603EB08014068FDF707FB50
:104690000EAB0FAA3946FFF74FFE5046FDF7E5FD7A
:1046A0004FF00009069B03449BB20693254607EB97
:1046B000080B1FFA8BFB002304930B930A9B03F058
:1046C00001030C93D5E0DDF810804546B8E7636838
:1046D000D3F800A0BAF1000F2BD11A7B12F0C00F53
:1046E00005D15A895B681344079A9A4223D0012264
:1046F00039460020FDF7F6FC8246002800F0638171
:10470000079B4FF0000943444360FDF7AEFD069B55
:1047100003449BB20693079B394603EB0800FDF761
:1047200096FAC0430EAB0FAA394680B2FFF704FEDB
:10473000BCE75346CCE7B946EDE7059B099AA3EBE6
:104740000B039BB2934228BF13469BB208934FF0D2
:104750000003ADF83E308DF839300C9B4BB3049B11
:104760000899B3FA83F35B0902930A9B3620CDE9DB
:1047700000630DF13A03FFF7F0FD0546002843D032
:10478000DDE90732406803EB0B01FDF788FA0DF114
:1047900039030DF13E020899FFF7CEFD2846FDF7DB
:1047A00064FD069B03449BB2082B069342D928461E
:1047B00028E0012208993620FDF794FC0D9018B3EB
:1047C000079B089903EB0B052846FDF740FAC04309
:1047D000089B80B213F0010FADF83E000D9B05D091
:1047E000012240BA8DF83920ADF83E005D604FF4EB
:1047F0002072002136200D93FDF774FC0D9B0546B9
:10480000A0B91846FDF743FC738B43F08003738314
:10481000BAF1000F02D05046FDF739FC049B002B83
:104820003FF4C8AE1846FDF7C6FEC3E61946FDF7CD
:1048300031FDB3E70022F36D294600925B44304618
:10484000FFF7B4FD05460028DED0BDF83E304381B9
:104850009DF839300373437B43F004034373049B97
:10486000002B31D00B9B1860089B0B959B441FFAC3
:104870008BFB059B9B45FFF460AFB8F1000F0ED09A
:1048800004F10C030893D4F804B004F10A0309936B
:10489000BBF1000F28D123899844A4F80880BDF803
:1048A0003A30A6F86830BAF1000F3FD05146606840
:1048B000FDF7F0FC2389BAF8082013442381002F68
:1048C00047D1049B236060E00490CDE72F46A946C2
:1048D000A846AB46AA46EEE64F46C346CA46EAE6B7
:1048E000B946C346BA46E6E6BBF808304344ABF8DF
:1048F0000830DBF80030B3B9BBF80A30DBF804004D
:10490000424607991844FDF7CAF9DDE908324146E5
:10491000FFF712FD637B43F004036373BBF80A30B7
:104920004344ABF80A30DBF800B0B1E7B9F1000F4F
:104930000ED063681A8919684A4492B21A8129B95B
:104940005A894A445A8123894B44B7E70B46F1E719
:10495000BFB19DF8383033B1BDF83C20130A43EAAB
:104960000223ADF83C3004F10C0304F10A0239468D
:10497000BDF83C00FFF7E0FC637B43F00403637386
:104980009FE7002C9DD1049BF366F36D059A1344B9
:10499000F365B6F864309B1AA6F86430069BA6F857
:1049A000663075B1286900283FF406AE0A9B13F003
:1049B000020606D184890820FDF788F82B69204378
:1049C00098810020F8E54FF0000A1DE76FF00F0016
:1049D000F2E56FF00A00EFE5B8F1000F3FF412AE18
:1049E000049FB946BA464BE700232DE9F04FC46E49
:1049F00085B007468A46ADF80E308DF80D3014B9F3
:104A00004FF0FF3006E0002900F0C88025898D4274
:104A100003D8002005B0BDE8F08F94F80DB06D1AF2
:104A20000BF0FB0B4FEA8B0606F00406ADB2A9199A
:104A30004FF4207289B23620FDF754FB81460028DE
:104A4000DED0606822890389D9F804109B1A534488
:104A50009BB22A463144FDF779FCA84240F0A18080
:104A6000D9F8040029463044FDF7F1F8C0430DF1B0
:104A70000E0229460DF10D0380B2FFF75DFC23699C
:104A80009889FDF723F8C6B216F0080816BF4FF054
:104A9000080806F03F0606F03706F307236948BF0B
:104AA00048F00108586848BF06F0FE06FDF711F807
:104AB00042460AEB0003CDF800B049463846FFF7FE
:104AC00075FC804600286CD0BDF80E3043819DF8FF
:104AD0000D300373437B43F0040343736068FDF7B9
:104AE000C4FBB7F86630181AA7F866006068018939
:104AF000491B89B2FDF77AFB238930465D1B236988
:104B000025819D89FCF7E2FF23692843988160682D
:104B1000FDF7ABFBB7F86630656818440023A7F8CB
:104B2000660023732E8921896381761AB6B269895A
:104B3000B14218D304F10C0A04F10A0969896868C2
:104B4000891B89B23044FDF782F8C0436989534616
:104B5000891B4A4689B280B2FFF7EEFB2D6800261A
:104B6000002DEBD104E02D68761AB6B2002DDED10F
:104B7000D8F80400FDF779FBB7F8663018442368CD
:104B8000A7F86600C8F80030C4F80080D8F8000024
:104B900000287FF43EAFA7F868003BE76FF0050000
:104BA00038E74846FDF773FA2AE773B5C1F34006C4
:104BB00004460D464FF42072B1003620FDF792FAFC
:104BC000014638B94FF0FF30638B43F080036383B5
:104BD00002B070BD0096E36D2A462046FFF7E6FB63
:104BE0000028EFD0E36ED3B9E0660023AA07A4F84B
:104BF000683018BFE36D40681CBF0133E365EB0705
:104C000042BF638B43F020036383FDF72EFBB4F8B0
:104C100066301844A4F866000020D9E713461A68E5
:104C2000002AFBD11860E0E7F8B5C46E054634B938
:104C30002846BDE8F8400121FFF7B7BF1C462368AE
:104C4000002BFBD123699889FCF740FF10F0070780
:104C5000EED1236901209E89FCF738FF2369304398
:104C600098816B8B384643F020036B83F8BD036F4C
:104C70002DE9F04105463BB31E46D6E90042927B42
:104C8000FCB9012A20D1EA6E3260C5E91B346B8B76
:104C900043F400636B8333695868FCF71AFF336988
:104CA00007469889B6F80880FCF710FF10F003005B
:104CB00018BF012047443844E86420466C63BDE8CF
:104CC000F081012A2646D8D06FF00500F7E7F8B545
:104CD000056F044645B36B689B7B012B24D12B6881
:104CE00000F16C060367336883B933682B60356065
:104CF0002B680BB9A4F86830002094F84230606348
:104D0000FF2B1CBF013384F84230F8BD1B69586883
:104D1000FCF7DFFE2B6907465868FCF7DAFE381A05
:104D20000028E2DA3668DEE76FF00500EDE7036F92
:104D300010B5044613B3438B5B071FD4FFF7C7FFBF
:104D4000E0B9B4F86020B4F84830934238BF5A084C
:104D5000638E28BF520859008A42A4F84A2038BFFF
:104D6000A4F84A10B4F84A200B441344A4F848307D
:104D7000638B43F0040363830023238610BD2DE976
:104D8000F043044685B0084617461D46BDF83480FA
:104D9000BDF838900C9EFCF79CFE142346F20802E6
:104DA0000021CDE90132CDF8009002464346384655
:104DB000FFF745FB014638B133462A46204605B089
:104DC000BDE8F043FFF77FBB05B0BDE8F08310B549
:104DD0000446006DFCF77DFE002102462046FFF7E9
:104DE0005FFB014630B96FF00100638B43F00303B2
:104DF000638310BD231D22462046FFF764FB638BAF
:104E000018B143F003036383F3E723F00303FAE7E6
:104E10002DE9F04F894B87B01B680446834200F0B0
:104E20005B81B0F86080B0F84830C56E984528BF07
:104E3000984645B9438B990740F14A8107B0BDE8D0
:104E4000F04FFFF7C4BF00F1040B007A40B3FDF749
:104E50007DF88146002800F0578123680BB943682C
:104E600023602B695868FCF734FE2B89626C9B1A0F
:104E70001844404518D9B4F8603043450AD1236F2F
:104E800043B994F899302BB94FF4807284F89A3072
:104E9000A4F89820638B9A0740F11A812046CDE749
:104EA0005846FCF745FBD4E70023266F84F8993079
:104EB0001EB94FF0000ADBE01E463368002BFBD121
:104EC000F7E7237D022B07D02B6910209F89FCF781
:104ED000FDFD2B69384398816B689B7B012B7AD150
:104EE000606A2F69FCF7F5FDB860608D2F69FCF7EB
:104EF000EDFD628D636AF8811344E3626B7BDB072F
:104F00000BD55A4649464FF406702F69FDF792FBC0
:104F100040F00170FCF7DDFD7861B4F93030002B12
:104F2000636BB8BFA4F830A03BB9454A2B6912683F
:104F300062635868FCF7CDFDA0636F682B697A68DF
:104F400079899A1A92B2891A798139897B608A1A89
:104F500092B23A81059283F810A083F811A0988943
:104F6000FCF7B4FD830ACDE9004B384603F0FC039F
:104F7000059A0621FCF769FE2F7B3FB101276A895C
:104F800085F80CA0130A43EA02236B81C0436A89A7
:104F900080B2104400EB1040C04306222B6921462A
:104FA00018820192A27ACDF808900092E37A5A46CC
:104FB0006868FCF78CFC37B16A89130A43EA02235C
:104FC0006B8101232B7330B1638B43F080036383C8
:104FD00007B0BDE8F08F2B68E366237D022B1EBF70
:104FE000638B23F0030363832B695868FCF771FD1F
:104FF0002B892A69059307469089FCF767FD10F015
:10500000030018BF0120059B3B441844236D2F89E2
:105010001B1A002B2B69B8BF20659889FCF756FD39
:1050200010F0030018BF0120F84269D0236FC5F8C3
:1050300000A03BB925672E4618E000BFE04D0010E8
:10504000D04D00102B695868FCF743FD33690746C3
:105050005868FCF73EFD381A00284FDA04F1700357
:105060001A68002A3AD11A682A601D60E56E5DB39D
:105070002B695868FCF72DFD636CC01A2B89184406
:10508000404521D8236F002B3FF41BAF628B12F0F9
:10509000440F7FF416AFE36E43B1196800297FF423
:1050A00010AF1989638E9942BFF40BAFB4F8643026
:1050B000002B3FF406AFB4F86630072B3FF601AF84
:1050C00012F0A00F7FF4FDAEE36E0BB9A4F86830C8
:1050D000638B23F080036383002079E712690593D3
:1050E0005068FCF7F6FC2A6907465068FCF7F1FCAB
:1050F000381A0028059BB6DA1B68B1E735609AE7D5
:105100002846FDF74AFAB1E76FF0030060E700BFF9
:1051100090F84230FF2B1CBF013380F84230FFF77C
:1051200077BE10B50446FFF7A2FD20B92046BDE8C2
:105130001040FFF7EDBF10BD10B50446006D0138FB
:10514000FCF7C7FC002102462046FFF7A9F90146FB
:1051500030B1231D22462046BDE81040FFF7B3B909
:105160004FF0FF3010BD2DE9F041C46E0646002C13
:1051700045D090F89A30FF2B1CBF013380F89A304D
:1051800023699889FCF7A2FC10F0010518BF258956
:1051900023691CBFB5FA85F56D095A6885F00101D0
:1051A0003046FFF77DF9074660B3D0F80480DDB1E3
:1051B0001120B8F90C50FCF789FC25F47C552843E4
:1051C000A8F80C0023695868FCF783FC336D0130A4
:1051D0001B1A002BB8BF3065331D324639463046A6
:1051E000BDE8F041FFF76FB960682289038908F1D3
:1051F00014019B1A9BB20122FDF7A8F8E2E72046B2
:10520000BDE8F0814FF0FF30FAE7000070B50446CA
:1052100009200E461546FCF77FFD40B100230C4ADD
:1052200003601368C0E9026544600BB9106070BD8B
:105230005968611A002902DA0360F7E713461A6811
:105240001AB15168611A0029F8DA02601860EEE7B5
:105250003C03001038B504464368984701F0CCF889
:10526000074B25681B6807492B441A1A002AB8BF48
:1052700040192246A8BF1846BDE83840FFF7C6BF10
:10528000380300105552000070B504460D4616460E
:1052900001F0B2F8324629462044BDE87040FFF7DD
:1052A000B5BF0000084B1A6862B9084A126812B903
:1052B000074A126832B1012206491A60FA20002218
:1052C000FFF7E2BF704700BF40030010CC4D001055
:1052D000DC4D0010D952000008B5FDF70BFF084B5C
:1052E0001B6813B9074B1B6833B1BDE808400022A7
:1052F0000549FA20FFF7C8BF044A136008BD00BF84
:10530000CC4D0010DC4D0010D952000040030010BD
:1053100038B5084D084C05F1080221464FF47A7063
:10532000FFF7B2FF05F110022146BDE838406420C6
:10533000FFF7AABFBC9D0000555200002DE9F041C7
:1053400001F05AF807460C4DDFF83080296889B122
:105350004B68FA1A002A0DDBD1E902460A680920D7
:105360002A60C8F80030FCF7E3FC002CEED0304691
:10537000A047EBE7BDE8F0813C03001038030010C4
:1053800010B5074C23683BB101F036F823685B6821
:10539000181A48BF002010BD4FF0FF30FBE700BFD8
:1053A0003C03001008B504F0C5FB6FEA80406FEACB
:1053B0009040014B188008BD120000102DE9F04FFD
:1053C000438985B0072B0546884605D8284605B091
:1053D000BDE8F04FFCF75BBE544C4668216860693D
:1053E000FCF797FA07463088FCF770FB8146708817
:1053F000FCF76CFB4E4BD4F804B0D3F800C0D4E9F2
:10540000043200240393864663460294E3B91CB930
:10541000D8F804309342D9D1F388002B65D1082104
:105420002846FCF716FE0028D0D1002C68D0266A4A
:10543000002ECBD0CDF800903E4B2A462146606A24
:10544000B04705B0BDE8F08F598A714543D193F854
:1054500008A0BAF1000F05D09BF834100131C9B291
:105460008A4538D1002F31D0597A890633D5196849
:1054700041B1501C06D081EA020AD8F808101AEA95
:10548000010F28D1197C48070DD4002C2BD02FB345
:10549000511C23D1D8F804102068884203D0186822
:1054A000814208BF1C46998A494514D1596811B1F7
:1054B000039881420FD1029A32B1DA680299CA6028
:1054C0001B4AC3F80CC013601C46A5E719680029E5
:1054D000D8D09142D6D00293DB6897E719680029AB
:1054E00018BF1C46DFE71C46DDE7134B2A890093F3
:1054F0001121043B2846FCF750FB00288FD065E7BC
:10550000002F7FF463AF094A536903F0F003E02BE7
:105510003FF45CAF91892846083109B2FCF7AFFD32
:1055200003212846FBF7A6FD50E700BFA44D00105D
:10553000E44D0010B44D0010B84D00102D4B2DE976
:10554000F041002908BF1946002850D02A4F3E6874
:105550003546DDB9002A48D14FF480444FF6FF7E2E
:10556000264B1A88724508BF4FF44042B4461CBF10
:10557000013292B2BCF1000F0ED11A800B68428248
:1055800003600DB9C6603860002010E0854201D08C
:10559000ED68DEE70125DDE7BCF81280904508D113
:1055A000013CA4B2002CDDD11A806FF00700BDE8E9
:1055B000F081DCF80CC0DDE7834212D0447A640746
:1055C00002D55C7A64070CD45C8A944209D1D1F884
:1055D00000C01C686445E8D0BCF1000FE5D0002C89
:1055E000E3D0DB68002BE7D1C8E73346FAE76FF07A
:1055F0000F00DCE7449D0000E44D00101200001095
:105600002DE9F04F85B00E4617469B469DF83CA00D
:10561000DDF844900546002800F0A480002900F041
:10562000A180002A00F09E80B9F1000F00F09A805E
:105630000E9B002B00F09680437A99060BD56A8A60
:1056400092B929462846FFF779FF804660B1404667
:1056500005B0BDE8F08F0E991068FCF75AF90028E4
:10566000EDD06FF00508F2E74FF6F77332899A42F2
:1056700002D94FF0FF38EAE708213046FCF7E6FC94
:10568000002866D04FF4207208212220FCF72AFD62
:1056900004460028EDD0338913B13146FCF709FEEA
:1056A000688AD4F80480FCF711FAA8F8000058467C
:1056B000FCF70CFA0023A8F8020088F8063088F8F6
:1056C00007302B7C1A0708D53B6803F0F003E02B6A
:1056D00002BF637B43F0040363732089FCF7F6F990
:1056E000A8F804002B7CDB071AD42289BAF1000F3A
:1056F00031D00823CDE9009711212046FCF7A5FA07
:10570000BDF84030DB439BB2034498B200EB13403A
:1057100080B24FF6FF73002808BF1846A8F80600AD
:105720003B680E9A03F0F003E02B0CBF6B7FEB7A23
:10573000029211220192AA7A4946009220463A46E4
:10574000FCF7D6F8B442804681D02046FCF79FFC97
:105750007DE73446A4E700974B4611212046FCF72D
:105760001CFAD6E76FF00F0871E77FB5089CD0B13F
:10577000C9B1C2B1BCB105681DB105F0F006E02E9B
:105780000CD1251D0395BDF8285002959DF8245095
:10579000CDE90045FFF734FF04B070BD6668B5423F
:1057A00004D10546EEE76FF00F00F5E76FF0030058
:1057B000F2E70000F0B50E4685B015461F460446D8
:1057C00098B391B38AB3007A28B1FCF7BFFB88B9CC
:1057D0006FF003001BE0136803F0F003E02B03D02D
:1057E0002846FBF7A5FEF2E7207F90B1FCF7AEFB61
:1057F0000028F5D0BDF82C302A4602939DF82830B9
:105800003146CDE900033B462046FFF7AEFF05B029
:10581000F0BDA369002BE3D0054A12689342DFD0A4
:1058200004F11800FBF784FEE2E76FF00F00EEE7EB
:10583000489D000073B51D4640B139B1838ACDE95A
:105840000025021DFFF7B6FF02B070BD6FF00F001C
:10585000FAE721B191F834300133037270470172D5
:105860007047000070B50D4616460446D0B1C9B168
:10587000428A6AB12B68A6826360237C43F00403EA
:1058800023740B4B1A68104640B9E2601C6004E0B8
:105890000146FFF753FE0028ECD070BDA04204D0B3
:1058A000C068F1E76FF00F00F7E70020F5E700BFF1
:1058B000E44D001038B10023436083820372037CFF
:1058C00023F004030374704708B1C0E9081270475D
:1058D000014698B10A4A1368834205D1C368136030
:1058E0000020FCF725BA1346002BF9D0DA68002A0D
:1058F000F6D08A42F7D1CA68DA60F1E7704700BF94
:10590000E44D001010B50020FCF706FA044630B153
:105910002822002104F060F8FF23E3726377204619
:1059200010BDFFF7EFBF000010B538B103682BB111
:1059300021B10B6813B1064B1B6803B910BD1C687D
:105940000268944204BF0A681A60DB68F5E700BF8A
:10595000E44D001090F8853010B503F11A0240F8BC
:1059600022104A8900EBC304013AC2F30A0242F052
:10597000004262624A684FF0A04122624FF0FF325B
:1059800040F83320626090F884200133013A80F8B7
:105990008420D1F81021DBB2D2B29A4238BF002362
:1059A00080F88530C1F8183110BD2DE9F0478846E0
:1059B000C5690846FCF759FC4646002747F6FF72C2
:1059C00016BB002F62D030464FF42072B8F8081092
:1059D000FCF788FB0646002800F091804446D0F88A
:1059E000049062896168484603F0EBFF638924688C
:1059F0009944002CF5D10124B8F8083073814FF098
:105A0000A04805F190091BE0736803F17041B1F5FE
:105A1000004F0FD303F1604303F58031B1F5005F10
:105A200008D3A3F5F823934294BF002301231F4416
:105A30003668C5E70023FAE70021484600F096FCE7
:105A4000D8F82C11D8F82821C9B2D2B2914220D06E
:105A50008BBF01F1FF33931C9B1A5B1ADBB29C4294
:105A6000EAD84FF0A04305F19409D3F8283148460D
:105A70005FFA83F800F0A6FC17B93046FCF7FDFB8F
:105A80004FF0A04731460020BC4630E0C4B2464645
:105A9000B5E70323E3E74B89013C013B14F0FF0426
:105AA000C3F30A0308F1090205EBC20A0BBF43F076
:105AB000404343F00043CAF80830CAF808304B6846
:105AC00008F11E0E05EBC2020CBF45F82E6045F82A
:105AD0002E005360D7F8243108F101085FFA88F8E6
:105AE000984588BF4FF000080968CCF82881002C41
