:100000000080001085010000890100008B010000C4
:10001000A1010000A3010000B901000000000000E0
:100020000000000000000000000000006147000028
:10003000D101000000000000C14700000548000099
:10004000E9010000E9010000E9010000E901000008
:10005000E9010000D5610000E9010000E9010000AC
:10006000E9010000E9010000E9010000E9010000E8
:10007000E9010000E9010000E9010000E9010000D8
:10008000E9010000E9010000E9010000E9010000C8
:10009000E9010000E9010000E9010000E9010000B8
:1000A000E9010000E9010000E9010000E9010000A8
:1000B000A1300000E9010000E9010000E9010000B1
:1000C000E9010000E9010000E901000007B500F0C6
:1000D000DDFB214A214B22498B4226D30021214BB3
:1000E000214A934226D300F0DDFB01A9684600F0C7
:1000F000B9F800251D4E1E4CA41BA410AC421CDCFC
:1001000000251C4E1C4CA41BA410AC421ADCDDE9DB
:10011000000105F083FF0646184D194C641BA4101E
:10012000002C14DC304600F07BF852F8040F43F842
:10013000040BD1E743F8041BD3E756F82530984762
:100140000135DBE756F8253098470135DDE7013CFE
:1001500055F824309847E3E7F47B000000000010D6
:100160006002001060020010D84E0010140200005F
:100170001402000014020000140200001402000027
:100180001402000014480047FEE71EF0040F0CBFE5
:10019000EFF30880EFF309807146104A1047FEE73D
:1001A000FEE71EF0040F0CBFEFF30880EFF30980A9
:1001B00071460B4A1047FEE71EF0040F0CBFEFF329
:1001C0000880EFF309807146064A1047FEE7FEE714
:1001D000FEE7FEE770470000CD0000009F01000031
:0A01E000B7010000CD010000FEE7AA
:1001EC00F87B00000000001060020010F87B00009B
:1001FC0000C0072000C0072060020010D84E00107D
:08020C0000C0072000C007201C
:1002200008B500F041FB00000B4A08B51168034611
:1002300009B90A4911601068033323F00303084920
:1002400003448B4206D906F073F90C2303604FF088
:10025000FF3008BD1360FCE760020010D84E0010AC
:100260000078001001230360014B0B60704700BF52
:1002700000000010064B1F2892BFD3F8A831D3F816
:10028000AC31203823FA00F000F00300704700BFC3
:1002900000C00F4008B5064B1A68FFF7EBFF28B106
:1002A000032808BF0820B2FBF0F008BD0420FAE7DD
:1002B0000C000010012908D1094B0A4AD3F8C410D8
:1002C00002400A43C3F8C420704741B9044A054BB1
:1002D000D2F8C4100B4023EA0003C2F8C4307047C0
:1002E00000C00F40DEF7EFEF030B0F2B84BFC00BF6
:1002F00000F10E0318467047322300B58BB0CDE9EC
:100300000030054B029168461B6805A998479DF887
:1003100014000BB05DF804FB0800001070B58AB043
:100320000D4606461446FFF7DFFF0146FFF7E4FFE0
:1003300090B933234FF47A72CDE90036074B684603
:100340001B68CDE90254B3FBF2F30493044B05A9F7
:100350001B6898479DF814000AB070BD0C0000108F
:100360000800001030B58BB005460C46FFF7C4FFFF
:1003700088B934234FF47A72CDE90035074B6846CB
:100380001B680294B3FBF2F30393054B05A91B68AA
:1003900098479DF814000BB030BD00BF0C00001052
:1003A000080000103A2310B58AB004460AA840F8A5
:1003B000283D094B05A91B689847059840B93CB1F1
:1003C000069B2360079B6360089BA360099BE36017
:1003D000C0B20AB010BD00BF08000010382300B53D
:1003E0008BB0CDE90030064BCDE9021268461B68A0
:1003F00005A998479DF814000BB05DF804FB00BFF9
:1004000008000010F0B5477803233A460F2F88BF45
:10041000A7F110024FEA420203FA02F36FEA030364
:10042000047890F802C04FEA440588BF0135A9005E
:1004300001F1804101F530310E680CFA02FC1E40DA
:1004400046EA0C060E600C4E56F825100B40C1789B
:1004500001FA02F21343012246F8253002FA07F7A7
:10046000064B0279012A53F824200CBF174322EAD5
:10047000070743F82470F0BD40C0024068C0024046
:100480002DE9F04F9C4B8BB0984204468B461ED111
:1004900001210820FFF70EFF072323720023237298
:1004A000237DDA0700F1DB80802384F83030237D60
:1004B0009B06FCD5002384F83030636023732362ED
:1004C000227D8E4A944208BF84F8243026E08C4B6B
:1004D000984240F0BB8001211020FFF7EBFE07237C
:1004E00023720023224623722346117DC80700F1A0
:1004F000B480802182F830101A7D9106FCD500224C
:1005000083F830205A601A731A621A7483F84C20E8
:1005100083F8542083F850201A7E1B7D764BDBF83D
:1005200000709C4240F09D800620FFF7B3FE064617
:100530003309039333070293DDE90223CDE9042352
:100540004FF0FF330025099300220023A9464FF006
:10055000010ACDE9002307974FF00008079B089395
:10056000089A0023DDE9040105F05CFE0A46B0F1BB
:10057000004F88BF4A1C02F1FF31034688BF434247
:10058000B1F5803F0BD209998B4208D21046002169
:10059000CDE90001002B75D05546C1460993089B53
:1005A00008F101083B44D0450893D9D1079BDDE908
:1005B00004013B4408F1010A0793DDE90223121804
:1005C0004B41BAF1100FCDE90423C5D1DDE9002379
:1005D000134361D0009B09EB0501A1FB0323300904
:1005E000019E684301FB0633002105F01BFE6423D6
:1005F00087428CBF381AC01B5843B0FBF7F7022F55
:100600004AD8009B9DF80020C3F307213C4B2D01E5
:100610009C42237B43F08003237321712270237B50
:1006200003F07F03237330D1EDB245EA0905A562DB
:10063000334B1B7B9BF8052003F0C003012A2FD00E
:1006400030D3022A46D043F003032BE02D4B9842CF
:1006500049D101214FF080701CE7117845E72378DC
:100660001EE7274B9C4201D108205EE7254B9C42A8
:1006700001D1302059E7214B9C4201D1322054E76F
:10068000002655E7C1465546A4E745EA0905EDB2FF
:1006900084F82850237BCDE7194B9C42FAD1C7E759
:1006A00043F001039BF804204AB1032A15D0042A21
:1006B00016D0022A14BF43F0080343F018039BF836
:1006C0000620012A08BF43F00403DBB223730BB0FA
:1006D000BDE8F08F43F00203E4E743F02803EEE7C0
:1006E00043F03803EBE7054B98427FF4D5AE012188
:1006F0004FF00070CEE600BF00C0004000C00940CF
:10070000000001400080094001707047F8B50446C0
:100710000B4600201E460546C2B14FF0FF3101E0F6
:10072000A1B10139277DBF06FAD579B103F11007D0
:1007300013F8011B2046FFF7E7FF5819BB4202F1EF
:10074000FF32A0EB0600E5D0002AF1D1F8BD007819
:10075000C0B27047012BF8B506460C46154603D1CA
:10076000BDE8F840FFF7D2BF0020224603469DB106
:10077000317D890610D504F1100714F8011B3046AD
:10078000FFF7C2FFBC4204EB030005F1FF35A0EB0D
:100790000200EAD0002DF0D1F8BD012B70B50A445B
:1007A00004460B4617D09342A3EB010017D0257DDA
:1007B000ED0714D52046FFF7CAFF03F8010BF2E757
:1007C0006DB1013D267DF607FAD545B12046FFF70C
:1007D000BEFF03F8010B9342A3EB010000D170BDF3
:1007E0004FF0FF35EEE70000062996BF0B4B0023C4
:1007F00033F81130012A0A4A03D142681343436097
:100800007047DB43904242680CBF22F0700222F036
:10081000F8029205920D1340436070474078000043
:1008200000000140007DC0B27047806820F03000B9
:100830008005800D70470000CB78022B8EBFC1234E
:10084000094AD35C4A78012A0A7808BF43F00403B6
:10085000012A8A7808BF43F00203012A08BF43F047
:1008600008030372704700BF4E780000012906D1CB
:1008700090F8303043F0800380F830307047002328
:1008800090F8302080F830307047000008B500F054
:1008900085F8024A024B9A6008BD00BF00000000C4
:1008A00000ED00E000F012B8BFF34F8F0549064B92
:1008B000CA6802F4E0621343CB60BFF34F8F00BFFE
:1008C000FDE700BF00ED00E00400FA0538B52D4B50
:1008D0002D4CD3F88820C2F30162032AD3F80C21EF
:1008E00002F003023BD1012A1AD0022A27D0D3F802
:1008F0008810D3F88820D3F804510023C1F30E01E7
:10090000C2F30742214801310132A1FB000105F089
:1009100089FCEAB20132002305F084FC206038BD76
:10092000D3F88810D3F88820C1F30E01C2F3074230
:10093000D3F804510131013200231548E5E7D3F81B
:100940008800D3F88820D3F804510023C0F30E00A8
:100950000130C2F30742013200041946D7E7D3F849
:100960000431012ADBB203F1010306D0022A06D0CA
:10097000084AB2FBF3F32360D1E7074AF9E74FF4E3
:100980000042F6E700C00F400C00001000127A0091
:1009900000366E0100093D00001BB7002022374BD6
:1009A000C3F8A021D3F8A021910603D5D3F8A02144
:1009B0005206FBD50322C3F8042100220120C3F80C
:1009C000A821C3F8AC212E4AC3F80C01AA21C3F810
:1009D00084205522C3F88C10C3F88C20C3F8800003
:1009E000C3F88C10C3F88C20244A1346D2F8881020
:1009F0004801FBD50321C2F88010AA21C2F88C104F
:100A00005521C2F88C10D3F8882002F04072B2F160
:100A1000407FF8D12322AA21C3F8A4200120552227
:100A2000C3F8AC10C3F8AC20C3F8A000C3F8AC10F6
:100A3000C3F8AC20114A1346D2F8A8104905FBD5DB
:100A40000321C2F8A010AA21C2F8AC105521C2F8A7
:100A5000AC10D3F8A82002F44072B2F5407FF8D170
:100A6000084AC3F8C4200022C3F8C8211A6822F437
:100A7000704242F480421A60704700BF00C00F40CD
:100A800063000500DE872804438970B50E2B0446F9
:100A90000D461AD9C37B1BB991F834300133C373A7
:100AA000606803788689D9070AD5012B11D143786C
:100AB00033B983785E2B03D1637B43F010036373F8
:100AC000082E10D0B6F5C16F1DD0204601F08BFB6B
:100AD00017E00622134905F065FD0028F0D1637B7D
:100AE00043F00803EBE795F831301A07EDD50E21F6
:100AF000204601F05AFB0028E7D12946204600F0A5
:100B00002BFE002070BD95F831301B07DDD50E217E
:100B1000204601F04AFB0028D7D12946204600F0A4
:100B2000F7F8EEE7517800002DE9F0470646BDF8EA
:100B300020000C461746984601F0A0F80E21814689
:100B4000204601F02FFB90B965684146A5F80C904E
:100B50000622284605F035FD06223946A81805F07C
:100B600030FDB36921463046BDE8F04718476FF0C5
:100B70000100BDE8F087000070B518264643074C19
:100B80000546A05918B101F02EFB0023A3511823EC
:100B900003FB05440023237570BD00BF68020010ED
:100BA0002DE9F74F4FF00A0C0191002106469046BF
:100BB00089468B4663466546E6462F4C00910A2BD4
:100BC00008B294F814A019D1BAF1000F4CD04EB16C
:100BD00067683268BA4205D1B8F1000F37D0A7680C
:100BE000474534D0BAF1010F678A38D122688AB3F9
:100BF000009A974205D30097844602E0BAF1000FAD
:100C0000E5D101310A2904F11804D8D1019A012A49
:100C10002ED10A2B0CD10A2D06D1BEF10A0F25D1F7
:100C2000BCF10A0F24D065462846FFF7A5FF2B46E6
:100C3000114826B1182101FB030132684A601822CD
:100C4000002102FB030218465182C2F8088003B05B
:100C5000BDE8F08F5F45D4D3BB468646D1E74F450C
:100C6000CFD3B9460546CCE70346CAE77546DBE76E
:100C70004FF0FF30EBE700BF680200102DE9F743AB
:100C80000746884691461C214FF420720E201D46CF
:100C900001F0D4FA0646C0B34468BDF8340000F051
:100CA000EDFF2946E080062204F1080005F089FCEA
:100CB00006220B9904F1120005F083FC04220A9924
:100CC00004F10E0005F07DFC04220C9904F11800DB
:100CD00005F077FC012363700823A37006232371BA
:100CE00004230025637140F606032570E570424633
:100CF000009331464B463846FFF716FF304601F069
:100D000072FA284603B0BDE8F0834FF0FF30F9E7F0
:100D10002DE9F04F824689B00C4681B14668338890
:100D2000B3F5807F08D13379062B05D17579042D71
:100D300002D17388082B05D0504601F054FA09B04F
:100D4000BDE8F08F2A4606F10E0106A805F039FC31
:100D50002A4606F1180107A805F033FC656806F17C
:100D600008081DB1079B9D4253D000250227069815
:100D7000002839D0214600F0A4FE0590A0BB069AB9
:100D800002F0F002E02A2FD02246394606A8FFF7EB
:100D900007FF002828DB182702224743DFF8789056
:100DA00007F10C0009EB070B8BF81420CBF8084077
:100DB00006224146484405F004FC059BABF812307E
:100DC00059F807B0BBF1000F0ED049F807304FF4C7
:100DD000006304F12A020093594643462046FFF778
:100DE000A3FE584601F0FFF9F388B3F5807FA3D145
:100DF000002DA1D00222039206AA04F12A03CDE914
:100E00000182221D0092194642462046FFF736FF16
:100E100092E701252F46AAE7680200101FB50124BA
:100E20000246CDE90214064900F12A030432019179
:100E300000921946034AFFF721FF04B010BD00BF1E
:100E400057780000517800002DE9F0410025022676
:100E50000427144CA4F10408227B6AB1638901338E
:100E60009BB2B3F5967F638103D2012A0BD1042B89
:100E70000DD92846FFF780FE01350A2D04F118042C
:100E8000EAD1BDE8F081032A08D12773F4E71821DD
:100E9000206801FB0581FFF7C1FFEDE7042AEBD1D4
:100EA0002673E9E7700200102DE9FF410F46182173
:100EB0004A431A4902F10C048D182B7D0646022B79
:100EC0000C4400F12A080AD16B8AB3F58E7F12D93F
:100ED00004321144FFF7A2FF08B903232B754FF426
:100EE000006342460093394623463046FFF71CFE16
:100EF00004B0BDE8F081B3F5877FF0D301230393FD
:100F0000074B04320A440193031D029200932246C8
:100F100043464146FFF7B2FEDEE700BF680200101D
:100F2000577800002DE9F3410E4607460146306828
:100F3000144600F0C6FD002854D1336803F0F002D7
:100F4000E02A4FD0002B4DD03A4601213046FFF722
:100F500027FE002803DA40B202B0BDE8F081182372
:100F6000284D5FFA80F803FB08531A7DC2B1D4B153
:100F70004FF0FF30182303FB08F3EA18127D012A13
:100F800018D9214A0C3382F800804FF400622B44B8
:100F90000092214607F12A023846FFF7C5FDDBE73C
:100FA00001229F601A7531463846FFF737FF002C43
:100FB000E0D1D1E7D0D123461A7B520615D41B6865
:100FC000002BF9D1204601F0D6F9182303FB08F2D3
:100FD000A8581E4608B101F006F906FB08F30020E8
:100FE000EC50B9E76FF00F00B6E722464FF42071DE
:100FF0000E2001F057FA04460028E6D14FF0FF30EA
:10100000AAE700BF6802001058030010F0B50446BC
:1010100085B00E4601461068154600F052FD0028C6
:1010200061D12B6803F0F002E02A1BD10123ADF857
:1010300008305E238DF80A306B7803F07F038DF85B
:101040000B30AB788DF80C30EB788DF80D3002ABAF
:101050004FF4006231460092204604F12A02FFF765
:1010600063FD23E06268A1685A400A4209D04FF646
:10107000A9629BB2934204D0E368002B35D004F1FF
:101080000C0518231A491B480A788C4603FB0203F7
:10109000187D01280CD99968A14209D129685B689B
:1010A000994205D131462046FFF7FEFE05B0F0BD5E
:1010B0000021114B187CCAB2012809D95868A042F6
:1010C00006D12F681868874202D18CF80020E9E722
:1010D00001310A2903F11803ECD132462946204692
:1010E000FFF720FFE2E7054BB2E76FF00300DDE713
:1010F00058030010680200106C02001051780000C4
:101100002DE9FF47494B0446D3F808A088469AF8D2
:101110000050994605F00F05AD00132D16D94289F0
:10112000032A13D942681278082A0FD1586900F0AF
:10113000F002E02A0AD0196800F0C3FC30B9238914
:10114000072B03D9204600F060FE28B1204604B0EA
:10115000BDE8F04701F047B805F10E0631462046DC
:10116000AFB201F01FF8002859D02389D91989B2EC
:101170008B42EBD84FF420720E2001F05FF8064648
:101180000028E3D0428905F108039A4203D2304691
:1011900001F029F8DAE751462A46406805F011FACD
:1011A0002946304601F001F80028F0D121463046AA
:1011B00001F005F90028EAD1204601F014F8344680
:1011C00029462046666800F0EDFF0028BED14FF6A4
:1011D000F7726568D9F814303946EB60D9F81030E9
:1011E0004FF0FF092B617388307093428CBF093335
:1011F00008337380002685F80890AE72EE72284698
:1012000000F0FDFD012368813246CDE90063CDF891
:1012100008804B460649204600F031FC96E73146EF
:10122000204600F0C2FF002890D1C9E7604E0010B0
:10123000744E00102DE9F0414FF4207286B0044640
:101240000D462220242100F0F9FF064668B36768A6
:101250004468032365700025394623701C222571DC
:101260006571A571E57104F1080005F0AAF9FB6844
:1012700006AF47F8043D384600F03AFA804688B198
:101280007189A570E570204600F0B9FD01236080EA
:101290003A46CDE90053CDF80880FF232946304671
:1012A00000F0EDFB304600F09EFF06B0BDE8F08197
:1012B0002DE9F043214B89B01B6880460E469146CC
:1012C00008214FF420723620069300F0B7FF054640
:1012D00080B3D8F80430446806937368B9F1160FE8
:1012E00001BF63600123371D33724FF0000618BF42
:1012F00063604FF0080184F800906670A670E67095
:10130000204618BF0E4F00F07AFD40F294436080F3
:1013100007930423049307ABCDE9028302233A46E3
:10132000CDE9006306A90123284600F08FFB28467B
:1013300000F059FF09B0BDE8F08300BF60780000FD
:101340005C03001038B5437A0546022B0C4605D0E5
:10135000012B09D143890BB18B4205D9022C04D84A
:1013600001236B8101236B7238BD05F0FDF990FB01
:10137000F4F101FB140080B268810028F0D0F1E79D
:10138000034B044A1A60044B02F180721A607047E2
:1013900060030010E00000015C030010036A10B558
:1013A0000BB11C6804B910BD20460521FFF7CAFF28
:1013B0002468F7E7006A00B9704742680B689A42F0
:1013C000FAD00068F7E770B505460E46FFF7F2FF62
:1013D00068B905202C6A00F069FD40B100233EB1D8
:1013E0003268C0E90123037324B90460286270BD28
:1013F0001A46F6E7236803602060F8E710B50B494A
:101400000446FFF7E0FF60B102234372037B013320
:101410000373A36B43B1012204492046984700207F
:1014200010BD4FF0FF30FBE71846F9E760030010EE
:10143000F7B50E46418905460729174604D82846C0
:1014400000F0D1FE03B0F0BD4468204600F0D7FCA8
:101450000028F4D139463046FFF7ACFF0028EED023
:101460002378112B08D0162BE9D1437A012B04BF26
:101470004FF400738360E2E7124A396812686368C8
:1014800091421CD17BB963780BB90A236370336A2C
:10149000002BD4D01E68002ED1D030466178FFF7E3
:1014A00051FF3668F7E702A941F8043D3046FFF7DF
:1014B00081FF0028C3D06178FFF744FFBFE7002B0E
:1014C000BDD0F8E7600300100B6870B503F0F002C0
:1014D000E02A05460E462ED11A4A126893422AD0B7
:1014E00090F831309B0626D5FFF76DFF044628B3F0
:1014F000437ADBB9037B2BB9AB6B1BB101223146BD
:1015000028469847162221462846FFF7D1FE05F0C7
:101510002BF9052390FBF3F303EB8303C01A80B28E
:10152000002808BF01200123608163720020237B13
:101530000133237370BD6FF00500FBE74FF0FF3000
:10154000F8E700BF600300100B6870B503F0F0020D
:10155000E02A05460E461BD10F4A1268934217D067
:101560006FF005000D4B1C6804B970BD94F8313064
:101570009B060BD525B12B6813B16268934205D148
:1015800031462046FFF7A0FF0028EED12468EBE7A4
:101590006FF00500E9E700BF60030010784E00100F
:1015A0000B6870B503F0F002E02A05460E462DD117
:1015B000184A1268934229D090F831309B0625D5FD
:1015C000FFF7F8FE044608B3037B012B1BD82B6AF8
:1015D00023B11A68944214D122681A60237A23B185
:1015E000172221462846FFF763FEAB6B1BB1002292
:1015F0003146284698472146052000F063FC00202C
:1016000070BD1346E4E7013B0373F8E76FF0050094
:10161000F6E700BF60030010F8B50B68064603F05C
:10162000F002E02A0F461DD1104A1268934219D0E9
:101630006FF005040E4B1D680DB92046F8BD95F8F6
:1016400031309B060CD526B1336813B16A689342DA
:1016500006D139462846FFF7A3FF002C18BF0446E1
:101660002D68E9E76FF00504E7E700BF60030010AD
:10167000784E0010F8B502270E4B0F4E1D6805B9C5
:10168000F8BD2C6A0CB92D68F9E7638983B1013B79
:101690009BB2638163B9637A012B09D162683368B5
:1016A0009A4205D06772162221462846FFF700FEAF
:1016B0002468E7E7784E00106003001008B590F842
:1016C0003130014613F001030BD043684BB1074A98
:1016D0005069834207D000F0F4F9003018BF0120B0
:1016E00008BD1846FCE70120FAE700BF604E001075
:1016F000026810B502F0F003E02B02D1134B18681A
:1017000078B9134B186868B9124B1B684BB193F842
:10171000312002F00502052A03D15A68002A18BFB9
:10172000184610BD90F83110CB070CD54C070AD5E0
:10173000436843B1846853402342F2D08B0702D4FC
:10174000C3689A42EDD00068DDE700BF6403001073
:10175000784E00107C4E00102DE9F843D0F804803C
:10176000054698F800900F464FEA1913042B05D050
:10177000284600F038FD0020BDE8F883B8F80200E4
:1017800000F07CFA2B8909F00F094FEA890983429E
:101790001FFA89F4064603D90146284600F0BCFD2D
:1017A0006B89A342E4D32B89B342E1D3132CDFD955
:1017B0002146404600F023FB0028D9D1D8F810304C
:1017C000454C6361D8F80C2003F0F003E02B226154
:1017D00044D197F831309B062ED400263946206933
:1017E00000F06FF90028C3D1236903F0F003E02B68
:1017F000BED0002EBCD0B8F8063023F0C003002BBA
:10180000B6D1C4E90067C4F8088098F800304946AA
:1018100003F00F039B002846A38100F0C6FC98F854
:101820000930022B3CD0112B2ED0012B3ED1394652
:101830002846FFF765FC2BE004F114013846FFF75A
:10184000B9FD0028C9D06269244B9A4201D03E46B6
:10185000C4E72369002BFAD13E46CCE73846FFF7B0
:101860002DFF0028F3D1237D7F2BB6D01C4B1E68A3
:10187000002EB2D0BE4201D13668F9E73046FFF7FC
:101880001DFF0028F8D0A9E73946284600F0BAFE27
:101890000023C4E90033A360A381C4E904336AE7E9
:1018A000104A39462846FFF7C3FDF1E73146606923
:1018B00000F007F960B9636903F0F003E02B07D08B
:1018C0004946284600F087FC02212846FFF7B2FC73
:1018D000284600F088FCDBE7604E0010E0000001C5
:1018E000784E0010744E00102DE9F04F87B0074677
:1018F00001919B469DF840909DF844A0BDF8504052
:101900009046002A00F08F80002C00F08880282C60
:1019100000F29480E61C26F00306B6B206F1140528
:101920003146ADB200F03EFC20B16FF0010007B0CF
:10193000BDE8F08F029022461399786804F041FECA
:10194000B442029B05D27868321B1946204404F049
:101950005CFE00231C4676089E425ADC1421384661
:1019600000F020FC02900028DFD17E68AD0886F8E8
:1019700008B086F809A045F04005D8F80010EDB28F
:10198000357086F801904AEA0B2A8AB231614FEA33
:101990002A2B388903924BEA0A2A4FEA114B00F0AE
:1019A0006DF9029B49EA0529B371F371254B4FEAA2
:1019B000292545EA0929708005461888029300F018
:1019C0005DF9029B1FFA8AFA19881FFA89F9013119
:1019D0001980019BB080039A1BBB1B4B1B68F360F3
:1019E000F1688BB203EB11431A449344DA44544434
:1019F000A1444D44284485B205EB104505EB15453F
:101A0000ED437581129B42465B69394612989847AF
:101A10008DE77A6832F81320013314449CE71425CB
:101A20009CE7019BDAE74389132B7FF67EAF43687F
:101A30000DF118081B6948F8043DE3E76FF0050055
:101A400075E700BF6803001060780000F0B59C46A1
:101A5000DDE907479DF814509DF81860BDF824E0B3
:101A60001AB109B10B6803B9211DCDE9087ECDE992
:101A7000066405956346BDE8F040FFF735BF10B535
:101A8000002486B0CDE903440A9C02949DF82440CA
:101A900001949DF820400094FFF7D8FF06B010BDD8
:101AA00010B5002486B0CDE903440A9C02949DF849
:101AB000244001949DF820400094FFF715FF06B0E4
:101AC00010BD431E033311D891F8313013F00203D7
:101AD0000ED04A6882420BD08B6842401A4207D12E
:101AE000DB4383430CBF0120002070470120704777
:101AF000002070472DE9F04F05460F464FF00008D3
:101B000087B090F900400DF1080A0AEB0803019331
:101B100004F018FDE3B218444378590703D40020B9
:101B200007B0BDE8F08F302C21D195F9014024F0A9
:101B30002003582B13BF4FF008094FF0100995F9F7
:101B40000240013508BF02352E46002504F0FAFC9C
:101B50005FFA84FB0BF1010B10F80B20520709D53B
:101B600005FB0945303D96F901400136EEE74FF09F
:101B70000A09E9E7B9F1100F15D104F0E3FC10F8F8
:101B80000B2012F0440F0ED004F0DCFC10F80B20F8
:101B90000A3402F00302022A0CBF612241222D0105
:101BA000A41A2543DFE72E2C0AD1B8F10C0FB6D0CA
:101BB0004AF8085096F90140751C08F10408A4E79A
:101BC000A4B9019BA3EB0A008010013004281CD8A3
:101BD00001A353F820F000BF211B00000B1C0000E4
:101BE000FB1B0000191C00003B1C000004F0AAFCB9
:101BF00010F80B301B07E4D491E7B5F1807F8ED24B
:101C0000029BFF2B8BD845EA03651FB1284600F0E5
:101C100038F83860012083E7B5F5803FBFF47FAF27
:101C2000029AFF2A3FF67BAF039BFF2B3FF677AF6D
:101C30001B0443EA02631D43E7E7FF2D3FF66FAF46
:101C40000299FF293FF66BAF039BFF2B3FF667AF6F
:101C5000049AFF2A3FF663AF1B0443EA016343EA99
:101C60000223E8E707B501A9FFF744FF18B101987F
:101C700003B05DF804FB4FF0FF30F9E740BA80B2E3
:101C8000704700BA7047002308440129A0EB010205
:101C90000EDC04BF127803EB022398B200EB134072
:101CA000030C1B040BB180B2013080B2FFF7E6BF1A
:101CB0001288023952BA92B21344E6E72DE9F04194
:101CC0000F4616464FF000081C68069B05461B6829
:101CD00098B200EB1340A3B2184400EB144084B256
:101CE00004EB104084B204EB1044D5B9B8F1000FF6
:101CF00004D023029BB2C4F307241C433846FFF7E9
:101D0000BDFF05463046FFF7B9FF28440444A0B2A2
:101D100000EB1444A0B200EB1440C04380B2BDE815
:101D2000F08169896868FFF7AEFF6B890444A0B24F
:101D3000DB0700EB144406D523029BB2C4F307244F
:101D400088F001081C432D68CFE7FFF7B7BF2DE9E6
:101D5000F0470F4616464FF0000A9946089B054685
:101D60001C68099B1B6898B200EB1340A3B218448F
:101D700000EB144084B204EB104084B204EB104436
:101D8000ADB9BAF1000F32D13846FFF777FF0546FB
:101D90003046FFF773FF28440444A0B200EB14441C
:101DA000A0B200EB1440C04380B2BDE8F087B9F1A7
:101DB000000FE6D0B5F80A806868C84528BFC84655
:101DC0004146FFF760FF6B890444A9EB0808A0B205
:101DD000DB071FFA88F900EB144406D523029BB2F7
:101DE000C4F307248AF0010A1C432D68C8E72302C4
:101DF0009BB2C4F307241C43C6E7FFF7A8BF08B58E
:101E0000FFF741FFC04380B208BD70B5002605460C
:101E1000344645B926B123029BB2C4F307241C43C0
:101E2000E04380B270BD69896868FFF72CFF6B8959
:101E3000204484B2DB0704EB104406D523029BB296
:101E4000C4F3072486F001061C432D68E1E708B5BA
:101E500001F003FC00F00CF800F027F800F078F82F
:101E600000F0C4FBFFF78CFABDE8084000F074BB3B
:101E70007047704710B504F073FB044618B901F0C1
:101E800002FC01F005FC204610BD04F071BB008887
:101E900010B5033020F00300FFF7ECFF044601F01B
:101EA000F2FB01F0F5FB204610BD7047082804D86E
:101EB000034B53F82000FFF7EABF0020704700BF34
:101EC0007C780000082810B50C4609D841B101F013
:101ED000DAFB01F0DDFB2046BDE81040FFF7D5BF7F
:101EE00010BD6FF00B00704710B590F8313004460C
:101EF00003F00502052A11D1C9070FD542686AB15E
:101F00001A0702D5011DFEF789FF94F831309B06B0
:101F100004D52046BDE81040FFF740BA10BD37B5E4
:101F20004368044608680D4698420FD002A941F85C
:101F3000040D1360104600F01BFE2B682046636002
:101F40000121FFF7D1FF012003B030BD0020FBE7E6
:101F500070470000F7B5144D0446002914BF0E4623
:101F60002E46002A14BF17462F46002B18BF1D46C9
:101F70003368B3B901AA3146FFF7D1FF01233A68AC
:101F8000A1688A4218BFA2602A68E1688A4218BF25
:101F9000E26023B901AA31462046FFF7C0FF03B033
:101FA000F0BD0023EBE700BF607800002DE9F843A7
:101FB000DDF824900E4617469846044618B90024CA
:101FC0002046BDE8F883B9F1000FF8D00025284B72
:101FD000C0E90155002908BF1E46002A08BF1F4658
:101FE000B8F1000F08BF9846224BC56043610585D4
:101FF00080F8315029460422203004F006FB089B6B
:10200000A5631D4DE3612B78204684F834300A9B8C
:102010003A46236131464346FFF79CFF2046C847B6
:102020000028CCD115490E68324694F83430FF2B85
:1020300008BF84F8340094F8343062B9FE2B14D110
:102040002A7094F8313026609B060C60B8D5204683
:10205000FFF7D4F9B4E792F834709F4203D101330B
:1020600084F83430E0E71268E7E701332B70E8E7E3
:1020700060780000E31E00006A030010784E001034
:10208000014B1860704700BF7C4E001050B190F8B3
:102090003130D90706D443F0010380F831300321F1
:1020A000FFF722BF704750B190F83130590706D47E
:1020B00043F0040380F831300321FFF715BF704768
:1020C00038B190F831305A0744BF23F0040380F848
:1020D0003130704750B1064B1B682BB193F8342058
:1020E0000132D2B28242F7D1184670470346FBE76D
:1020F000784E001010B5044608B9002010BD02301B
:1021000004F012FA0B4AC3B210680028F5D090F818
:1021100034209A420BD194F9001090F93220914268
:1021200005D194F9011090F933209142E6D000686E
:10213000EBE700BF784E001030B598B1B1F5803FA5
:1021400010D2D1B103898CB223449BB29C4209D8EE
:1021500090F90C50002D07DA4268511A00F1100274
:10216000914205D2012009E0002AFBD04268511AB1
:1021700042894160144444810381002030BD70B520
:10218000064607200C461546FFF790FE48B100238F
:102190000122C0E9003604814481057343738273D0
:1021A000C37370BD0022FFF7C7BF10B588B1B1F58A
:1021B000803F0ED259B143898AB29A4209D89B1AFC
:1021C00044684381038921449B1A416003810020B4
:1021D00010BD0120FCE70B1E02DA5942FFF7E5BFF4
:1021E0000122FFF7A9BF70B5044628B3002501F00E
:1021F0004AFAA67B013EF6B2A67301F049FA76B917
:10220000237B266803F00F03022B0AD12146082006
:10221000FFF758FE0135EDB23446002EE7D12846CF
:1022200070BD012B02D121460720F1E7002BF1D12F
:102230002046FFF72AFEEDE70546F0E7412A2DE9A3
:10224000F04707460E4684B229D003D8012A26D08B
:10225000002558E0B2F5C17F27D0B2F5207FF7D135
:102260000334CB1C23F0030324F003041C44A4B266
:102270009C4204F11000EBD38342E9D8FFF7FAFD4A
:10228000054600283FD00023074403601337204B46
:1022900027F00307476006814681C36033E031467B
:1022A000BDE8F0470020FFF76ABF4FF0000A55462F
:1022B000D046DFF860900820FFF7F8FD074628B900
:1022C000002DC5D02846FFF78EFFC1E7E31C23F0A1
:1022D0000303C3F514739BB2B34228BF33460444CF
:1022E000133424F00304C0F8008044600681438165
:1022F000C0F80C9055B1CAF80000F31A9EB2002441
:10230000BA46002ED7D12846BDE8F0870546F4E747
:10231000800001008200010038B5038904468B4229
:102320000D4618D95B1A9BB26289AA4214D3237B4B
:102330001B0708D1AA4206D061682046091B294420
:10234000FFF797FD044620686581258108B1FFF7F6
:102350004AFF0023236038BDAD1A2289ADB2D21ADC
:1023600022812468E0E70346002290B2013203B9DB
:1023700070471B68F9E710B5044640B101F083F9D6
:10238000A37B0133A373BDE8104001F081B910BDF8
:1023900010B500B109B910BD10460B890489026857
:1023A00023449BB20381002AF6D10160F3E710B504
:1023B000FFF7EEFFBDE810400846FFF7DCBF2DE950
:1023C000F0410C46054618B96FF00F00BDE8F081EA
:1023D0000029F9D002890B899A42F5D30026B0462C
:1023E00063896F899B1BA7EB08079F4228BF1F4685
:1023F00061686868314440443A4604F0E2F8638911
:102400003E449E426B89B84424BF24680026984508
:1024100007D12D681DB9002CD6D12046D6E74FF044
:1024200000082CB1628923899A4201D1236843B9FB
:102430006A892B899A4201D12B6813B9002CCFD11C
:10244000EBE76FF00500C1E72DE9F0410F4690463C
:10245000064618B321B30025B8F1000F00D016B915
:102460002846BDE8F08172892BB1934203D39B1AB1
:102470009BB23668F0E7D21A94B2444528BF44466E
:1024800071682246194478192544A8EB040404F025
:1024900098F8ADB21FFA84F80023EAE70546DFE7B3
:1024A0000D46DDE738B514460A462189FFF7C6FE1A
:1024B000054610B12146FFF782FF284638BD0000CF
:1024C00070B5044606200E461546FFF7EFFC40B1F6
:1024D00000230C4A03601368C0E9026544600BB92D
:1024E000106070BD5968611A002902DA0360F7E7CD
:1024F00013461A681AB15168611A0029F8DA0260A5
:102500001860EEE77003001038B50446436898473A
:1025100001F0A4F8074B25681B6807492B441A1AD9
:10252000002AB8BF40192246A8BF1846BDE8384067
:10253000FFF7C6BF6C0300100925000070B5044604
:102540000D46164601F08AF8324629462044BDE879
:102550007040FFF7B5BF000038B5084D084C2A465B
:1025600021464FF47A70FFF7E9FF05F10802214692
:10257000BDE838406420FFF7E1BF00BFA07800004D
:10258000092500002DE9F04101F068F807460C4DDF
:10259000DFF83080296889B14B68FA1A002A0DDB10
:1025A000D1E902460A6806202A60C8F80030FFF721
:1025B00089FC002CEED03046A047EBE7BDE8F08167
:1025C000700300106C03001010B5074C23683BB17A
:1025D00001F044F823685B68181A48BF002010BD5A
:1025E0004FF0FF30FBE700BF7003001008B504F0A8
:1025F000BBF86FEA80406FEA9040014B188008BD3D
:10260000100000102DE9F04F438985B0072B0546D7
:10261000884605D8284605B0BDE8F04FFFF7E3BD72
:10262000544C466821686069FFF74BFA07463088CA
:10263000FFF724FB81467088FFF720FB4E4BD4F850
:1026400004B0D3F800C0D4E90432002403938646D2
:1026500063460294E3B91CB9D8F804309342D9D147
:10266000F388002B65D108212846FFF79EFD00283E
:10267000D0D1002C68D0266A002ECBD0CDF80090A7
:102680003E4B2A462146606AB04705B0BDE8F08F50
:10269000598A714543D193F808A0BAF1000F05D0CB
:1026A0009BF834100131C9B28A4538D1002F31D09E
:1026B000597A890633D5196841B1501C06D081EA90
:1026C000020AD8F808101AEA010F28D1197C480725
:1026D0000DD4002C2BD02FB3511C23D1D8F80410CB
:1026E0002068884203D01868814208BF1C46998A36
:1026F000494514D1596811B1039881420FD1029A0A
:1027000032B1DA680299CA601B4AC3F80CC0136080
:102710001C46A5E719680029D8D09142D6D002936B
:10272000DB6897E71968002918BF1C46DFE71C46DD
:10273000DDE7134B2A8900931121043B2846FFF75C
:1027400004FB00288FD065E7002F7FF463AF094AB0
:10275000536903F0F003E02B3FF45CAF9189284606
:10276000083109B2FFF737FD03212846FEF762FD65
:1027700050E700BF604E0010804E0010704E0010F9
:10278000744E00102D4B2DE9F041002908BF194669
:10279000002850D02A4F3E683546DDB9002A48D17E
:1027A0004FF480444FF6FF7E264B1A88724508BFCF
:1027B0004FF44042B4461CBF013292B2BCF1000F4C
:1027C0000ED11A800B68428203600DB9C660386072
:1027D000002010E0854201D0ED68DEE70125DDE74D
:1027E000BCF81280904508D1013CA4B2002CDDD188
:1027F0001A806FF00700BDE8F081DCF80CC0DDE75F
:10280000834212D0447A640702D55C7A64070CD400
:102810005C8A944209D1D1F800C01C686445E8D0B4
:10282000BCF1000FE5D0002CE3D0DB68002BE7D132
:10283000C8E73346FAE76FF00F00DCE76078000086
:10284000804E0010100000102DE9F04F85B00E46AC
:1028500017469B469DF83CA0DDF8449005460028AD
:1028600000F0A480002900F0A180002A00F09E80E2
:10287000B9F1000F00F09A800E9B002B00F09680BB
:10288000437A99060BD56A8A92B929462846FFF7FA
:1028900079FF804660B1404605B0BDE8F08F0E99E3
:1028A0001068FFF70EF90028EDD06FF00508F2E789
:1028B0004FF6F77332899A4202D94FF0FF38EAE7B0
:1028C00008213046FFF76EFC002866D04FF42072D6
:1028D00008212220FFF7B2FC04460028EDD03389FE
:1028E00013B13146FFF763FD688AD4F80480FFF71F
:1028F000C5F9A8F800005846FFF7C0F90023A8F86A
:10290000020088F8063088F807302B7C1A0708D5B3
:102910003B6803F0F003E02B02BF637B43F004034A
:1029200063732089FFF7AAF9A8F804002B7CDB0762
:102930001AD42289BAF1000F31D00823CDE90097CB
:1029400011212046FFF759FABDF84030DB439BB216
:10295000034498B200EB134080B24FF6FF73002897
:1029600008BF1846A8F806003B680E9A03F0F0036B
:10297000E02B0CBF6B7FEB7A029211220192AA7AB4
:102980004946009220463A46FFF78AF8B44280460C
:1029900081D02046FFF727FC7DE73446A4E7009767
:1029A0004B4611212046FFF7D0F9D6E76FF00F080C
:1029B00071E77FB5089CD0B1C9B1C2B1BCB105689F
:1029C0001DB105F0F006E02E0CD1251D0395BDF8D4
:1029D000285002959DF82450CDE90045FFF734FFBB
:1029E00004B070BD6668B54204D10546EEE76FF0ED
:1029F0000F00F5E76FF00300F2E70000F0B50E46B8
:102A000085B015461F46044698B391B38AB3007A41
:102A100028B1FFF75FFB88B96FF003001BE0136874
:102A200003F0F003E02B03D02846FEF761FEF2E747
:102A3000207F90B1FFF74EFB0028F5D0BDF82C3079
:102A40002A4602939DF828303146CDE900033B46E3
:102A50002046FFF7AEFF05B0F0BDA369002BE3D021
:102A6000054A12689342DFD004F11800FEF740FED9
:102A7000E2E76FF00F00EEE76478000073B51D46E3
:102A800040B139B1838ACDE90025021DFFF7B6FFB9
:102A900002B070BD6FF00F00FAE721B191F8343049
:102AA00001330372704701727047000070B50D4624
:102AB00016460446D0B1C9B1428A6AB12B68A682D3
:102AC0006360237C43F0040323740B4B1A681046A5
:102AD00040B9E2601C6004E00146FFF753FE0028A5
:102AE000ECD070BDA04204D0C068F1E76FF00F00D9
:102AF000F7E70020F5E700BF804E001038B1002353
:102B0000436083820372037C23F0040303747047E1
:102B100008B1C0E908127047014698B10A4A136823
:102B2000834205D1C36813600020FFF7CBB9134679
:102B3000002BF9D0DA68002AF6D08A42F7D1CA68A9
:102B4000DA60F1E7704700BF804E001010B500203A
:102B5000FFF7ACF9044630B12822002103F055FDFF
:102B6000FF23E3726377204610BDFFF7EFBF00003D
:102B700010B538B103682BB121B10B6813B1064B06
:102B80001B6803B910BD1C680268944204BF0A6840
:102B90001A60DB68F5E700BF804E001090F88530C2
:102BA00010B503F11A0240F822104A8900EBC30461
:102BB000013AC2F30A0242F0004262624A684FF0F0
:102BC000A04122624FF0FF3240F83320626090F85B
:102BD00084200133013A80F88420D1F81021DBB23F
:102BE000D2B29A4238BF002380F88530C1F818313C
:102BF00010BD2DE9F0478846C5690846FFF7B3FBCD
:102C00004646002747F6FF7216BB002F62D03046BB
:102C10004FF42072B8F80810FFF710FB06460028A2
:102C200000F091804446D0F804906289616848467B
:102C300003F0C7FC638924689944002CF5D1012472
:102C4000B8F8083073814FF0A04805F190091BE0F7
:102C5000736803F17041B1F5004F0FD303F1604386
:102C600003F58031B1F5005F08D3A3F5F823934253
:102C700094BF002301231F443668C5E70023FAE709
:102C80000021484600F0A4FCD8F82C11D8F82821DF
:102C9000C9B2D2B2914220D08BBF01F1FF33931C55
:102CA0009B1A5B1ADBB29C42EAD84FF0A04305F1B5
:102CB0009409D3F8283148465FFA83F800F0B4FC51
:102CC00017B93046FFF757FB4FF0A04731460020B9
:102CD000BC4630E0C4B24646B5E70323E3E74B8980
:102CE000013C013B14F0FF04C3F30A0308F109029D
:102CF00005EBC20A0BBF43F0404343F00043CAF860
:102D00000830CAF808304B6808F11E0E05EBC20205
:102D10000CBF45F82E6045F82E005360D7F82431DB
:102D200008F101085FFA88F8984588BF4FF000085D
:102D30000968CCF82881002CD1D1484600F07EFCEF
:102D40002046BDE8F0874FF0FF30FAE790F83130C9
:102D50005B0701D5FEF75AB96FF00A00704710B54E
:102D60004FF0A0430024090201F4F85100F01F00C5
:102D700001435C629962DA624FF4A022586B10F052
:102D8000010003D0013AF9D14FF0FF3010BD4FF0F0
:102D9000A043090201F4F85100F01F000143012291
:102DA00099624FF4A0215A625A6B12F0010202D1CB
:102DB0005A62186B70470139F6D14FF0FF307047F7
:102DC00070B50024C56995F88430E6B20BB9304679
:102DD00070BD4FF4C0614FF420720020FFF72EFA4F
:102DE000013401460028F2D02846FFF7D7FEEAE773
:102DF00008B54FF0A04300F12002C3F808210322D8
:102E0000C3F81021C3F80C010423A0F88430406EED
:102E1000FFF7D6FF042814BF6FF00100002008BDA3
:102E20002DE9F74F4FF0A047C669804606F1980993
:102E3000484600F0F9FBD7F8E05F15F003054BD0EA
:102E4000D7F8003106F1680423F00103C7F8003118
:102E50003B6806F1780523F001033B603B6843F4CF
:102E600080633B600323C7F8E83F002754F8040B56
:102E700018B1FFF7B8F944F8047CA542F6D1304602
:102E8000FFF7B6FF4FF0A0430025D3F8002142F032
:102E90000102C3F800211A6842F001021A60484694
:102EA00000F0CCFB002D66D06B689889FEF7E6FE3B
:102EB000B0F5006F03D040F60603984206D1D8F86B
:102EC0001030414628469847002854D0284603B081
:102ED000BDE8F04FFFF787B9D7F81841D7F81421AC
:102EE000D7F81831E4B29A42D9D056F8342006EB1C
:102EF000C40312F0386B0CD096F8843006EB8404CF
:102F0000013386F88430A16E3046A566FFF746FE91
:102F1000C5E7C2F30A0AAAF1030A1FFA8AFA4FF4B4
:102F20002072514658460193FFF788F904F11A02BE
:102F300056F822100546A1F80AA0A1F808A0FFF74C
:102F40003EFA90B94FF0FF32019B46F834205A60A8
:102F5000D7F810310134E4B2DBB29C4288BF0024C0
:102F600086F88540C7F8184199E729463046FFF7AB
:102F700015FE5D4693E703B0BDE8F08F70B50446DB
:102F80004FF0A04500F188060021304600F020FBFC
:102F9000D5F81421D5F818319A42F5D0606EFFF7B4
:102FA0003FFFF5E72DE9F041C4694FF0A04604F179
:102FB0009405284600F038FB002704F19008D6F865
:102FC0002C2194F886309A4204D12846BDE8F0417D
:102FD00000F034BB1E3354F8230030B1FFF703F97F
:102FE00094F886301E3344F82370404600F031FBDD
:102FF00094F886300133DBB284F88630D6F8242189
:103000009342DCD984F88670D7E700002DE9F843B5
:1030100004460025DFF884804FF0A046002104F12B
:103020008C0000F0D5FAD6F8E03F13F0300F30D026
:1030300004F19407384600F0F7FA336804F1840984
:1030400043F48073336004F1780656F8040B18B12A
:10305000FFF7C9F846F8045C4E45F6D14FF0A0439F
:1030600004F14C02C3F81C210222C3F8242104F10C
:103070004002C3F820214FF0FF3325652364A56586
:1030800063642566A36484F88650384600F0D6FA57
:10309000C2E7D8F86400FFF785FFBDE778030010AA
:1030A000002337B5CDE900334FF0A04343F2FF05CD
:1030B000D3F8E04F14F00B0F04EA050505D0104BD0
:1030C0006946D3F8880001F069FE14F0B00F05D00E
:1030D0000B4B01A9D3F88C0001F060FE4FF0A04328
:1030E000C3F8E85F009B0BB9019B3BB14FF08052E6
:1030F000044B1A60BFF34F8FBFF36F8F03B030BD27
:103100007803001004ED00E04FF0A04360B11522F9
:103110009A605A6842F001025A60D3F8002142F4E2
:103120008062C3F80021704712229A605A6822F028
:1031300001025A60D3F8002122F48062F1E74FF0D7
:10314000A04318B14FF480729A617047986170473C
:1031500070B505468AB0182200217F4E04A803F0FE
:1031600054FA09AB7566039308AB029307AB01935E
:1031700006AB009304AA05AB7849794803F058FBE5
:10318000062204A985F8302005F12A0003F019FA77
:1031900040F2DC532B85734B4FF0A0426B626523EA
:1031A00085F832306E2385F83330292385F83130A5
:1031B0006D4B6E496B616E4B6E48C5E90636002358
:1031C000C2F8E43FD1F8C42042F08042C1F8C420E4
:1031D000694AA1F550218A60CA6822F00F0242F0C4
:1031E0000502CA60654A1168654AB1FBF2F11C5CD0
:1031F000DAB2A14203D901330F2BF8D11A464FF0AE
:10320000A044920042F400422262236A23F4004365
:10321000236200F0CBF8002865D04FF44F432360C1
:1032200038233122C4F80031022315212360626063
:103230004FF4C062C4F80021A1604FF48071A16115
:1032400040F61241E160626143F20F722261EA8D41
:103250004C482264AA8D62646A8DA264C4F81C0181
:10326000C4F82431A0F10C03C4F820314FF0FF3230
:10327000002332643365B36572643366B2644C38DC
:1032800086F88630FFF7B4FD002862D1212358224A
:10329000C4F80032D4F8003243F00403C4F800321A
:1032A000D4F8003123F08003C4F80031364B83F8A2
:1032B0001C234FF080521A604FF6FF73C4F8E83FAA
:1032C000B023C4F8E43FD4F8E43F43F00B03C4F860
:1032D000E43F236843F001032360D4F8003143F056
:1032E0000303C4F800310321084601F0BDFCC6F811
:1032F0009000264800F08DF918B14FF0FF300AB069
:1033000070BD234800F085F901460028F5D1214819
:1033100000F044F906460028EFD1052480230094EC
:10332000EA691D491D4800F09BF90028E5D03146A7
:103330001B4800F033F90028DFD100948023EA69AC
:103340001849194800F08CF9B0FA80F0E04040428A
:10335000D5E76FF00100D2E778030010BF780000D6
:10336000DD780000EF7800004D2D000000C00F4018
:10337000F32B0000B0780000050115500C00001080
:10338000A0252600C403001000E100E00C0400109A
:1033900010040010000400107D2F0000F7780000DA
:1033A000040400100D300000057900000020144BCB
:1033B00010B51860134B4FF400421860124B0121F6
:1033C0001860FFF7CCFC88B94FF4C874012002F0F4
:1033D00009F901210020FFF7DAFC431C06D010F4A4
:1033E000084005D0013CA4B2002CEFD1002010BD54
:1033F0004FF480520121FFF7B2FC0120F7E700BF34
:10340000200400101C0400101804001070B52B4D8F
:103410002B4C29682846012913D00229294E17D0A0
:1034200001210846FFF7B3FC3060013007D0236864
:1034300023F0040343F00203236001232B60206880
:1034400070BD1020FFF7A3FC1F4B18600223F5E7A7
:103450001D4A2368356812886D0723F002014CBFAE
:1034600041F0080123F00A0302F006024CBF21607C
:103470002360022A23681DD0062A11D0AAB143F086
:1034800030031249236023680A685A4012F0380F4B
:103490001EBF0B6043F00403236000230360CEE7EC
:1034A00023F0100343F02003EBE723F0200343F065
:1034B0001003E6E723F03003E3E700BF2004001029
:1034C0001C0400102404001028040010180400102C
:1034D00010B5002204460846042101F0ABFB206031
:1034E000B0FA80F04009404210BD37B5054602AC45
:1034F00044F8041D00234FF0FF322146286801F0F4
:10350000BDFB0128F6D103B030BD002313B502ACDA
:1035100044F8041D1A462146006801F0AFFB10F183
:10352000FF3018BF4FF0FF3002B010BDF7B50646B0
:103530000D46174601F05EFF044605B901AD87B19F
:103540003A462946306801F057FC012804D101F0C1
:1035500051FF001B03B0F0BD00234FF0FF302B6084
:10356000F8E74FF0FF322946306801F045FC0128AA
:10357000F7D101F03FFF001B08BF0120EAE707B5C4
:1035800001B901A90022006801F036FC012814BF2E
:103590004FF0FF30002003B05DF804FB38B5032284
:1035A00005460C460120002101F044FB286020B1B3
:1035B00000231A46194601F061FB286828B114B9A6
:1035C000012101F091FC002001E04FF0FF3038BDF7
:1035D00070B505460E4601F00DFF04464EB131466A
:1035E000286801F081FC012810D101F003FF001BC5
:1035F00070BD4FF0FF31286801F076FC0128F8D14A
:1036000001F0F8FE001B08BF0120F1E74FF0FF308A
:10361000EEE710B50446012001F0AEFB2060B0FAE1
:1036200080F04009404210BD10B504464FF0FF3114
:10363000206801F059FC0128F8D110BD0023006872
:103640001A46194601F01ABB006801F0F5BCFFF7F5
:10365000FBBFFFF7F3BFFFF7F7BF704701F0CABE2C
:103660001FB50C4699B203AB0193069B009313461A
:103670000A460146204601F065FD012814BF0020DE
:10368000039804B010BD08B501F07CF8012008BD16
:1036900001F088B800F11003DBB2102B9DBF034B83
:1036A000404253F820000520704700BF1479000005
:1036B00038B500230568037104466868C8B92B78DB
:1036C00003F0F003202B12D1FFF74FFA2268686055
:1036D000506838B113780749222B04BF01230374C3
:1036E000FFF716FA23685B681BB9FF2300E0FA2393
:1036F000237138BDDB3C0000036810B504465868F0
:1037000050B11B7803F0F003202B05D1A289A168EA
:10371000FFF738F8207110BD6FF00500FAE7036875
:1037200010B50446586850B11B7803F0F003202B05
:1037300008D1A289A168FFF7B9F9207110BD6FF017
:103740000E00FAE76FF00500F7E7026810B513788E
:10375000044603F0F003202B05D15068FFF7CEF9A3
:103760000023237110BDFA23FBE70A6810B50C3261
:103770000C4600F089FF08B994F9040010BDF52348
:1037800010B50371036804465A685AB11B7803F0F8
:10379000F003202B06D1D0E90210637C1BB9FDF7A2
:1037A000D3FE207110BDFDF737FFFAE7032804D8D8
:1037B000044A0301D018D3581BB909220020024B38
:1037C0001A607047600400105C4E00102DE9F84F3D
:1037D0000E46054600283FD04469002C0FDAFFF75B
:1037E00052FF6C690346002C07DA0EB9013C6C618C
:1037F0001846BDE8F84FFFF74BBFFFF749FF2046DB
:10380000FFF7D4FF054638B3FFF73DFF042E37D846
:10381000DFE806F00324293033002B8901331BB283
:10382000012B2B81CCBF00230123AA7B002AE0D0EF
:10383000002BDED00127B5F90880B5F80A90B5F85D
:103840000CA0FFF725FF314B04F01F061D684FEA5F
:10385000541B07FA06F6ADB9BDE8F88F2B89013B7A
:103860002B810023E1E76B890122B3FA83F36A819C
:103870005B09DAE700236B81D7E70123AB81D4E74B
:103880000123D2E7EB6923B96969E9B1A8698342E9
:1038900001D12D68DFE751F83320944212D1B8F1FD
:1038A000000F04DD01EBC3029288D20728D4B9F1DE
:1038B000000F04D001EBC3029288920720D4BAF122
:1038C000000F1DD10133E2E7B8F1000F05DDAB6851
:1038D0001BB153F82B301E4212D1B9F1000F05D0A5
:1038E000EB681BB153F82B301E4209D1BAF1000F1F
:1038F000CFD02B69002BCCD053F82B301E42C8D030
:10390000EF6105F12000FFF7A4FEC2E72C040010D0
:1039100070B5054602200E46FEF7C8FA044618B3F5
:103920000023057005F0F005202D037243600FD1D0
:1039300000F1100504212846FFF7CAFD014638B9F9
:1039400004F10C00FFF72AFE40B12846FFF77FFE86
:1039500021460220FEF7B6FA002405E04FF0FF33BF
:1039600060706361E6612076204670BD10B5044644
:103970000C30FFF770FE00232146E3600220BDE813
:103980001040FEF79FBA000030B50D4689B01146D1
:10399000FFF7BEFF0446A8B108A941F8200D0B4867
:1039A0008DF80850FFF7E1FE60B104F10C00FFF75D
:1039B00052FE04F11000FFF74AFE21460220FEF7F6
:1039C00081FA0024204609B030BD00BFB1360000A6
:1039D00000B589B028B108A941F8200D0248FFF7C9
:1039E000C4FE09B05DF804FB413D000038B5054652
:1039F00040B1FFF7EDFF044610B92846FFF7B6FFC8
:103A0000204638BD0446FBE700B589B070B1094BCC
:103A10000090002908BF1946074802916946ADF891
:103A20000C20FFF7A2FE09B05DF804FB6FF00F0059
:103A3000F9E700BF60780000F936000000B589B0F2
:103A400070B1094B0090002908BF19460748029140
:103A50006946ADF80C20FFF788FE09B05DF804FB5D
:103A60006FF00F00F9E700BF607800001F3700001B
:103A700000B589B040B108A941F8200D0448FFF70E
:103A800074FE09B05DF804FB6FF00F00F9E700BFAA
:103A90004B37000000B589B040B100900291054855
:103AA0006946FFF762FE09B05DF804FB6FF00F0096
:103AB000F9E700BF833B0000F0B589B00E9E0028F7
:103AC0003CD0047804F0F004102C3AD1047EA40712
:103AD00002D413F0040502D0002E32D000252C466B
:103AE0000CE001EBC5077F684FF0000C3C1928BFC4
:103AF0004FF0010CBCF1000F23D10135AA42F0DCDC
:103B0000002C02D1002009B0F0BD02DACEB16FF076
:103B10000044ADF80C200022009002910A4869464A
:103B200004928DF81C30CDE90542FFF71EFE0028F7
:103B3000E9D1002EE6D0069B3360E4E76FF00F007A
:103B4000E1E76FF00500DEE7D53B00001FB5CDE9EA
:103B50000212069A02A900920122FFF7ADFF05B0FA
:103B60005DF804FB38B5044648B1FFF78CFD00232F
:103B700094F908502372FFF78BFD284638BD05469F
:103B8000FBE7F7B505460068FFF7ECFFA0B92B6827
:103B90005868E0B11B7803F0F003202B17D1AC6814
:103BA000A27B14F10806216802F00202238A01D0E8
:103BB000A76827B9FEF762FF287103B0F0BDA4899A
:103BC000CDE9002323463246FEF718FFF4E76FF0F5
:103BD0000A00F1E710B504460068FFF7C3FF0028AC
:103BE00008BF6FF00500207110BD002337B50446F3
:103BF00001930D4619B96FF00F0003B030BD0B6093
:103C00000028F8D0036933B9FFF7ACFF0028F4D1DE
:103C10006FF00A00F1E7037E1030990706D45107D0
:103C200004D4DA0702D494F908207AB101A9FFF785
:103C3000A6FC01300DD12046FFF794FF0028DCD10F
:103C4000237EDB07E4D46FF00600D6E701A9FFF777
:103C50006DFC019B1B681A89E36913B101212046A1
:103C60009847019B00202B60C7E730B1037803F031
:103C7000F003102B01D0FFF7B8BF6FF00F007047B3
:103C800010B588B088B10A4C0090002908BF2146C1
:103C9000002A08BF22460748CDE9021269468DF87E
:103CA0001130FFF762FD08B010BD6FF00F00FAE7AA
:103CB000607800007F37000010B5044660B10068EE
:103CC00020B1FEF790FA0023C4E900332146BDE895
:103CD00010400120FEF7F6B810BD2DE9F04117465F
:103CE0001D46BDF81880064620B93846BDE8F041AB
:103CF000FEF779BA0369002BF7D00120FEF7D6F85A
:103D000004460028F1D0C0E9007705B12D68A56010
:103D10002146A4F80C8006F110003D89FFF7F5FB61
:103D2000014620B12046BDE8F041FFF7C5BFF36969
:103D300023B12A463046BDE8F0411847BDE8F0817E
:103D400073B5056804466B7813F0FD0F08D0032B9C
:103D500002D12B7E5B0703D4FB23237102B070BD1D
:103D6000002323712B6963B105F1100601A93046C8
:103D7000FFF705FC013021D13046FFF768FC002336
:103D80002B612368586858B11B7803F0F003202B8F
:103D900003D100234362FEF7BFFE002223685A606E
:103DA0002068C36913B10022114698472068C3698F
:103DB000002BD3D0002202219847CFE70198FFF7CC
:103DC0007BFFD3E72DE9F04F9946936887B007460C
:103DD0000E46144613B9D368002B66DC7B6816F0D8
:103DE000080F14BF0422002201933BB901A93868CF
:103DF000FFF73BFF00285AD1019B7B604FF0000A80
:103E0000D346019B1B68B3F80880E3689A4501DA42
:103E1000D84532D8256805B36368F3B14FF404730D
:103E2000DDF804A0ADF80830BAF80C00FDF726FF65
:103E3000DAF80830ADF80A000822002104A803933C
:103E400002F0E3FB62689DF8083002A99A4288BF3D
:103E500063606268284602F0B4FB00232269A36114
:103E600002B1636116F0010603D17E600198FFF78D
:103E700023FFA9F80080002019E0A0684FEACA01DA
:103E800043185B68A8EB0B05ADB2AB4241580198F3
:103E900098BF9DB22A465B4600685D44FEF7D4FA9F
:103EA0001FFA85FB0AF1010AAFE76FF00F0007B0B8
:103EB000BDE8F08F10B5044640B1006808B1FEF7C8
:103EC00092F90023C4E90033A373238210BD70B5B7
:103ED0000E4615460446A0B1006808B1FEF783F906
:103EE000412200213620FEF7A9F9206018B9606050
:103EF0004FF0FF3070BD4660058145816060002055
:103F0000F8E76FF00F00F5E737B51446FFF74EFC02
:103F1000054610B94FF0FF301DE0102C04D14B784E
:103F2000022B01D18B0708D06FF00F00FFF7B2FB17
:103F30000028EFD0094B1860ECE74B6802AC4888CA
:103F400044F8043DFDF79AFE214602462868FFF733
:103F50005BFD0028EAD103B030BD00BF5C4E00100D
:103F60002DE9F3470146FFF721FC054620B94FF044
:103F7000FF3002B0BDE8F087046834B1247804F063
:103F8000F004A4F110035C425C410846FFF70EFC0C
:103F90000746F8B100264FF00C0AB146DFF88080E2
:103FA0000AFB06F151F808309F4210D108EB0103DB
:103FB0009A685868009202AA41F8089042F8040DE5
:103FC000C3E90199694601233868FFF759FE0136B4
:103FD000042EE5D12868FFF7FBFC804630B1FFF7DF
:103FE00059FB0028C3D00D4B1860C0E7FFF74BFB0F
:103FF0006E682F68C5F80480C5F80080FFF748FB9D
:104000001EB130463CB1FEF7EEF817B13846FFF767
:10401000EDFC0020ADE7FFF74FFEF6E75C4E001029
:104020003004001037B51546FFF7C0FB044610B941
:104030004FF0FF3005E04B782BB90068FFF718FD13
:1040400048B903B030BD102D03D1022B01D18B072D
:1040500008D06FF00F00FFF71DFB0028E8D0084BD9
:104060001860E5E74B6802AD488845F8043DFDF768
:1040700005FE294602462068FFF7E0FCE0E700BFA6
:104080005C4E001070B58AB00E46154619460F9C5E
:10409000FFF78CFBD8B10023ADF80230CDE9073330
:1040A000099301AB0593012306930E9BCDE90165AE
:1040B00003937CB12368049303AA0DF10203FFF775
:1040C00081FE48B1FFF7E6FA08B1084B18604FF0DF
:1040D000FF3009E02346EEE7BDF80200A84228BF02
:1040E00028460CB1049B23600AB070BD5C4E0010E2
:1040F000F0B587B00D46DDE90C171446FFF756FB07
:10410000064618B94FF0FF3007B0F0BD03681B78C2
:1041100003F0F003102B08D16FF00F00FFF7BAFA8D
:104120000028EFD01E4B1860ECE7B4F5803F03D3B6
:104130005A221B4B1A60E5E751BB002FECD100233C
:10414000CDE901338DF81230F9B14B6848880393FB
:10415000FDF794FDADF810002946A2B201A8FFF7C3
:10416000B6FE054620B901A93068FFF793FC054665
:1041700001A8FFF79FFE2846FFF78CFA08B1084B0D
:104180001860002DBED12046BEE703910846E1E746
:10419000102FC1D14B78022BBED18B07CFD0BBE7FC
:1041A0005C4E00107FB5054616461C46FFF7FEFA2A
:1041B00018B94FF0FF3004B070BD0068037803F009
:1041C000F003102B08D000233246CDE900332846F7
:1041D0002346FFF78DFFEEE714F0100F4FF00002BB
:1041E00014BF0323012304AD641045F8042D04F02B
:1041F0000404234300953246FFF7A8FC0446FFF76A
:1042000049FA08B1024B1860002CD2D10398D2E7CA
:104210005C4E001002292DE9F041134611D003290C
:1042200005D0012915D1224A0021102002E04020AA
:104230001F4AD9B2FFF7A8FB054680B91D4B69227A
:1042400009E0882A4FF00001194A0CBF21202020E4
:10425000F0E71622174B1A604FF0FF3419E00024E4
:10426000DFF85480FFF70FFA230153F808709FB965
:1042700008EB030648F80350FFF70AFA2B7877603B
:1042800003F0F003103B18BF012337817381B7811E
:104290006C612046BDE8F0810134FFF7F9F9042C88
:1042A000E0D12846FFF7A2FB024B1722D3E700BF5D
:1042B000CD3700005C4E0010600400102DE9F3477C
:1042C0000A9F80460C4616461D46FFF76FFA18B146
:1042D0003DB90E22944B1A604FF0FF3002B0BDE89A
:1042E000F0879248FFF7A0F9B8F1030F00F21381AD
:1042F0008F4B4FEA081A53F80A109946002900F02C
:104300000A81002C64D040F6FF739C421ED1202EFF
:104310001ED013DC042E01D0082E17D1032F40F23B
:10432000FE804968002900F0FA802C6891F9093074
:1043300076B294B133434B72002411E041F20A0388
:104340009E4216D041F20B039E4229D05C2407E026
:104350000B7803F0F003202BDFE723EA06034B7210
:104360007248FFF76BF9002C00F0DB806E4B1C608D
:10437000B2E7032F40F2D3804A68002A00F0CF80D2
:104380000B7803F0F003202BE0D12C68137C1CB1D8
:1043900043F001031374CFE723F001031374DFE745
:1043A000052F40F2BC8095F9001031B12846FDF789
:1043B000A1FE0146002800F0B08059F80A201378C9
:1043C00003F0F003202BB7D15068FEF766FBB3E78C
:1043D000731E062BBAD8DFE803F00E0448481827EE
:1043E0003400032F40F29B804B68002B00F0978035
:1043F0002A68DA72B4E7032F40F291804B68002BF1
:1044000000F08D802A689A72AAE7002F00F087805A
:104410004A68002A00F083800B7803F0F003202B19
:1044200094D12B7853779BE7032F78D94A68002AD9
:1044300075D00B7803F0F003202B87D12B689361A4
:104440008EE7002F6BD04A68002A68D00B7803F003
:10445000F003202B7FF47AAF2978137C11B143F05D
:1044600008039BE723F0080398E7072F57D94B6809
:10447000002B54D00B7803F0F003202B7FF466AFB1
:104480006B68032E00932B6801931FD14046FFF702
:104490008DF9C8B100230C25264A05FB03F18E587F
:1044A0007EB953185050009A02A95A6051F8042D51
:1044B00068469A60FDF748F80546002D18BF63244A
:1044C0004EE70133042BE8D10C2449E701A96846E3
:1044D000FDF7A2F805464046FFF768F90028ECD042
:1044E000DDE900C700224FF00C0E12490EFB02F36B
:1044F0005E58B0420BD10B445E68664507D19E689A
:10450000BE4204D10022C3E900229A60D5E70132FD
:10451000042AEBD1D1E7092422E7132420E716244B
:104520001EE72046DAE600BF5C4E0010844E001005
:10453000600400103004001002280B4603D111461D
:104540001846FDF7D7BA6122024B4FF0FF301A60D0
:10455000704700BF5C4E001007B52748FFF764F8AE
:10456000264B1B6813B1264A10689847224D254EEA
:10457000FEF72AF8431C044617D12846FFF75EF8D9
:10458000002201A93046FEF7D1FF2846FFF74CF87C
:10459000019C002CECD02378012B26D018D3022BC1
:1045A000E6D1D4E901309847E2E710B9FDF7EAFF18
:1045B000DEE72846FFF742F8224601A93046FEF71B
:1045C000B5FF04462846FFF72FF80134EED0DFE7A9
:1045D000D4E902136068984710B16068FDF703FEE4
:1045E00021460420FDF76EFCC2E7D4E9013098476C
:1045F00021460320F6E700BF844E0010A0040010FF
:10460000A4040010A8040010F8B5074604200E46C4
:104610001546FDF74BFC044668B10023C0E901765E
:104620000370C56001460548FEF76FFF28B12146BB
:104630000420FDF747FC4FF0FF30F8BDA804001040
:1046400091F8313013F0180F14BF024A024AFFF7F5
:10465000DBBF00BF890A00005917000038B50546C6
:1046600003200C46FDF722FC48B10123C0E90154A8
:10467000037001460348FEF738FF002038BD4FF0B5
:10468000FF30FBE7A804001070B50E46054C054648
:104690002046FEF7C9FF3046A8472046FEF7CEFF6A
:1046A000002070BD844E001037B505460C46FDF75E
:1046B000CEFB0A4B0C211D60094B0A481C60FEF71B
:1046C00007FF0948FEF7A5FF0423002200930749CE
:1046D000A0230748FEF7C4FF03B030BDA0040010BC
:1046E000A4040010A8040010844E001059450000D6
:1046F00058790000002382B001934FF0500383F3F8
:104700001188BFF36F8FBFF34F8F019B002BFCD03D
:1047100002B0704706480068006880F3088862B6F7
:1047200061B6BFF34F8FBFF36F8F00DF00BF000094
:1047300008ED00E04FF0807340F8043C054B21F099
:10474000010140F8081C40F80C3C40F8202C40388F
:10475000704700BFF54600000000000000000000A8
:10476000074B19680868B0E8F00F80F30988BFF3B9
:104770006F8F4FF0000080F311884EF00D0E7047E0
:10478000C44C00104FF0500383F31188BFF36F8FB8
:10479000BFF34F8F024A136801331360704700BFA5
:1047A00074000010034A1368013B13600BB983F3D4
:1047B0001188704774000010000000000000000025
:1047C000EFF30980BFF36F8F0D4B1A6820E9F00FEC
:1047D00010602DE908404FF0500080F3118800F080
:1047E00019FF4FF0000080F31188BDE808401968F8
:1047F0000868B0E8F00F80F30988BFF36F8F704747
:10480000C44C001008B54FF0500383F31188BFF378
:104810006F8FBFF34F8F00F0F3FD18B14FF0805250
:10482000024B1A60002383F3118808BD04ED00E0F9
:104830000023084A084913600B604FF47A71074B54
:104840001B68B3FBF1F30649013B0B6007231360C0
:10485000704700BF10E000E018E000E00C0000101E
:1048600014E000E010B500240A4B1A6842F4780204
:104870001A601A6842F078421A60FFF7D9FF064BB7
:104880001C60FFF747FF00F0C5FEFFF733FF20462F
:1048900010BD00BF20ED00E07400001010B50F4BFC
:1048A0001A68824218D35C681919884201BF4168AE
:1048B000184609195960446801198A4207D1084904
:1048C00009688A421FBF51681268091941609842FD
:1048D000026018BF186010BD1346E1E7BC4C001021
:1048E000AC0400102DE9F041044600F07BFD344992
:1048F000344D0B680BBB344A344E50071DBFD01DDE
:1049000020F0070002F590434FF490431CBF02468D
:104910001B1A00201344083B23F007037060326029
:10492000C3E90000981A0B60C2E90030284B1860F8
:10493000284B18604FF000432B602F6827423CD172
:10494000002C32D004F108035A071CBF23F00703E0
:104950000833002B31D01F4A166890469E422CD354
:104960001A4A15686868984201D22C6814BB096815
:10497000A94222D0296814681160C21A102A04F1D1
:10498000080404D9E81842606B60FFF787FF002332
:104990000F496A680868B61A864247EA0207C8F8EB
:1049A000006038BF0E606F602B6000F0AFFD2046E6
:1049B000BDE8F0812A462546D4E70024F5E700BF8C
:1049C000AC040010B04C0010B0040010BC4C00103F
:1049D000B84C0010B44C001010B50446E0B10F4ABA
:1049E00050F8043C1268134216D050F8081C99B9CC
:1049F00023EA020340F8043C00F0F4FC084A54F8AF
:104A0000043C1168A4F108000B441360FFF746FF53
:104A1000BDE8104000F07ABD10BD00BFB04C0010E2
:104A2000B44C0010014B1868704700BFB44C001024
:104A30004FF0FF3200F108034360C0E90223036135
:104A400000230360704700230361704743689A683E
:104A50004B608A609A68516099600368086101330D
:104A6000036070470A6830B5531C0AD103695A685D
:104A70004A6091608B60596003680861013303608C
:104A800030BD00F108035C6825689542EFD82346E5
:104A9000F9E70369D0E901128A60826851605968B8
:104AA000814208BF5A60002202611A68013A1A6006
:104AB0001868704710B50446FFF764FEA46BFFF753
:104AC00071FEB4FA84F0400910BD70B51546026C51
:104AD0000446866B42B905689DB9806800F05CFFAA
:104AE000A5600136A66370BD6DB9406801F069FD2F
:104AF0006368226C1344A2686360934201D3236805
:104B000063600020EDE7C06801F05BFD236CE268A4
:104B10005B4221681A448A42E2603EBFA2689B1849
:104B2000E360022DEDD10EB1013EEAE73046D8E751
:104B300003461A6C10B4084662B1D9689C681144E7
:104B4000A142D96028BF196810BC28BFD960D968B4
:104B500001F037BD10BC704770B50446FFF712FE78
:104B600094F8455004F124066DB2002D14DCFF23A7
:104B700084F84530FFF716FEFFF704FE94F8445022
:104B800004F110066DB2002D12DCFF2384F84430CE
:104B9000BDE87040FFF706BE636A002BE7D03046E1
:104BA00000F078FD08B100F0E1FD013D6DB2DCE7F9
:104BB0002369002BE9D0304600F06CFD08B100F00D
:104BC000D5FD013D6DB2DEE738B504460D46FFF771
:104BD000D9FDD4E90F3043432268D1181B1A13447E
:104BE000A160E3600021FF23A163626084F8443088
:104BF00084F8453095B9236963B104F1100000F0E1
:104C000049FD38B14FF08052094B1A60BFF34F8F06
:104C1000BFF36F8FFFF7C6FD012038BD04F1100010
:104C2000FFF706FF04F12400FFF702FFF2E700BFE1
:104C300004ED00E0F8B50646484350300D461746EF
:104C4000FFF750FE044648B155B92060C4E90F652E
:104C500001212046FFF7B8FF84F84C702046F8BDCC
:104C600000F150030360F1E710B502220C46002169
:104C7000FFF7E0FF00B1846310BD00002DE9FF479E
:104C8000002604468A461F46B046DFF8E8900192A7
:104C9000FFF778FDA26BE36B9A4201D3022F19D183
:104CA0003A4651462046FFF710FF636A1BB104F1F4
:104CB000240000F0EFFC38B14FF080522D4B1A6009
:104CC000BFF34F8FBFF36F8FFFF76CFD012004B070
:104CD000BDE8F087019D1DB9FFF764FD0020F6E7F0
:104CE00016B902A800F00EFDFFF75CFD00F07AFB9C
:104CF000FFF748FD94F84430FF2B08BF84F8448048
:104D000094F84530FF2B08BF84F84580FFF74AFD33
:104D100001A902A800F002FD28BBFFF733FDA26B3A
:104D2000E36B9A420ED1FFF73DFD019904F11000AB
:104D300000F0A0FC2046FFF70FFF00F0E7FB48B1B2
:104D40000126A5E7FFF72EFD2046FFF705FF00F03F
:104D5000DDFBF5E74FF08053C9F80030BFF34F8F0C
:104D6000BFF36F8FECE72046FFF7F6FE00F0CEFBB7
:104D7000B4E700BF04ED00E010B5024600210120B9
:104D8000FFF758FF044638B1002383600360C36017
:104D90001A461946FFF772FF204610BD38B50C467B
:104DA000EFF311854FF0500383F31188BFF36F8F3A
:104DB000BFF34F8F826BC36B93421BD990F8453082
:104DC00001325BB282635A1C0FD1436A0BB90120D6
:104DD00008E0243000F05EFC0028F8D0002CF6D06B
:104DE0000120206085F3118838BD01335BB280F863
:104DF0004530ECE70020F5E72DE9F04300260446B6
:104E00008846374685B0DFF8DC900192FFF7BAFCA0
:104E1000A56BD5B141462046013DFFF789FEA5634C
:104E2000236963B104F1100000F034FC38B14FF095
:104E300080522C4B1A60BFF34F8FBFF36F8FFFF779
:104E4000B1FC012005B0BDE8F083019D1DB9FFF75D
:104E5000A9FC0020F6E716B902A800F053FCFFF702
:104E6000A1FC00F0BFFAFFF78DFC94F84430FF2B53
:104E700008BF84F8447094F84530FF2B08BF84F8CD
:104E80004570FFF78FFC01A902A800F047FCF0B9BC
:104E90002046FFF70FFEA0B1019904F1240000F0B5
:104EA000E9FB2046FFF758FE00F030FB38B94FF021
:104EB0008053C9F80030BFF34F8FBFF36F8F0126C7
:104EC000A4E72046FFF748FE00F020FBF7E7204666
:104ED000FFF742FE00F01AFB2046FFF7EBFD00282B
:104EE000EDD0B6E704ED00E02DE9F04300250446DF
:104EF0002F462E4685B0DFF814910191FFF742FC52
:104F0000A36BE3B1013BA363236813B900F00CFE6C
:104F1000A060236963B104F1100000F0BBFB38B15D
:104F20004FF08052394B1A60BFF34F8FBFF36F8F32
:104F3000FFF738FC0125284605B0BDE8F083DDF811
:104F40000480B8F1000F03D1FFF72CFC0025F2E735
:104F500017B902A800F0D6FBFFF724FC00F042FAD4
:104F6000FFF710FC94F84430FF2B08BF84F844602E
:104F700094F84530FF2B08BF84F84560FFF712FC1A
:104F800001A902A800F0CAFB40BB2046FFF792FD32
:104F9000F0B123683BB9FFF7F5FBA06800F0AAFC6D
:104FA0000546FFF7FFFB019904F1240000F062FBC6
:104FB0002046FFF7D1FD00F0A9FA38B94FF0805331
:104FC000C9F80030BFF34F8FBFF36F8F012795E70C
:104FD0002046FFF7C1FD00F099FAF7E72046FFF7FA
:104FE000BBFD00F093FA2046FFF764FD0028EDD0EA
:104FF000002DA0D0FFF7C6FB616A19B1236B1968B9
:10500000C1F10501A06800F0FFFC9DE704ED00E0A0
:10501000002310B5074A02EBC3014C68844204D157
:10502000002042F83300486010BD01330A2BF2D152
:10503000FAE700BF884E001010B50446FFF7E8FFFE
:105040002046BDE81040FFF7C7BC0000064A1368C1
:105050001968064B19B94FF0FF321A607047126891
:10506000D268D2685268F8E7C84C0010784D00103A
:10507000F8B51B4B1B4E1C68054630680F460430C4
:10508000FFF707FD334640B901203168164EC96A63
:105090003268884022EA000232606A1C07D137B1C8
:1050A000196812480431BDE8F840FFF7CFBC1A6810
:1050B0006419546007D30E4A10681968BDE8F840B7
:1050C0000431FFF7CFBC0B4A106819680431FFF7B1
:1050D000C9FC094B1A68A24288BF1C60F8BD00BF1A
:1050E000C04D0010C44C0010484D0010984D0010E9
:1050F000CC4C0010C84C0010784D001080B50E4C00
:105100000E4F0F4E2368002BFBD0FFF73BFBFB68D5
:10511000DD68281DFFF7BDFC3368013B3360236861
:10512000013B2360FFF73EFB286BFFF755FC284649
:10513000FFF752FCE6E700BF384D0010AC4D001001
:10514000344D00102DE9F84F4FEA820A8046504650
:105150000D4699460B9EFFF7C5FB0746002800F059
:10516000A6805820FFF7BEFB0446002800F09C8074
:1051700052460763A521384601F047FA236BAAF18E
:10518000040A9A442AF0070A6B1E04F134020B3514
:1051900013F9011F02F8011B93F9001009B1AB428A
:1051A000F6D10A9D4FF0000B042D28BF0425271DC2
:1051B000E562C4E9125B384684F83FB0FFF743FC70
:1051C000C5F1050504F11800FFF73DFCC4F850B027
:1051D0002461A561646284F854B04A464146504651
:1051E000FFF7A8FA206006B13460FFF7CBFA374B1F
:1051F000374E1A68DFF8148101321A603268002ACB
:1052000058D134601B68012B25D13248FFF710FCC0
:105210003148FFF70DFC3148FFF70AFCDFF8F0904A
:105220002F48FFF705FC2F4D2F48FFF701FC48469C
:10523000FFF7FEFB2846FFF7FBFB2C48FFF7F8FBC8
:105240002B48FFF7F5FB2B48FFF7F2FB2A4BC3F87F
:1052500000902A4B1D600125294A2A4913680868D5
:1052600001331360E26A236405FA02F30343142056
:105270000B60184B394600FB0230FFF7E7FBFFF7E6
:1052800091FAD8F8003063B13368DA6AE36A9A4277
:1052900007D24FF080521C4B1A60BFF34F8FBFF301
:1052A0006F8F2846BDE8F88F3846FFF795FB4FF023
:1052B000FF35F6E7D8F80030002BCCD13368E26A2E
:1052C000DB6A9A4228BF3460C5E700BF344D001046
:1052D000C44C0010D04C0010E44C0010F84C0010EE
:1052E0000C4D0010604D0010204D0010804D00103E
:1052F000AC4D0010984D0010C84C0010CC4C001064
:10530000444D0010484D001004ED00E0944D001095
:105310004C4D0010F8B5164B05461B68834220D053
:10532000FFF730FA134B6C691F68134B1E68FFF7C9
:1053300039FABC4217D0B44215D0104B9C4208D168
:10534000AB6A83B995F85430012B0CBF02200320BF
:10535000F8BD0B4B9C4208D0002C0CBF0420012050
:10536000F6E70020F4E70220F2E70420F0E700BFB0
:10537000C44C0010C84C0010CC4C0010984D0010CC
:10538000AC4D001013B50024104B00940193802203
:1053900023460F490F48FFF7D5FE012814D14FF0DF
:1053A000500383F31188BFF36F8FBFF34F8F4FF01C
:1053B000FF32094B1A60094B1860094B1C6002B0A0
:1053C000BDE81040FFF74EBA02B010BD744D00109A
:1053D00079790000FD500000784D0010944D0010C8
:1053E000C04D0010024A136801331360704700BFBC
:1053F000404D0010014B1868704700BFC04D0010B1
:105400002DE9F84F364B1B68002B62D1354B1C68D9
:1054100001341C605CB9344A344B11681868106060
:10542000334A1960136801331360FFF70FFE314DE3
:105430004FF0000B2B68304FA34211D93A682F4B25
:10544000D16A14224A439A58022A28BF4FF0010B0E
:105450002B4A1268002A0CBF58460120BDE8F88F7D
:10546000DFF884A0DFF8A090DAF8002012681AB9FB
:105470004FF0FF322A60E1E7DAF80020D268D66800
:1054800071688C4201D22960D8E706F104084046D1
:10549000FFF7FFFAB16A19B106F11800FFF7F9FA40
:1054A00001224FF0140CF06AD9F8003002FA00F132
:1054B0001943124BC9F800100CFB00304146FFF7AE
:1054C000C5FA3868F16AC26A914228BF4FF0010BF1
:1054D000CAE70C4A4FF0000B136801331360B7E7BB
:1054E000404D0010C04D0010C84C0010CC4C0010B6
:1054F0007C4D0010784D0010C44C0010D04C0010B2
:10550000C44D00103C4D0010484D00102DE9F843EB
:10551000FFF738F92A4B1A68013A1A601C682CB157
:105520000024FFF73FF92046BDE8F883254B1B68B0
:10553000002BF5D0244D254EDFF8A4801FE0EB684A
:105540000127DC6804F1040904F11800FFF7A1FA4F
:105550004846FFF79EFA1420E26A316807FA02F320
:105560000B4300FB028049463360FFF76FFA184B8C
:10557000E26A1B68DB6A9A4201D3164B1F602B68F4
:10558000002BDCD10CB1FFF761FD134D2C6844B149
:105590000127104EFFF734FF00B13760013CF9D10D
:1055A0002C600C4B1B68002BBAD04FF080520B4B79
:1055B0001A60BFF34F8FBFF36F8F0124B1E700BFB5
:1055C000404D0010344D0010804D0010484D00102B
:1055D000C44C0010C44D00103C4D001004ED00E020
:1055E000D04C001008B540B94FF08052084B1A60FB
:1055F000BFF34F8FBFF36F8F08BDFFF7F3FE00219E
:10560000FFF736FDFFF782FF0028EDD0F4E700BF7B
:1056100004ED00E0124B30B51A68124B12B10122B2
:105620001A6030BD1A60104B1B68B3FA83F3142064
:10563000DBB2C3F11F0300FB03F20C498C18656851
:1056400008326D680A44954200FB031308BF6A687C
:10565000656008BF62605B68DA68054BE0E700BF21
:10566000404D0010C44D0010484D0010D04C0010AB
:10567000C44C001010B50C46054B19681831FFF7E3
:10568000F1F92046BDE810400121FFF7F1BC00BF51
:10569000C44C001038B5C368DC6804F1180528460E
:1056A000FFF7F7F9114B1B68E3B9251D2846FFF7F3
:1056B000F0F901230E49E26A08689340034314207D
:1056C0000B6029460B4B00FB0230FFF7BFF90A4B7A
:1056D000E26A1B68DB6A9A4285BF0120074B002003
:1056E000186038BD29460648EFE700BF404D00105E
:1056F000484D0010D04C0010C44C0010C44D001098
:10570000804D0010034B1B680360034B1B68436014
:10571000704700BF7C4D0010C04D001070B50C46A6
:105720000546FFF72FF80F4B1A682368591C0FD056
:105730000D482E6800686968864201D091420ED9F2
:10574000521A934209D99B1A23602846FFF7DAFFC1
:105750000024FFF727F8204670BD002323600124B2
:10576000F7E700BFC04D00107C4D00100122014B37
:105770001A607047C44D001070B50C4616460546B9
:1057800008B91B4A156805F134026260EA6A052B04
:1057900022612A6B2560E2612A6CA260AA6C6261B8
:1057A0004FF00002A2611BD011490968A9420BD138
:1057B0002273D6B1296B0A46531A12F8010BA52899
:1057C000FAD09B08238470BD032B2373F1D1FFF71C
:1057D00009FEAB6A0BB102232373FFF797FEE8E7DC
:1057E0002846FFF797FD2073E3E72684EBE700BF29
:1057F000C44C00102DE9F84F0D6881460C469246C6
:105800001DB300254FF0240B4B6801F108075B68BE
:10581000BB424B6004BFCB684B604B68D3F80C8035
:1058200063680BFB05915B6801229F42636008BFC0
:10583000E36805F1010508BF63606368DE685346ED
:105840003046FFF799FFB045EAD12846BDE8F88F0A
:105850002DE9F84305461746FFF7C4FD1F4B1B68AB
:105860008B4238D84FF0000824264446DFF8809059
:1058700009EB080106FB04500122FFF7BBFFA8F16A
:10588000140818F1640F0444F2D1154B0222196870
:1058900006FB0450FFF7AEFF124B044419680222C6
:1058A00006FB0450FFF7A6FF044404220E4906FB42
:1058B0000450FFF79FFF044406FB045003220B49EA
:1058C000FFF798FF04440FB100233B60FFF71EFE73
:1058D0002046BDE8F8830024F8E700BF344D0010EF
:1058E000C84C0010CC4C0010AC4D0010984D00106E
:1058F000204D00102DE9F0410446002836D0234AFF
:10590000C36A11681746C96A8B4237D21426826966
:105910001F4D002AA8BF3A6806FB0353A2BFD26AF4
:10592000C2F10502826142699A4221D100F1040864
:105930004046FFF7AEF8174B48B9E06A4643AA590C
:105940002AB901211A68814022EA01021A603A68E4
:105950001968D26AE262012404FA02F0084318606E
:105960001420414600FB0250FFF770F8204603E088
:105970003B68DB6AC3620120BDE8F0811368806C7C
:10598000DC6AA0422CBF00200120F5E7C44C0010C7
:10599000D04C0010484D0010F8B5044608B900205E
:1059A000F8BDC36CC16A826C013B9142C364F6D0FE
:1059B000002BF4D1051D2846FFF76BF8104E114A55
:1059C00050B91421E76A794373582BB90120136841
:1059D000B84023EA00031360A36CC3F10501A16181
:1059E000E3620124116804FA03F0084310601420F4
:1059F000294600FB0360FFF729F82046D0E700BFE7
:105A0000D04C0010484D0010F8B50446002834D0A2
:105A1000836C994238BF1946C36A8B422DD0C26C41
:105A2000012A2AD11426154D826906FB0353002A48
:105A30004269C162A4BFC1F1050181619A421CD1D2
:105A4000071D3846FFF725F8E26A0D4C40B956436A
:105A5000AB592BB901212368914023EA010323604C
:105A600001231420216893400B432360394600FB37
:105A70000250BDE8F840FEF7E9BFF8BDD04C001079
:105A8000484D00102DE9F74F00242427234B0470C4
:105A90001D68064618687843FEF724FF80460028F4
:105AA00039D022462946FFF7D3FE44464FF0200B5B
:105AB00007FB0087DFF86CA0BC4205D1404603B06D
:105AC000BDE8F04FFEF788BF237B6168042B3046AA
:105AD00094BF1AF903904FF0000900F0DFFE304642
:105AE00000F0E4FE3518AB1B0A2B11D900232B70F4
